:100000000C9467000C948F000C948F000C948F005C
:100010000C948F000C948F000C948F000C948F0024
:100020000C948F000C948F000C948F000C948F0014
:100030000C948F000C948F000C948F000C948F0004
:100040000C94DF010C948F000C94B5040C94E7041D
:100050000C948F000C948F000C948F000C948F00E4
:100060000C948F000C948F00000000080002010027
:100070000003040700000000000000000000000171
:10008000020408102040800102040810200102042C
:100090000810204080400404040404040404020204
:1000A000020202020303030303030202030000002F
:1000B0000023002600290000000000250028002B56
:1000C0000000000000240027002A0000170511246A
:1000D0001FBECFEFD8E0DEBFCDBF11E0A0E0B1E0A2
:1000E000E8E8FCE002C005900D92AE36B107D9F702
:1000F00022E0AEE6B1E001C01D92A631B207E1F701
:1001000010E0C7E6D0E004C02197FE010E943C0643
:10011000C636D107C9F70E940A060C9442060C9411
:1001200000008EBD00000DB407FEFDCF8EB5089512
:1001300060E08AE00E94270360E088E00E942703D5
:1001400061E089E00C9427030C949100CF93DF9336
:10015000D82FC62F60E089E00E9427038D2F0E94D0
:10016000A4008C2F0E94A40061E089E00E94270374
:1001700080E0DF91CF910895CF93C82F60E089E0B0
:100180000E9427038C2F0E94A40080E00E9491000F
:10019000C82F61E089E00E9427038C2FCF9108953A
:1001A000CF92DF92EF92FF920F931F93CF93DF9343
:1001B0001F92CDB7DEB7082F162FF42E60E089E02E
:1001C00079830E942703802F0E949100082FE12E3F
:1001D000C12E7981D72E8C2D8E198F1530F4F60112
:1001E00081916F010E94A400F6CF61E089E00E9436
:1001F0002703802F0F90DF91CF911F910F91FF90D8
:10020000EF90DF90CF90089501E010E087E00E942A
:1002100057039801281B390B20936E0187E00E9439
:10022000BC00C82F85FF0AC060E081EE0E94A600D6
:1002300041E06EE671E080EA0E94D000C4FF0AC08F
:1002400060E081EE0E94A60041E06EE671E080EA87
:100250000E94D0006C2F87E20E94A60062E370E04B
:1002600080E090E00E944E02D1CF60E088E00E94E2
:10027000270345E060E071E080E30E94D00045E0A4
:1002800060E071E08AE20E94D00061E081E20E94B9
:10029000A60061E082E20E94A6006AE184E20E9478
:1002A000A60068E285E20E94A60067E086E20E945E
:1002B000A6006EE080E20E94A60041E06EE671E0DA
:1002C00080EA0E94D00061E088E00C942703CF937D
:1002D00026E040E855E260E070E089E791E00E94A6
:1002E000550461E088E00E94EB0261E089E00E9431
:1002F000EB0260E08AE00E94EB020E94A90162E347
:1003000070E080E090E00E944E020E94980087E03A
:100310000E94BC00C82F65E071E089E791E00E946F
:100320008A0562E471E089E791E00E94840540E17A
:1003300050E06C2F89E791E00E94F2050E943501A0
:1003400060E087E00E94EB0261E087E0CF910C94CF
:100350002703CF93CFB7F89480916F01811127C005
:10036000E0EAF0E08491E9E8F0E09491E82FF0E031
:10037000EE0FFF1FEF53FF4FA591B491EC91E923CE
:1003800021F461E08AE00E94270361E08AE00E9494
:10039000EB028CB580618CBD8CB580648CBD61E056
:1003A0008DE00E94EB0261E08BE00E94EB02809105
:1003B0006F018F5F80936F01CFBFCF9108951F9220
:1003C0000F920FB60F9211242F933F938F939F9309
:1003D000AF93BF938091710190917201A0917301CD
:1003E000B09174013091700120E3230F2D3720F478
:1003F0004096A11DB11D05C023EB230F4196A11D01
:10040000B11D209370018093710190937201A093AC
:100410007301B09374018091750190917601A09160
:100420007701B09178010196A11DB11D80937501EE
:1004300090937601A0937701B0937801BF91AF912B
:100440009F918F913F912F910F900FBE0F901F9012
:1004500018953FB7F8948091750190917601A0911D
:100460007701B091780126B5A89B05C02F3F19F000
:100470000196A11DB11D3FBFBA2FA92F982F882724
:10048000820F911DA11DB11DBC01CD0146E0660F7B
:10049000771F881F991F4A95D1F708958F929F92D1
:1004A000AF92BF92CF92DF92EF92FF926B017C01ED
:1004B0000E9429024B015C01C114D104E104F10442
:1004C00001F10E9419060E942902DC01CB01881962
:1004D0009909AA09BB09883E9340A105B10560F3BB
:1004E00021E0C21AD108E108F10888EE880E83E005
:1004F000981EA11CB11CC114D104E104F10419F728
:10050000DBCFFF90EF90DF90CF90BF90AF909F90A8
:100510008F900895789484B5826084BD84B581609D
:1005200084BD85B5826085BD85B5816085BDEEE6FB
:10053000F0E0808181608083E1E8F0E010828081DA
:1005400082608083E0E8F0E0808181608083E1EB7D
:10055000F0E0808184608083E0EBF0E08081816066
:100560008083EAE7F0E080818B7F808380818260F6
:100570008083808181608083808180688083109205
:10058000C1000895833081F028F4813099F08230E1
:10059000A1F008958730A9F08830B9F08430D1F403
:1005A000809180008F7D03C0809180008F77809341
:1005B0008000089584B58F7702C084B58F7D84BD97
:1005C00008958091B0008F7703C08091B0008F7D37
:1005D0008093B0000895CF93DF9390E0FC01E15841
:1005E000FF4F2491FC01EA56FF4F8491882361F16B
:1005F00090E0880F991FFC01EF53FF4FC591D491F4
:10060000FC01E954FF4FA591B491611109C09FB756
:10061000F8948881209582238883EC912E230BC047
:10062000623061F49FB7F8943881822F80958323DC
:100630008883EC912E2B2C939FBF06C08FB7F89424
:10064000E8812E2B28838FBFDF91CF9108951F93D0
:10065000CF93DF93282F30E0F901E859FF4F8491C1
:10066000F901E158FF4FD491F901EA56FF4FC491C7
:10067000CC23C9F0162F81110E94C202EC2FF0E0AA
:10068000EE0FFF1FE954FF4FA591B4918FB7F89477
:10069000111105C09C91ED2FE095E92302C0EC916A
:1006A000ED2BEC938FBFDF91CF911F910895CF93E6
:1006B000DF93282F30E0F901E859FF4F8491F901C9
:1006C000E158FF4FD491F901EA56FF4FC491CC2372
:1006D00091F081110E94C202EC2FF0E0EE0FFF1F9B
:1006E000E355FF4FA591B491EC91ED2381E090E0AB
:1006F00021F480E002C080E090E0DF91CF91089586
:10070000FC01918D228D892F90E0805C9F4F821B90
:1007100091098F7399270895FC01918D828D981707
:1007200031F0828DE80FF11D858D90E008958FEFF7
:100730009FEF0895FC01918D828D981761F0828D55
:10074000DF01A80FB11D5D968C91928D9F5F9F7305
:10075000928F90E008958FEF9FEF0895FC01538DE5
:10076000448D252F30E0842F90E0821B930B54178B
:1007700010F0CF960895019708958DE095E0892BAC
:1007800049F080E090E0892B29F00E940D0581114D
:100790000C9400000895FC01848DDF01A80FB11DA9
:1007A000A35ABF4F2C91848D90E001968F739927A7
:1007B000848FA689B7892C93A089B1898C91806494
:1007C0008C93938D848D981306C00288F389E02D55
:1007D00080818F7D80830895CF93DF93EC01888D96
:1007E0008823C9F0EA89FB89808185FD05C0A88935
:1007F000B9898C9186FD0FC00FB607FCF5CF8081BB
:1008000085FFF2CFA889B9898C9185FFEDCFCE0104
:100810000E94CB03E7CFDF91CF910895EF92FF9233
:100820000F931F93CF93DF93EC0181E0888F9B8D13
:100830008C8D981305C0E889F989808185FD24C0D5
:10084000F62E0B8D10E00F5F1F4F0F731127E02E58
:100850008C8DE8120CC00FB607FCFACFE889F98935
:10086000808185FFF5CFCE010E94CB03F1CF8B8D28
:10087000FE01E80FF11DE35AFF4FF0820B8FEA896A
:10088000FB898081806207C0EE89FF896083E889E7
:10089000F98980818064808381E090E0DF91CF914D
:1008A0001F910F91FF90EF900895CF92DF92EF92FA
:1008B000FF921F93CF93DF93EC016A017B01122F0C
:1008C00060E970ED83E090E0A70196010E941A06AE
:1008D000DA01C9010197A109B109B695A7959795C4
:1008E0008795AC01E889F98982E08083411580E130
:1008F0005807A8F0E889F989108268E478EE81E069
:1009000090E0A70196010E941A06BA01A901415080
:100910005109610971097695679557954795EC8559
:10092000FD855083EE85FF854083188EEC89FD8917
:100930001083EA89FB89808180618083EA89FB8951
:10094000808188608083EA89FB89808180688083D8
:10095000EA89FB8980818F7D8083DF91CF911F9110
:10096000FF90EF90DF90CF9008951F920F920FB6F7
:100970000F9211242F938F939F93EF93FF93E09106
:100980008901F0918A018081E0918F01F0919001BD
:1009900082FD12C09081809192018F5F8F732091B0
:1009A0009301821751F0E0919201F0E0E758FE4F79
:1009B000958F8093920101C08081FF91EF919F916B
:1009C0008F912F910F900FBE0F901F9018951F922F
:1009D0000F920FB60F9211242F933F934F935F9373
:1009E0006F937F938F939F93AF93BF93EF93FF93F7
:1009F00089E791E00E94CB03FF91EF91BF91AF9106
:100A00009F918F917F916F915F914F913F912F9126
:100A10000F900FBE0F901F90189589E791E00E94EC
:100A2000800321E0892B09F420E0822F0895E9E773
:100A3000F1E01382128288EE93E0A0E0B0E08483BC
:100A40009583A683B78380E591E09183808385ECCD
:100A500090E09587848784EC90E09787868780EC88
:100A600090E0918B808B81EC90E0938B828B82EC79
:100A700090E0958B848B86EC90E0978B868B118E23
:100A8000128E138E148E0895CF92DF92EF92FF9202
:100A90000F931F93CF93DF936C017A018B01C0E01A
:100AA000D0E0CE15DF0589F0D8016D918D01D6011A
:100AB000ED91FC910190F081E02DC6010995892B03
:100AC00011F47E0102C02196ECCFC701DF91CF91D6
:100AD0001F910F91FF90EF90DF90CF9008956115D7
:100AE000710579F0FB0101900020E9F73197AF0122
:100AF000461B570BDC01ED91FC910280F381E02D48
:100B0000099480E090E008950C946F056EE571E023
:100B10000C946F050F931F93CF93DF93EC010E940A
:100B20006F058C01CE010E948605800F911FDF9119
:100B3000CF911F910F9108954F925F926F927F9284
:100B4000EF92FF920F931F93CF93DF93CDB7DEB752
:100B5000A1970FB6F894DEBF0FBECDBF7C01FA019E
:100B6000CB0119A2223008F42AE08E010F5D1F4F3D
:100B7000422E512C612C712CBF01A30192010E94C5
:100B80001A06F901CA01015011096A3014F4605DB6
:100B900001C0695CD8016C93232B242B252B61F7B2
:100BA000B801C7010E946F05A1960FB6F894DEBF89
:100BB0000FBECDBFDF91CF911F910F91FF90EF90AE
:100BC0007F906F905F904F9008952115310541F40B
:100BD000DC01ED91FC910190F081E02D642F0994EE
:100BE0000C949C050F931F93CF93DF93EC019A0114
:100BF000462F50E060E070E00E94E5058C01CE01D8
:100C00000E948605800F911FDF91CF911F910F9158
:100C1000089508950E948A020E9409060E946701B1
:100C2000CDEBD3E00E9404012097E1F30E94BD03C5
:100C3000F9CF0895A1E21A2EAA1BBB1BFD010DC01E
:100C4000AA1FBB1FEE1FFF1FA217B307E407F5077C
:100C500020F0A21BB30BE40BF50B661F771F881F58
:100C6000991F1A9469F760957095809590959B01EE
:100C7000AC01BD01CF010895EE0FFF1F0590F49167
:080C8000E02D0994F894FFCF68
:100C880034431010012A2A2A2A2A2A2A2A2A2A2AF6
:100C98002A2A2A2A2A2A2A2A54585F4D6F6465204C
:100CA80053746172742A2A2A2A2A2A2A2A2A2A2A60
:100CB8002A2A2A2A2A2A2A2A2A2A2A2A2A2A2A2A8C
:100CC8002A00737461747573203D200000000000D1
:100CD8000E044405AE03EC0380039A038C030D0A4B
:0E0CE800006E616E00696E66006F7666000039
:00000001FF
