:10000000E07F0010A9220000D9220000DB220000BE
:10001000DD220000DF220000E122000000000000DD
:10002000000000000000000000000000E3220000CB
:10003000E522000000000000E7220000E9220000A5
:10004000EB220000EB220000EB220000EB2200007C
:10005000EB220000EB220000EB220000EB2200006C
:10006000EB220000EB220000EB220000EB2200005C
:10007000EB220000EB220000EB220000EB2200004C
:10008000EB220000EB220000EB220000EB2200003C
:10009000EB220000EB220000EB220000EB2200002C
:1000A000EB220000EB220000EB220000EB2200001C
:1000B000EB220000EB220000EB220000EB2200000C
:1000C000EB220000EB220000EB2200000000000009
:1000D0000000000000000000000000000000000020
:1000E0000000000000000000000000000000000010
:1000F0000000000000000000000000000000000000
:1001000000000000000000000000000000000000EF
:1002F000000000000000000000000000FFFFFFFF02
:10030000044B05481B1A062B02D9044B03B11847AE
:10031000704700BFBF090010BC09001000000000BA
:1003200005490648091A891001EBD171491002D01C
:10033000034B03B118477047BC090010BC090010FB
:100340000000000010B5064C237843B9FFF7D8FF32
:10035000044B13B10448AFF300800123237010BD98
:10036000C009001000000000F895010008B5084B16
:100370001BB108490848AFF300800848036813B967
:10038000BDE80840CCE7064B002BF9D09847F7E7CB
:1003900000000000C4090010F8950100BC0900101D
:1003A00000000000E4309FE5000053E3D8309F05D3
:1003B00003D0A0E100200FE10F0012E31500000AB6
:1003C000D1F021E303D0A0E101AA4DE20A30A0E17F
:1003D000D7F021E303D0A0E1013A43E2DBF021E3CF
:1003E00003D0A0E1013A43E2D2F021E303D0A0E13F
:1003F000023A43E2D3F021E303D0A0E1023943E221
:10040000FF30C3E3FF3CC3E3043003E5002053E9BE
:10041000C02082E302F021E101A843E20010B0E332
:1004200001B0A0E10170A0E16C009FE56C209FE5A8
:10043000002052E0661800EB54309FE5000053E3C3
:100440000100000A0FE0A0E103F0A0E144309FE5C5
:10045000000053E30100000A0FE0A0E103F0A0E177
:100460000000B0E30010B0E30040B0E10150B0E1A3
:100470002C009FE5030500FBFA1600EB0400B0E139
:100480000510B0E17E0500FAFD0400FA0000080046
:10049000E07F001000000000751A0000C009001085
:1004A000441000109853000003681B691847036844
:1004B0009B69184703689B6A18474FF0FF307047E5
:1004C0001120704770477047704770477047036846
:1004D000184708B10B6803607047704738B5036868
:1004E000044601330D4604D124220549054802F093
:1004F000C3F9636815B1E268136038BD2269FBE790
:100500002586010064860100036810B501330446A6
:1005100004D12C220549064802F0AEF963691A6835
:1005200063681A4214BF0120002010BD2586010017
:100530006486010010B5044601F0D8F9204610BDCC
:1005400010B50446074B303003F1200240F8303C30
:100550007C330260436002F04DFD204602F006FC51
:10056000204610BD5C8F0100A0F13000E8E7A0F14B
:100570003400E5E710B5084802F0EAF904460748F8
:10058000FFF7C2FF064B84421A680CBF013202F12A
:10059000FF321A6010BD00BF500B0010980B001006
:1005A000D80C001010B5084802F0D2F904460748EC
:1005B000FFF7AAFF064B84421A680CBF013202F112
:1005C000FF321A6010BD00BFF00A0010380B001097
:1005D000D40C001038B504460D461822002105F051
:1005E000F9FF2046294601F0E6FF204638BD38B520
:1005F00004460D461822002105F0ECFF204629464E
:1006000001F0F3FF204638BD10B5044601F06EF945
:10061000204610BD2DE9F041B1F900300C46C25C16
:100620002D2A04BF01330B80B1F9005008BF4FF0F1
:10063000FF3600EB05077B7818BF01262E2B09D06B
:100640001349144802F0FCFC238800200333238064
:10065000BDE8F081405D16F0B3FA0F4916F0FEF9DF
:100660008046B87816F0ACFA0B4916F0F7F90B494A
:1006700016F0B2FB414616F0F3F907460335258024
:10068000304616F0A1FA394616F0F2FABDE8F081CC
:100690006C850100B80C00100000404200002041B1
:1006A000002337B5ADF8063003780546242B05D076
:1006B0000F49104802F0C4FC03B030BD012302AC66
:1006C00024F8023D2146FFF7A5FF0B4B1860BDF94A
:1006D0000630EA5C2C2A01D00849EAE701332146BA
:1006E0002846ADF80630FFF795FF054B1860E3E7A5
:1006F00094850100B80C0010B40A0010BE850100FA
:10070000B80A00102DE9F74F4D1E07460E469246D7
:100710000024AB46ABEB0503BD42019326DD1AF87E
:100720000500013D303815F0E7FD019B8046184675
:10073000894615F0E1FD02460B460020244902F0EF
:1007400045FD02460B464046494615F03BFE8046B5
:100750002046894615F0E2FD02460B4640464946D2
:1007600015F07EFC16F026F90446D3E7751C06F159
:10077000020B5D4528DC1AF805702C2F24D01FB31E
:10078000A81B15F0B9FD02460B460020104902F0E7
:100790001DFD8046A7F13000894616F015FA49463E
:1007A0000746404616F006F901464FF07E5016F017
:1007B00013FB0146384616F05BFA0146204616F058
:1007C0004FF901350446D4E7204603B0BDE8F08F69
:1007D000000024400023012210B51946044688B0C9
:1007E0000492E05C2C2826D108A800EB820040F897
:1007F000103C01320133502BF3D12246009904986A
:10080000FFF780FF104B2246186001990598FFF70B
:1008100079FF0E4B2246186002990698FFF772FF87
:100820000B4B2246186003990798FFF76BFF094BA3
:10083000186008B010BD2E2801BF08A800EB810089
:1008400040F8203C0131D5E7CC000010DC09001055
:10085000D0000010E00900102DE9F84F704801F0B9
:1008600053FE704C704D2368C01A16F0ADF96F49F5
:1008700016F0B2FA28606A4801F03AFE6C4916F0A8
:10088000A9FB20B1664801F048FE002323606448BC
:1008900001F03AFE2060286815F040FD8046894648
:1008A000644F654D3C68654E204615F025FD58A304
:1008B000D3E9002315F086FD42464B4615F0ACFE09
:1008C00016F078F82860306815F016FD50A3D3E9CB
:1008D000002315F077FD42464B4615F09DFE16F0BD
:1008E00069F80023564C3B6020603220336002F0F0
:1008F000DDFA544B2968186816F0B0F8DFF88091DB
:10090000514B05462168C9F80000186816F0A6F892
:100910004E4FDFF8708104463860D8F80010284642
:1009200016F09CF84A4E4B4B8246186031682046C0
:1009300016F094F8484B83461860484B28461968CF
:1009400016F096F9464B05461968504616F090F990
:100950000146284616F084F816F050FB414B8246BB
:100960001860414B2046196816F082F93F4B044647
:100970001968584616F07CF90146204616F070F8C2
:1009800016F03CFB3A4D3B4B3B4C18602B68226801
:10099000534413F1FE0F104434DBFF2BA8BFFF2399
:1009A00010F1FE0F2B6030DBFF28A8BFFF20206076
:1009B000184604F04DF915F09FFC17A3D3E9002366
:1009C00015F072FF08B100232B60206804F040F995
:1009D00015F092FC10A3D3E9002315F065FF08B1D0
:1009E000002323602968254800F0F4FA2168234891
:1009F00000F002FBD9F80030C8F800303B683360E3
:100A0000BDE8F88F6FF0FE03CAE76FF0FE00CEE797
:100A10006991ED7C3F359A40333333333333C33FF1
:100A2000E00C0010CC0B0010B00A001000007A445B
:100A30000080D444D40C0010F4090010D80C00102D
:100A4000F8090010B40A0010B80A0010E8090010F4
:100A5000C80B0010A00A0010A40A0010CC0000105F
:100A6000DC090010A80A0010D0000010E0090010F6
:100A7000EC090010AC0A0010F0090010D00B0010B7
:100A8000E4090010C40B0010C36810B504460BB194
:100A90009B689847204610BD034653F8042B10B5B9
:100AA000044602B9036022689A4204D05B220349DB
:100AB000034801F0E1FE206810BD00BFEF85010092
:100AC0001186010008B50248FFF7E6FF08BD00BF28
:100AD000C00F001008B50248FFF7DEFF08BD00BFD9
:100AE000C00F001038B504460D461022002105F055
:100AF00071FD0CB12B682360014BE36038BD00BF72
:100B000060850100000000002DE980484FF07C5016
:100B10008FB002F0BFF901219148FFF7DFFC914C43
:100B20004FF41641904802F06FF80EA941F8144DA9
:100B30000AA8FFF7D7FF0AA98C4801F03CFF0AA8D2
:100B4000FFF7A2FF0EA941F8184D0AA8FFF7CAFF48
:100B50000AA9864801F055FF854C0AA8FFF794FFC3
:100B60000EA941F81C4D0AA8FFF7BCFF0AA981484D
:100B700001F021FF0AA8FFF787FF0EA941F8204DD9
:100B80000AA8FFF7AFFF0AA97A4801F03AFF0AA8BE
:100B9000FFF77AFF784801F0C0FC774801F066FC67
:100BA0004FF07C5002F076F900216D48FFF796FC7B
:100BB0000026724CDFF8C0A1714802F038F8DFF867
:100BC00038B2002835D06F4D6F492A46204602F0D2
:100BD00054FA2B786D4A242B137028464FF00108E5
:100BE0006B4F15D1FFF75CFD6A4B504683F80080D0
:100BF00001F08AFCCBF800003B78D3B16B784C2B2A
:100C00000BD0502B3CD06449204602F019FA0EE07C
:100C1000232B08BF87F80080EEE7A9785F4B3039B7
:100C200019604B1E594259415D48FFF757FC00239C
:100C30003B70504601F068FCDBF80030C01A40F20F
:100C4000EE2398420CDD5749204602F0F9F9564B45
:100C5000564A1E60564B1E6000231360554A1360AF
:100C60005548FFF751FC01282CD14F4B1E60504BCB
:100C70001E60524B1A68012A2CD100221A6029E00A
:100C80004048FFF7A7FD4E4B186815F047FB4D4B4A
:100C900080461868894615F041FBCDE904014A4BAE
:100CA000186815F03BFBCDE90201484B186815F0B8
:100CB00035FB4246CDE900014B464549204602F04E
:100CC000BFF9B4E73C48FFF71FFC18B93B4B1A6863
:100CD000002A3CD0FFF7C0FD3E4B186815F01EFB04
:100CE000012304933C4B80461868894615F016FB97
:100CF000CDE90201394B186815F010FB42464B460E
:100D0000CDE900013649204602F09AF93548FFF74F
:100D1000C3FE354800F010FA05463248FFF7BCFE26
:100D2000284615F0FBFA0CA3D3E9002315F04AFB83
:100D300000222E4B15F046FB00222D4B15F06CFCCB
:100D400002460B4620462B4902F07AF934E701228D
:100D500094E700BFAFF300806666666666660A4089
:100D6000D80B0010A50500003C0C0010F00A001084
:100D700075050000500B0010E00C0010B80C0010BE
:100D8000880C00101C0A00107C8601009C0A0010D0
:100D9000380C0010B00B00108F860100D40A001030
:100DA000BC0A0010AC860100B40A0010EC09001067
:100DB000B80A0010F0090010D80A0010D400001082
:100DC000CC000010E0090010D0000010DC09001079
:100DD0007F860100F4090010B00A0010F809001025
:100DE000B8860100C00F0010000A001000488040C3
:100DF00000804940C7860100C00B001010B50446B2
:100E0000FFF79EFB204600F071FD204610BDA0F1CB
:100E10003000F3E7A0F13400F0E70000F7B54FF43D
:100E20001657424D424C00970023424E4FF0FF327E
:100E30004149284601F0B2FE2846404D224631463F
:100E400000F01EFD002300973D4A3E49284601F070
:100E5000A5FE28463C4D2246314600F011FD3B4A96
:100E60003B49284601F0D8FB28463A4D22463A49EC
:100E700000F006FD284601F061FB2246374928466E
:100E800000F0FEFC364800F0D7F836493648FFF748
:100E9000AEFB36493648FFF7AAFB36493648FFF71E
:100EA000A6FB36493648FFF7A2FB36493648FFF71E
:100EB0009EFB364D36493748FFF799FB364E37498A
:100EC0003748FFF787FB3749284601F013FD2246D4
:100ED00031462846344D00F0D3FC34493448FFF7FE
:100EE00079FB3449284601F005FD3146324E28464B
:100EF0003546224600F0C4FC30493148FFF76AFB12
:100F0000304F314B384645F8043BFFF7C5FD2F49BC
:100F1000284600F0CBF83846FFF7BEFD22463046A3
:100F20002B4903B0BDE8F04000F0AABC3C0C001017
:100F3000C8000010410500000FC00920880C0010F7
:100F400003C0092002C00920B40B001001C0092011
:100F500000C00920E00C0010CD0400004D2400006A
:100F6000D00B001032C00920D80B001034C009206B
:100F7000F00B001035C00920080C001037C0092004
:100F8000200C001006C00920040A0010F00A00100E
:100F900011C00920BC0A0010592900001AC00920FC
:100FA000D80A001040C00920500B001041C0092091
:100FB000380B00100AC00920FC0900100BC00920E2
:100FC000980B0010C00F0010508501003FC0092091
:100FD000CB04000038B501F1FF04042194FBF1F4C7
:100FE000054684F3070480342146024802F014F8D1
:100FF0002C6038BD6C0C001038B501F580740421EC
:1010000094FBF1F4054684F307042146024802F0FC
:1010100003F82C6038BD00BF6C0C001010B5054CF7
:101020004021204601F0F8FF2046BDE81040C021D5
:1010300001F0F2BF6C0C001010B50446FFF7EEFF94
:10104000204610BD0C4B00781A6822F0FF021A608F
:101050000122196882400A431A601A6842F08072BD
:101060001A6058680028FCDA1A68C0F30B1022F0E6
:1010700080721A60704700BF0040034070B506469A
:10108000FFF7E0FF04463046FFF7DCFF0546304639
:10109000FFF7D8FFAC4282BF23462C461D46A8422C
:1010A00028BF2846A04238BF204670BD38B50C4640
:1010B00005461949204601F0FFFAC0B2FF28287002
:1010C00004D12F221549164801F0D6FB154B2046B6
:1010D000D3F8C420104942F48052C3F8C420D3F896
:1010E000A82122F04072C3F8A821D3F8A82142F029
:1010F0008072C3F8A8210C4B1A680C4B13440C4A9D
:1011000093FBF2F3013B1B020A4A43F40013136002
:10111000BDE8384001F096BAD08601003C87010056
:10112000AD87010000C00F40DC0000103F5DC6002D
:10113000405DC6000040034008B5FFF79FFF15F073
:101140003FFD024915F094FD08BD00BF010880393C
:10115000431C10B5044604D115220649064801F087
:101160008BFB2046002100F095FC012004F01F04B9
:10117000A04010BDC58701006986010038B505464D
:101180004B1C0C4629600FD00846FFF7E1FF24F006
:101190001F0404F11803EB6004F11C032B6104F13C
:1011A000140368606B61AC6038BD006800F098BCE7
:1011B00038B50368044601330D4604D12C220A4990
:1011C0000A4801F059FB15B1012D07D038BDA268BE
:1011D0006168136823EA0103136038BDA26861687F
:1011E00013680B43F8E700BFC58701006486010060
:1011F0002DE9F74F4FF0010A3A4C3B4AD4F80490DE
:10120000DFF8E8B0D4F80880676AA66AB9F1000F81
:1012100015D1DFF8D490DFF8D4A0B8F1000F22D1B7
:101220004FF0010ADFF8C080DFF8C09077BB2E4F87
:10123000DFF8B880002E3ED103B0BDE8F08FB9FAD8
:1012400089F5C5F11F05EDB252F8250028B101213D
:10125000DBF8003001929847019A0AFA05F5E5603B
:10126000A9EB0509D2E7B8FA88F5C5F11F05EDB27B
:1012700059F8250018B10221DAF800309847012307
:1012800003FA05F5E560A8EB0508C6E7B7FA87F5A8
:10129000C5F11F05EDB20F2D08D805F1200358F850
:1012A000230018B10121D9F8003098470AFA05F552
:1012B000E5627F1BBAE7B6FA86F5C5F11F05EDB208
:1012C0000F2D08D805F1200357F8230018B102218B
:1012D000D8F800309847012303FA05F5E562761B3C
:1012E000A8E700BF80800240000D0010C00D001074
:1012F00070B51E464B1C044623D0134B134D1A6089
:1013000021F01F03036001F01F0321F05F01A942D8
:10131000436002D00E4801F0C1FA23686268AB4214
:101320000C4918BF20320C4BA26041F822609B6828
:101330000A4A0020C3F894204FF40012084B1A60A8
:1013400070BD084670BD00BFC00D001000C0092070
:1013500032880100000D001000ED00E0F1110000E6
:1013600000E100E000218268014B43F82210704741
:10137000000D001030B503682C4DAB4209D02C4C49
:10138000A34217D0012930D1AB420AD0A34219D0D1
:1013900030BD01234468012903FA04F3254CE360BE
:1013A00030D1012340682349AAB10A69834013431D
:1013B0000B6130BD01234468012903FA04F31D4C7D
:1013C000E36216D1012340681A494AB10A6B83408F
:1013D00013430B6330BD0A69834022EA0303E7E746
:1013E0000A6B834022EA0303F3E7AB420AD0A3422D
:1013F000CED1012340680F4992B14A6B8340134319
:101400004B63C5E7012340680A4922B14A6983401A
:1014100013434B6130BD4A69834022EA0303F8E776
:101420004A6B834022EA0303EAE700BF00C00920B9
:1014300040C0092080800240044B49001B689B0883
:10144000B3FBF1F10368596119617047DC000010CA
:10145000F8B50E46044624493046154601F02CF9ED
:1014600022490746284601F027F90146384601F08F
:1014700005F92060013004D163221D491D4801F0A7
:10148000FBF923681C4A934222D002F5882293423A
:1014900024D0A2F50422934207D102F56022D2F8AB
:1014A000C43043F08003C2F8C43020461349FFF72C
:1014B000C3FF3C22236830469A6140220A491A60E1
:1014C00001F0C0F82846BDE8F840084901F0BAB874
:1014D0000B4AD2F8C43043F40023E4E7084AD2F8B8
:1014E000C43043F08063DEE79C880100608801001F
:1014F000D88801004489010000C00540A086010091
:1015000000C00F4038B50368044601330D4604D1CE
:1015100024220549054801F0AFF9636815B1E26876
:10152000136038BD2269FBE7588901006486010019
:1015300010B586B001F0B8FA1449684601F055F8C4
:10154000042401216846FFF7DDFF962001F0AEFC80
:1015500000216846FFF7D6FF962001F0A7FC013C6A
:10156000EFD1042401216846FFF7CCFF4FF4C87087
:1015700001F09CFC00216846FFF7C4FF4FF4C870DF
:1015800001F094FC013CEDD1DAE700BF32C0092044
:1015900070B50D460446A0B001F086FA2B462246EF
:1015A0008021684609F082FB051E03DC01F0A8FAE1
:1015B00020B070BD094B1B6823B9094A09490A4884
:1015C00000F0BCFD0024084E1DF804103046013424
:1015D00000F018FDA542F7D1E8E700BFD80E0010D3
:1015E00003C0092002C00920381000100FB407B54D
:1015F00004A951F8040B0191FFF7CAFF03B05DF88D
:1016000004EB04B07047000008B5084B1B685BB9D9
:1016100007490848084A00F091FDBDE808404FF42A
:101620001651044800F058BB08BD00BFD80E00108A
:1016300002C009203810001003C00920022810B58C
:1016400001DC002010BD00210B4AC31E52F823000C
:1016500042F8231030B903F001FB092303604FF077
:10166000FF3010BD03685B699847041EE9DA03F098
:10167000F5FA64420460F2E7C40D00100228F8B5E0
:101680000D4614460EDC134B1B680BB9FFF7BCFF6D
:10169000114E2F19BD4210D015F8011B304600F035
:1016A000B1FCF7E70D4B033853F8200038B903F0CD
:1016B000D5FA09234FF0FF3403602046F8BD0368D4
:1016C000DB689847041EF8DA03F0C8FA6342036047
:1016D000F3E700BFD80E001038100010C40D001042
:1016E000022810B50C460BDC104B1B680BB9FFF73A
:1016F0008BFF0F4800F040FC20700124204610BDF5
:101700000C4B033853F8200030B903F0A7FA092333
:101710004FF0FF340360F1E703689B689847041EAD
:10172000ECDA03F09BFA63420360E7E7D80E00109F
:1017300038100010C40D0010022810B516DD0C4B37
:10174000033853F820402CB903F088FA09230360CA
:10175000204610BD23682046DB699847041EF7DA4F
:1017600003F07CFA644204600024F1E70124EFE70F
:10177000C40D0010022810B506DC03F06FFA1D231B
:1017800003604FF0FF3010BD0A4B033853F82000C0
:1017900018B903F063FA0923F2E703681B69984755
:1017A000041E04DA03F05AFA64420460E9E72046B2
:1017B00010BD00BFC40D0010022838B50D4604DC72
:1017C0004FF400534B60002038BD0E4B033853F8E4
:1017D000204034B903F042FA092303604FF0FF3090
:1017E00038BD23682046DB699847002814BF4FF4B2
:1017F00000534FF400436B60236820469B6A984770
:101800002861E0E7C40D001008B5012000F03AF8A7
:101810000C4A10B513681844EFF30881884205D3C9
:101820000C22094B4FF0FF301A6010BD07490C68BD
:1018300024B10749096821448842F1D21060184652
:1018400010BD00BFD800001040100010CC0E0010DA
:10185000D00E0010094C08B523680546986803F0BF
:10186000D7FB2368D86803F0D3FB01F0B8FA08B1BE
:1018700001F021FB0DB1FFF75BFEFEE7E800001071
:101880000120704708B5FFF7E5FF012070470021F0
:1018900005F0D2B81FB504220C463A230DEB020125
:1018A00001900DF109008DF8083004F085FD214606
:1018B00002A803F00FFE044638B101980368DB6903
:1018C000984710B12046FFF7E2FF204604B010BD54
:1018D0007047704708B5FFF7FBFF08BD08B5FFF775
:1018E000F8FF08BD08B104F0CDBC7047FFF7FABFA0
:1018F00010B504460948FFF7CFF800231946084AF7
:1019000052F82300A04208BF42F823100133402BB5
:10191000F6D10248FFF7C0F810BD00BFC40E00109A
:10192000C40D00102DE9FF4789464049064605F0E1
:1019300005FA044628B9FFF767FE204604B0BDE863
:10194000F0873B49304605F0F9F918B9FFF75CFE1E
:101950000124F2E73749304605F0F0F918B9FFF7EE
:1019600053FE0224E9E7344D3448FFF795F800248C
:10197000A84655F82470002F40D00134402CF8D1EF
:1019800003F06CF9182303602C48FFF785F80EE08C
:10199000314602A801F025FA02A801F066FA0646CF
:1019A00040B903F05BF91323036045F824604FF05E
:1019B000FF34C2E702A801F046FA074602A81FB1A9
:1019C00001F04AFA01902BE001F034FA06460028B3
:1019D000E7D0036802A8D3F808A001F020FA29F4A0
:1019E0008033024601A93046D0470646C0B103F015
:1019F00035F97642066045F82470D8E74FF0FF339A
:101A00000E4845F82430FFF747F8337801973A2B12
:101A1000BED10422711C02A804F0CEFC029B0193EB
:101A2000019B48F82430033487E700BFE2890100B6
:101A3000E9890100DA890100C40D0010C40E00100C
:101A40007047704770470000074B10B59A68074908
:101A50000748043A52F8044F41F8044F8142F9D143
:101A60004FF080529A6010BD00ED00E0FCFFFF0FC8
:101A7000C000001008B5FFF7E7FFFFF7E2FFFFF730
:101A8000E1FF08BD08B5FFF7DBFFBDE80840FFF741
:101A90003BB8000038B5431C04460D4604D115225E
:101AA0000D490E4800F0E8FE04F16040A0F51C204E
:101AB0004200030903209B0003F1804303F5303308
:101AC000196802F01E02904021EA000119601968AD
:101AD00095400D431D6038BDF18901006986010004
:101AE00038B5431C05460C4604D120221749184836
:101AF00000F0C2FE05F16040A0F51C2043099B00E8
:101B000003F1804303F530339D6EC4F3800100F090
:101B10001F0201FA02F225EA02059D669D6E2A4324
:101B20009A6691B94200030903209B0003F18043A8
:101B300003F53033196C02F01E02904021EA0001D7
:101B40001964196C94400C431C6438BDF189010080
:101B50006986010030B52A4B04689C4224D006DC1B
:101B6000A3F580439C420CD000231D460BE0254B7F
:101B70009C421CD003F580439C42F5D1224B0825A2
:101B800001E00525214BAAB10122606802FA01F1AA
:101B9000014361601E4905F110008968AA4041F8BF
:101BA00020301C4B1A6030BD1B4B0625EBE71B4B4E
:101BB0000725E8E701290AD042683820184B00FBC6
:101BC000023292F8363092F83520D34216D10123F2
:101BD00003FA01F2B1FA81F16068490920EA0200D2
:101BE0006060626803FA01F1114207D1094AAB4013
:101BF000C2F88030BFF34F8FBFF36F8F30BD00BF8F
:101C00000000014000800940C51C0000891C000044
:101C100000ED00E000E100E09D1C0000B11C0000B0
:101C2000DC0E0010012810B408D0022808D010BC27
:101C30007047506820F00100506010E003460EE04D
:101C400038230F4803FB01035868013006D0186998
:101C50009C68046093F83630002BEAD000233822C9
:101C600051430748421840580028E0D01BB992F869
:101C70003620002ADBD0034A1946126810BC1047F0
:101C8000DC0E0010D40E0010034A00219068C0F34F
:101C90004200FFF7C7BF00BF00C00040034A012158
:101CA0009068C0F34200FFF7BDBF00BF00000140D5
:101CB000034A02219068C0F34200FFF7B3BF00BFA0
:101CC00000800940034A03219068C0F34200FFF7F7
:101CD000A9BF00BF00C009402DE9F04F754A0E466C
:101CE00001688DB09142059004DD9B2272497348D2
:101CF00000F0C2FD059B72491A688A4200F09C8080
:101D000079DCA1F580418A4200F088806D4AD2F8E2
:101D100000903201B9FBF2F5ACB202FB1595002D33
:101D200000F0BF804FEA490308934FEA8903079305
:101D3000079A01270392002233462146DDF820B09E
:101D4000CDF810900696029701921A464FF00008BF
:101D50005FFA87FABBF1000FABBF0398BBFBF2F44D
:101D6000B0FBF2F42409A8BF64090134C4F34F04A2
:101D70005FFA88F5002C00F09780B8F1000F02D0D0
:101D8000012C08BF022407EB080060430A93049B60
:101D9000C000B3FBF0F00130C6EB50000B9209918C
:101DA00002F056FF069B099998420B9A0A9B62DA49
:101DB00086425BD10F2F07D12146CDF808A00195AF
:101DC0000C46DDF808A0019D059B45EA0A151B6835
:101DD000EDB21A7B42F080021A73C4F30722E4B218
:101DE0001A711C7083F828501A7B02F07F021A7354
:101DF0000DB0BDE8F08F34498A4229D001F5804109
:101E00008A4283D1314AD2F8AC1121F44021C2F880
:101E1000AC11D2F8AC1141F4802124E02B4AD2F865
:101E2000A81121F0C001C2F8A811D2F8A81141F000
:101E30004001C2F8A81169E7244AD2F8A81121F498
:101E40004071C2F8A811D2F8A81141F48071F0E7EE
:101E50001E4AD2F8AC1121F44031C2F8AC11D2F8CC
:101E6000AC1141F48031C2F8AC114FE72146069025
:101E7000CDF808A0019508F101085FFA88F05045F7
:101E80003244FFF467AF0F2F9AD0049A07984A4460
:101E90000492089A01379344039A3344024403920C
:101EA00053E74FF0010A8FE7B8F1000F0CBF012490
:101EB000022468E700C00940808B0100EF8B01001D
:101EC00000000140DC0000100080094000C00F400D
:101ED000F8B55E1E012E07460C46154604D9FB22B6
:101EE0001349144800F0C8FC053C032C04D9FC221B
:101EF0000F49114800F0C0FC042D04D9FE220C4902
:101F00000E4800F0B9FC013DEDB2032D8BBF00235C
:101F100001221A460A4B44EA860498BF5B5744EAFA
:101F2000C204396844EA0314E4B20C73F8BD00BF7C
:101F3000808B0100088C01002D8C0100508C010069
:101F40005C8A0100034B1960382341684B43024906
:101F5000CA507047D40E0010DC0E001030B431B9F6
:101F600038254368034C05FB034383F8362030BC17
:101F7000FFF7F0BDDC0E001010B50268137DDB0723
:101F8000FCD5382443680848117804FB03035868DB
:101F9000C9B2013006D058699B680360536843F0AA
:101FA00001035360084610BDDC0E00100368187D65
:101FB00000F00100704700003821114A436801FB1E
:101FC0000323DA69013209D01A6B1B6A12681A42BC
:101FD00014D10368187DC0F3801070470268127D29
:101FE000920604D50022012083F83420704793F82C
:101FF00034000F288CBF002001207047002070475C
:10200000DC0E001038B504460D462046FFF7D4FF1D
:102010000028FAD038212368EDB21D706368044AA5
:1020200001FB032393F83420013283F8342038BDB8
:10203000DC0E00102DE9F84F9A463C4C036805462B
:10204000A34218BF00248946904647681CB1237CF0
:1020500003F03F03237438234FF0FF32344E2846F9
:1020600003FB0763DA615A60002283F835201146CA
:10207000FFF770FDB9F1000F55D02E49404600F032
:102080000FFB2D498346504600F00AFBA9F10203DD
:10209000012B1BD8BAF1FF3F0BD0244B98420DD136
:1020A00064B1237C244943F080032374504600F03C
:1020B000C9FAB9F1030F0CD0BDE8F88F382000FB46
:1020C000076051461C3000F076FAF2E7B9F1010FD3
:1020D00029D1B8F1FF3F01D1BDE8F88F07222B6865
:1020E0001A72124B9B450AD14CB1237C404643F0F7
:1020F000400323740F49BDE8F84F00F0A3BA382419
:1021000004FB076041460022043000F057FA012228
:102110006B68284604FB036686F835200021BDE87D
:10212000F84FFFF717BDBDE8F88F00BF0000014072
:10213000DC0E0010848A0100608A01002DE9F8435A
:102140000F4605464D493846164600F0B5FA4C494B
:102150000446304600F0B0FA0146204600F08EFA00
:10216000411C044604D15C224649474800F084FBE8
:10217000464B2C609C4263D04DD8A3F580439C42D3
:1021800056D04FF001094FF0000884F808904FF442
:1021900016512846C4F80480FFF79EFD42464B4680
:1021A00008212846FFF794FE3449384600F04AFAE1
:1021B0003349304600F046FA7A1C03D0414638468F
:1021C000FFF78EFC731C03D000213046FFF788FC1C
:1021D0002E4B9C424CD03FD8A3F580439C4244D028
:1021E00038216A682A4B284601FB02324FF0FF3340
:1021F00000215360D3611A46FFF71CFF254B9C4218
:102200003AD10122244B29461A6024480822BDE80D
:10221000F84304F0D1B8224B9C4217D003F5804319
:102220009C42AED11F4AD2F8C43043F0007304E0A0
:102230001C4AD2F8C43043F00803C2F8C430A0E707
:10224000184AD2F8C43043F01003F6E7154AD2F822
:10225000C43043F08073F0E7114B9C420AD003F581
:1022600080439C42BCD1032300E000236B60B7E7AE
:102270000123FBE70223F9E7BDE8F883148B010093
:10228000A88A0100808B0100D48C0100000001406D
:10229000DC0E001000C00040D80E001038100010F6
:1022A0000080094000C00F400649074A074B9A4288
:1022B000BEBF51F8040B42F8040BF8E7044880470E
:1022C0000448004704960100C8000010BC09001033
:1022D000ED220000A4030000FEE7FEE7FEE7FEE7B4
:1022E000FEE7FEE7FEE7FEE7FEE7FEE72022264BDD
:1022F000C3F8A021D3F8A021920603D5D3F8A021DA
:102300005006FBD50222C3F8042100220120C3F8A5
:10231000A821C3F8AC210B22C3F80C01AA21C3F8F1
:1023200084205522C3F88C10C3F88C20C3F8800099
:10233000C3F88C10C3F88C20134B1A46D3F88810BE
:102340004901FBD50321C3F88010AA21C3F88C10E2
:102350005521C3F88C10D2F8883013F0407FFAD0A2
:102360000523C2F80831094BC2F8C4300023C2F873
:10237000C831136823F4704323F03A0343F4405305
:1023800043F03A031360704700C00F40DE87280413
:10239000104B1868E0B901210F4A1960D2F8C43017
:1023A00043F40003C2F8C430A2F5D0221067022023
:1023B0000A4B1B6850600A48B3FBF0F3013BD36043
:1023C000084B51609B68084A1A651022074B1A6037
:1023D000704700BFBC0F001000C00F40DC000010B1
:1023E00000093D0000ED00E04527000000E100E0AD
:1023F00008B5044B1B680BB9FFF7CAFF024B98687E
:1024000008BD00BFBC0F001000400940034B98619D
:102410005A6942F001025A61704700BF004009400A
:102420001022024BC3F80021704700BF00E100E01A
:10243000024A536923F00103536170470040094089
:102440000122014B1A6070470040094010B5044654
:1024500000F02AFB23681BB1237F0BB100F056F973
:102460000023236000F04CFB204610BD10B504464D
:1024700000F01AFB236853B9237F0BB100F02CF94D
:10248000A06900F0E7F90123C4E902012360BDE877
:10249000104000F035BB38B5044600F005FB23685A
:1024A00073B1A06900F0D6F904F10805D5E900453B
:1024B000041B61EB050500F023FB2046294638BDCF
:1024C00000240025F7E770B5064600F0EDFAD6E9DE
:1024D00004453046FFF7DFFF24184D4100F010FBA4
:1024E0002046294670BD08B5FFF7EDFF08BD000086
:1024F00008B5FFF7F8FF14F067FB024914F06CFC15
:1025000008BD00BF0024744908B5FFF7DCFF4FF495
:102510007A72002314F098FD08BD10B5044600F04F
:10252000C3FAA06900F096F900220023C4E9020171
:10253000C4E90423BDE8104000F0E2BA002310B55E
:10254000002203600023C0E90223C0E904230446FB
:1025500000F0F4F80123A06123772046FFF7DDFFA8
:10256000204610BD38B50368044601330D4604D13A
:1025700024220549054800F07FF9636815B1E26837
:10258000136038BD2269FBE75889010064860100A9
:1025900070B50E4604461546FEF7F0FD013609D02B
:1025A00020460021FEF704FE29462046BDE8704083
:1025B000FEF7FBBD70BD0322FFF7EABF70B50E4604
:1025C00004461546FEF7DAFD01360DD029462046B1
:1025D000FFF7C8FF20460121FEF7EAFD2046BDE8CF
:1025E00070400221FEF7E1BD70BD0022FFF7E6BF9B
:1025F000064B19681A1D01B91A601B68934204D072
:102600005B220349034800F037B97047C80F001038
:10261000E48C010011860100074B10B50360002314
:1026200004464360054B04304360FEF711FF044B42
:1026300020461C6010BD00BF508D0100A086010027
:10264000D00F001010B5044601300DD110BD9C42D2
:1026500009D120468968FFF71DFA2046BDE81040E1
:102660000221FFF73DBA0C310B685A1CEFD102482A
:10267000BDE8104000F012B9918D0100884208B504
:1026800008D0431C06D0013106D0044800F006F9FA
:102690004FF0FF31084608BD0146FBE7608D0100A1
:1026A0000B685A1C01D118467047834201D1486813
:1026B00070470C31F4E70000421C10B5044607D007
:1026C000FFF7EEFF431C044602D1024800F0E6F893
:1026D000204610BD718D010008B500F0E5F9094BE9
:1026E0001A884FF6FF739A4204D100F009FA06489F
:1026F00000F0D4F80121034800F020FABDE80840BA
:1027000000F0FEB9D40F0010A28D010008B500F052
:10271000CBF9084B1B8823B900F0F2F9064800F00A
:10272000BDF80121034800F016FABDE8084000F0AA
:10273000E7B900BFD40F0010CF8D010000487047EB
:10274000F88D0100014800F063B800BFF88D01006A
:102750000368D0B544685B68D4E9026798470022F3
:10276000B04242EA00023B4602D2003247F1010386
:10277000C4E90223D0BD2DE9F0410646FFF7E8FF8A
:10278000726837685368D2E902012BB3D3E900239A
:10279000994208BF904203D37B69BDE8F0411847D6
:1027A000141A63EB0105002D08BFB4F1E04F13D2FA
:1027B000121A84183B69204641F1000598473046BB
:1027C000FFF7C6FF7368D3E90223AB4208BFA242FA
:1027D00005D333685B69E0E74FF0E042E9E7BDE825
:1027E000F081036810B504461B68984700226368AF
:1027F00000201A605A6000210122C3E902011A7404
:102800002046FFF7A5FF2046BDE81040FFF7B3BF05
:10281000036870B5DB680446984763685B68A3B1DA
:102820002046FFF795FF65686E68D5E90201D6E995
:102830000023994208BF904207D3F3686B602B686E
:10284000002BEAD0B0689847E7E72046BDE8704023
:10285000FFF791BF436810B51B7C04460BB9FFF727
:10286000C0FF2046FFF774FF6368D3E9020110BD83
:1028700008B5FFF7EFFF08BD70B504460D461646D4
:1028800000F012F933462A4621460348FEF7AEFE11
:10289000BDE87040FEF74CBE188E01000FB413B5B2
:1028A000084B1A784AB9012405A904981C700191B3
:1028B000FEF76EFE2046FEF7E5FF02B0BDE81040D1
:1028C00004B07047F00F0010036810B501330446E0
:1028D00004D12C2205490648FFF7CEFF63691A6828
:1028E00063681A4214BF0120002010BD58890100FE
:1028F00064860100F8B50646044600250F46124BD3
:10290000182246F8043B0021304603F063FE2946B6
:10291000E56125626562102204F1280003F05AFE89
:102920002946102204F1380003F054FE2346074ADA
:10293000394604F11C00FEF7DBFC30463946FFF750
:102940003AFE2046F8BD00BFB88E0100792A00008B
:102950000430FFF7B9BF000010B50446074B40F83C
:102960001C3BFEF7FFFC04F13800FEF78DF804F184
:102970002800FEF789F8204610BD00BFB88E010080
:1029800010B50446FFF7E8FF2046FEF7AFFF2046EC
:1029900010BD884238B504460D460AD0FEF774F8DB
:1029A0003CB1EB681BB15B68294620469847EB6851
:1029B000E360204638BDF0B50F46044685B000F010
:1029C00073F8FD6804F128061C3465B139463046B9
:1029D000FFF7DFFF012201212046FEF7CBFC00F0CC
:1029E0008FF805B0F0BD10222946684603F0F2FDCD
:1029F00069463046FFF7CDFF6846FEF745F82A46A0
:102A0000E9E7F0B50F46044685B000F04DF8FD68E3
:102A100004F138061C3465B139463046FFF7B9FF7A
:102A2000012202212046FEF7A5FC00F069F805B05E
:102A3000F0BD10222946684603F0CCFD69463046B9
:102A4000FFF7A7FF6846FEF71FF82A46E9E70000F0
:102A5000C36810B504462BB940F20E22044905485C
:102A6000FFF70AFFE3682046BDE810401B681847DF
:102A7000498E0100A88E0100012908B502D0022963
:102A800006D008BD436B13B12830FFF7E1FF08BD46
:102A9000436C002BFBD03830F7E7EFF31080C043D6
:102AA00000F001007047000038B5FFF7F6FF05465B
:102AB00072B60E4C236823B980F001030C4ADBB2D6
:102AC00013702368013304D143220A490A48FFF7EF
:102AD000D3FE23682BB125B1472206490748FFF7EB
:102AE000CBFE23680133236038BD00BFF40F001014
:102AF000F10F0010C08E0100198F01003F8F0100FF
:102B000010B50A4C236883B1FFF7C7FF20B15822E4
:102B100007490848FFF7B0FE2368013B236023689C
:102B20001BB9054B1B7803B962B610BDF40F00103A
:102B3000C08E01003F8F0100F10F001038B505462F
:102B40000C46FFF7B1FF29880C44A4B22C80FFF794
:102B5000D7FF204638BD70B505460E46FFF7A4FFE7
:102B60002C88A41BA4B22C80FFF7CAFF204670BD9E
:102B70007047A0F13000FFF7FBBFA0F13000FFF776
:102B8000F7BF00F065B8A0F13000FFF7FABF00F022
:102B900062B8A0F13000FFF7FABF000038B5044674
:102BA0001D46049B00F05EF8294604F1300000F059
:102BB000F9F9054B204603F10802226003F12802CF
:102BC00084332263636338BD548F010070477047BC
:102BD000090170B501F10C050544EB6873B14418A7
:102BE000A3692BB940F20E2205490648FFF744FEBF
:102BF000A3692846BDE870401B68184770BD00BF38
:102C0000498E0100A88E010070B505460E460446A7
:102C100055F8043B1B68984728463146FFF75CF897
:102C20002368E6622046BDE870405B68184738B507
:102C3000054655F8043B04461B6898472846FFF7AD
:102C4000B5F90546236820465B689847284638BD95
:102C50000430FFF791B910B50C460430FFF7D2F9F4
:102C6000204610BD2DE9FF47044600259A468846B8
:102C700091461F4B00F10C070360456085602946B3
:102C800004F11C061022384603F0A4FC2946102249
:102C9000304603F09FFC10222946C4F82CA0684659
:102CA00003F098FC69463846FFF773FE6846FDF767
:102CB000EBFE10222946684603F08CFC694630463C
:102CC000FFF767FE251D6846FDF7DEFE4A464146D2
:102CD0002846FFF733FAE16A2846FEF7FDFF28464B
:102CE00022460449FFF72EF9204604B0BDE8F087DC
:102CF000E88F0100D12B00002DE9FF4106468846F0
:102D00001746054656F8043B3C011B689847FFF7F9
:102D1000CBFED8F80C300C342C44ABB1E3680BB9C3
:102D2000FFF7DAFC41462046FFF733FE0122394621
:102D30003046FFF713F9FFF7E3FE2B6828465B6880
:102D4000984704B0BDE8F081E3680BB1FFF7DEFC03
:102D500010220021684603F03DFC69462046FFF73B
:102D600018FE6846FDF790FE0022E0E77FB50446B6
:102D7000154B102203600021684603F02BFC002253
:102D800069462046FFF7B8FF6846FDF77DFE102232
:102D90000021684603F01EFC012269462046FFF729
:102DA000ABFF6846FDF770FE14F10C0608D004F185
:102DB0002C05B54204D0103D2846FDF765FEF8E726
:102DC000204604B070BD00BFE88F010010B5044676
:102DD000FFF7CCFF2046FEF789FD204610BD00F02E
:102DE00075B8002310B5036043600A7804462F2AA3
:102DF0000DD14A785AB1481C1946206023681A78C8
:102E00002F2A06D10133236000F0A4F96060204628
:102E100010BD002AF8D0013301312360EEE70068CD
:102E20007047406808B520B100F044F9431E58428D
:102E3000584108BD10B50446FFF7F3FF10B16068B4
:102E400000B1043810BD406808B520B100F032F977
:102E5000B0FA80F0400908BD10B50446FFF7F3FF53
:102E600010B1606800B1043810BD4068003018BF70
:102E70000120704770B50446FFF760FC0646FFF777
:102E8000F7FC05463046FFF7F3FC401BA042F9D3A0
:102E900070BD000008B5044913F0EAFE14F0AEF866
:102EA000BDE80840FFF7E6BF002474494FF47A7389
:102EB0005843FFF7DFBF30B585B06D461824204674
:102EC0002946ABBE0446204605B030BD024B18680B
:102ED00000F00100704700BFF0ED00E000207047F7
:102EE00000207047036801221B6900211847002257
:102EF000036811461B691847F8B50E460368044677
:102F0000DB6C8F1835469847BD4207D0236815F80B
:102F1000011B5B6C204698470130F5D123682046A1
:102F20001B6D9847A81BF8BDF8B50E46036804460C
:102F3000DB6C8F1835469847BD4208D02368204681
:102F40009B6C9847431C02D005F8010BF4E72368FB
:102F500020461B6D9847A81BF8BD0020704770479E
:102F6000002070470020704710B50446044B0360F2
:102F70004C3340F8043F00F0BDF8204610BD00BFC0
:102F800000900100A0F10400EEE700BF10B5044678
:102F9000FFF7EAFF2046FEF7A9FC204610BDA0F18E
:102FA0000400F3E710B504460E4B002240F8043B42
:102FB00000F082F80C4B0D4923605C336360002302
:102FC0002046636100F0FFF8606118B1FEF75FFC16
:102FD000204610BD01F042FE01680548FFF75EFC87
:102FE000F6E700BFFC9001008090010054900100C2
:102FF0005790010010B50446064B03F108026433F4
:1030000002604360406901F0AFFE2046FFF7ACFF6D
:10301000204610BD7890010038B504460D4603687F
:10302000DB6C9847606901F0F3FF6169284602F0A4
:103030007BFA0546236820461B6D9847284638BD15
:103040000EB477B50446036807AD55F8046BDB6C26
:1030500098476069019501F0DBFF019A314660698C
:1030600006F0AAF90546236820461B6D98472846B6
:1030700003B0BDE8704003B070470EB477B50446A6
:10308000036807AD55F8046BDB6C984760690195E0
:1030900001F0BEFF019A3146606907F05BFD05460D
:1030A000236820461B6D9847284603B0BDE8704052
:1030B00003B07047007B704738B50B4B0446036084
:1030C00000230D464360A16002730848FDF7E4FC4D
:1030D00045B1074B1A681C6062600448FDF7DCFCD0
:1030E000204638BD6560F8E7EC900100FC0F001049
:1030F000F80F001010B504460E4B03600E48FDF7A4
:10310000CBFCA3682BB10D4A13689C420CD16368B9
:1031100013600948FDF7C0FC237B13B9201FFEF79D
:10312000E7FB204610BD13465A689442FBD1626803
:103130005A60EEE7EC900100FC0F0010F80F001051
:1031400010B50446FFF7D6FF2046FEF7CFFB20461A
:1031500010BD000070B506460C480D46FDF79CFCFE
:103160000B4B1C685CB1A06870B12A46314603F075
:1031700027FF48B9A06803F0F3FE854204D1034855
:10318000FDF78AFC204670BD6468EBE7FC0F001079
:10319000F80F0010036870B51B6901220021044676
:1031A0009847051E0DDB236802221B69002120467B
:1031B00098470646236829461B69002220469847FF
:1031C0003546284670BDFEF765BB0000F04F2DE97F
:1031D0003CD04DE20240A0E10350A0E10060A0E13C
:1031E0000170A0E13D0100EB0530A0E103008DE896
:1031F0000420A0E10400A0E10510A0E1BD4D00FA0B
:10320000B8949FE5D080D9E1000050E30030A001E0
:103210000130A013010078E300B0A01301B0A003B7
:1032200003B08BE1FFB01BE23900001A0730A0E1C8
:103230000620A0E10600A0E10710A0E1AD4D00FAD4
:10324000003050E208308DE56000001A00A0A0E3D5
:1032500000B0A0E30600A0E10710A0E10A20A0E171
:103260000B30A0E18A4D00FA000050E32A00000A6A
:103270000B30A0E10A20A0E10400A0E10510A0E1CC
:10328000834D00FA003050E20C308DE51400000A46
:103290000120A0E328349FE508109DE5000058E3D5
:1032A00010208DE514308DE530108DE518608DE52A
:1032B0001C708DE520408DE524508DE528A08DE51E
:1032C0002CB08DE50020A013F8339F155500000A9F
:1032D0000200A0E10310A0E13CD08DE2F04FBDE878
:1032E0001EFF2FE10400A0E10510A0E1830500EB23
:1032F000000050E30600000A0A20A0E10B30A0E124
:103300000400A0E10510A0E1664D00FA000050E3C2
:103310008F00001A0C009DE8ECFFFFEA03009DE817
:10332000760500EB008050E24B00000A00A0A0E30D
:1033300000B0A0E303009DE80A20A0E10B30A0E16B
:10334000534D00FA000050E3F1FFFF0A0600A0E130
:103350000710A0E1690500EB000050E3ECFFFF0A55
:103360000400A0E10510A0E1640500EB000050E3BB
:10337000E7FFFF0A0410A0E30020A0E3D030D9E16A
:10338000020053E338339FE518608DE51C708DE52E
:1033900020408DE524508DE528A08DE52CB08DE5ED
:1033A00010108DE530208DE514308DE50300000A06
:1033B00010008DE2550500EB000050E37A00001A82
:1033C000250600EB2230A0E3003080E5760000EA1D
:1033D0000020A0E30030A0E30400A0E10510A0E17C
:1033E0002B4D00FA000050E3C9FFFF0A0100A0E3E3
:1033F0000020A0E3CC329FE5C4129FE5020058E311
:1034000030B08DE518608DE51C708DE520408DE5B0
:1034100024508DE510008DE528208DE52C308DE5BC
:1034200014108DE5A9FFFF0A10008DE2370500EBAF
:10343000000050E36500000A30309DE5000053E3D2
:103440005F00000A040600EB30109DE528308DE295
:103450000C0093E8001080E59CFFFFEA0600A0E165
:103460000710A0E1250500EB000050E3AEFFFF0AC6
:103470000400A0E10510A0E1200500EB000050E3EE
:10348000A9FFFF0A0C009DE80200A0E10310A0E1E3
:10349000184D00FA000050E37200001A0320A0E368
:1034A000D080D9E118329FE5000058E330008DE567
:1034B00010208DE514308DE518608DE51C708DE5CC
:1034C00020408DE524508DE50A20A0E10B30A0E1DD
:1034D0000600A0E10710A0E14700001A0E62A0E379
:1034E000E4719FE528608DE52C708DE5ED4C00FAC8
:1034F000000050E3ADFFFF0A0020A0E3CC319FE5C0
:103500000400A0E10510A0E1AD4B00FA0040A0E1ED
:103510000150A0E1030500EB0020A0E10130A0E193
:103520000400A0E10510A0E1D94C00FA000050E32E
:103530004A00001A0E22A0E394319FE528208DE571
:103540002C308DE5D080D9E1020058E397FFFF1AB7
:103550009AFFFFEA0110A0E30C209DE5D030D9E1ED
:1035600030208DE558219FE5000053E318608DE57C
:103570001C708DE520408DE524508DE510108DE503
:1035800014208DE51500000A0000A0E344119FE51A
:10359000020053E328008DE52C108DE51100001A80
:1035A000AD0500EB2130A0E3003080E530309DE533
:1035B000000053E30200000AA70500EB30309DE550
:1035C000003080E528308DE20C0093E83FFFFFEAF1
:1035D000A10500EB2130A0E3003080E595FFFFEA74
:1035E00028A08DE52CB08DE510008DE2C70400EB1E
:1035F000000050E3ECFFFF1AE8FFFFEA0060A0E3E1
:10360000D4709FE528608DE52C708DE5A54C00FAFF
:10361000000050E3CBFFFF0A0020A0E3AC309FE5A1
:103620000400A0E10510A0E1654B00FA0040A0E114
:103630000150A0E1BB0400EB0020A0E10130A0E1BB
:103640000400A0E10510A0E1914C00FA000050E355
:103650000020A0037C309F0528208D052C308D058F
:10366000D080D9E1B7FFFFEA0120A0E3D090D9E1F3
:103670004C309FE5000059E330808DE518608DE502
:103680001C708DE520408DE524508DE510208DE5E2
:1036900014308DE5D1FFFF0A0A20A0E10B30A0E134
:1036A0000A00A0E10B10A0E1DA4B00FA020059E396
:1036B00028008DE52C108DE5B8FFFF0AC9FFFFEA51
:1036C000E0000010409101000000F03FFFFFEF47D5
:1036D0000000E03FFFFFEFC70000F0FF0000F07FB9
:1036E000F04F2DE90251C3E3026095E154D04DE261
:1036F0005700000A02C0A0E10C008DE884229FE57B
:1037000002A1C1E302005AE10070A0E10190A0E132
:103710000140A0E10060A0E1090000DA03A18AE213
:1037200001A68AE207709AE14C00001A78429FE5F0
:103730000700A0E10410A0E154D08DE2F04FBDE8F5
:103740001EFF2FE10380A0E10130A0030030A01391
:10375000000050E30030A00301300312020055E1E5
:10376000013083C3000053E3EBFFFF1A053062E032
:10377000002073E20320A2E000005CE30020A0032D
:10378000000052E3E4FFFF1A000051E3380000BAE2
:1037900008208DE500005CE30B00001AE4319FE592
:1037A000030055E14500000AFC319FE5030055E1A7
:1037B0005E00000A010158E3C902000AC8319FE512
:1037C000000059E3030058A19203000A0600A0E19B
:1037D0000410A0E1470400EB000057E30400001AC6
:1037E000C4319FE50321C9E300005AE303005211ED
:1037F0003E00000AA99FA0E108309DE5019049E242
:10380000093093E14000000A80319FE5030055E153
:10381000660000DA213683E2030055E1080300DA8E
:10382000413343E203005AE14E0000DA000058E35E
:103830004E0000DA513F8FE20C0093E80200A0E155
:103840000310A0E1DE4A00FA0070A0E10140A0E10F
:10385000B6FFFFEA0670A0E14C419FE5B3FFFFEA27
:103860002C019FE52B0400EB0070A0E10140A0E1DA
:10387000AEFFFFEA1C319FE5030055E1360000CAA8
:10388000353643E2030055E1C0FFFFDA453AA0E1D7
:10389000FF3F43E2033043E2140053E3520300DAF4
:1038A000343063E23C13A0E111035CE1011001023A
:1038B0000230610208308D05B4FFFF1AB4FFFFEA41
:1038C00003318AE2013683E2077093E196FFFF0A33
:1038D000C4309FE503005AE1B10200DA000058E36A
:1038E000220000BA18009DE80370A0E18FFFFFEAF4
:1038F000000058E3240300BA000059E3800200BA34
:103900000070A0E10140A0E188FFFFEA0620A0E1ED
:103910000600A0E10430A0E10410A0E1CE4900FAC5
:103920000020A0E10130A0E13A4B00FAF3FFFFEAEA
:10393000000058E30670A0A17CFFFFAA0430A0E1BC
:103940000620A0E10000A0E35C109FE5314B00FAE7
:103950000070A0E10140A0E174FFFFEA0230A0E3A3
:1039600008308DE58AFFFFEA000058E3B0FFFFBA98
:103970000070A0E30740A0E16CFFFFEA0000A0E1B7
:103980009C7500883CE4377E0000F07F0000E03F3B
:103990000000E041A0910100FFFF3F43FFFFEF3F28
:1039A000000040438E98030079B60B000000F03F02
:1039B00001065AE300C0A0A3040000AA0020A0E36F
:1039C00028301FE57E4A00FA34C0E0E301A0A0E100
:1039D0004A3AA0E1FF24CAE33CE01FE5FF3F43E28F
:1039E0000F26C2E3033043E2FF5582E30CC083E0BD
:1039F0000E0052E134C08DE5035685E36E0200DA15
:103A000060301FE5030052E1080300DA0030A0E354
:103A10000040A0E328308DE52C408DE540308DE559
:103A200044408DE50030A0E30060A0E388401FE53E
:103A300001208CE220308DE524408DE534208DE599
:103A4000015645E220308DE20C0093E80510A0E11C
:103A500000A0A0E1804900FA05B0A0E120308DE28D
:103A60000C0093E80070A0E10180A0E10A00A0E151
:103A70000510A0E138A08DE53CB08DE5774900FA4E
:103A80000020A0E10130A0E10000A0E3E8101FE564
:103A9000E04A00FA0030A0E10140A0E10020A0E1EE
:103AA00048308DE54C408DE50700A0E10130A0E1F4
:103AB0000810A0E1424A00FA0140A0E10030A0E174
:103AC00000C0A0E30010A0E10420A0E10000A0E3FA
:103AD00018308DE51C408DE5C530A0E110108DE556
:103AE00014208DE5023283E310C08DE510B08DE225
:103AF000000C9BE8023783E2061083E00040A0E15F
:103B00000150A0E10020A0E10130A0E10A00A0E105
:103B10000B10A0E12A4A00FA0020A0E10130A0E148
:103B20000700A0E10810A0E14B4900FA20308DE227
:103B30000C0093E80060A0E10170A0E10400A0E1A6
:103B40000510A0E1444900FA0020A0E10130A0E105
:103B500038108DE2030091E83F4900FA0A20A0E105
:103B60000B30A0E1164A00FA0020A0E10130A0E1EC
:103B70000600A0E10710A0E1374900FA48308DE2C5
:103B80000C0093E80E4A00FA18508DE2300095E8D8
:103B900020008DE524108DE50420A0E10530A0E192
:103BA0000400A0E10510A0E1054A00FA0060A0E1D0
:103BB0000170A0E1F93F8FE20C0093E8004A00FA9F
:103BC0003E3E8FE20C0093E8244900FA0620A0E173
:103BD0000730A0E1FA4900FA3D3E8FE20C0093E87D
:103BE0001E4900FA0620A0E10730A0E1F44900FADE
:103BF0000F3D8FE20C0093E8184900FA0620A0E17F
:103C00000730A0E1EE4900FA3B3E8FE20C0093E85A
:103C1000124900FA0620A0E10730A0E1E84900FAC5
:103C20003A3E8FE20C0093E80C4900FA0620A0E12E
:103C30000040A0E10150A0E10730A0E10600A0E1B2
:103C40000710A0E1DE4900FA0020A0E10130A0E168
:103C50000400A0E10510A0E1D94900FA0040A0E16C
:103C60000150A0E10A20A0E10B30A0E118108DE284
:103C7000030091E8F94800FA20308DE20C0093E847
:103C8000CF4900FA0420A0E10530A0E1F34800FA92
:103C90000A20A0E10040A0E10150A0E10B30A0E12A
:103CA0000A00A0E10B10A0E1C54900FA0020A0E342
:103CB00030339FE538008DE53C108DE5E74800FA8C
:103CC0000420A0E10530A0E1E44800FA10009DE5E1
:103CD0000170A0E10060A0E10730A0E10620A0E1B2
:103CE0000A00A0E10B10A0E1B54900FA0020A0E312
:103CF00000A0A0E101B0A0E1E8329FE50600A0E14C
:103D00000710A0E1D44800FA38308DE20C0093E8A7
:103D1000D14800FA0020A0E10130A0E10400A0E1B8
:103D20000510A0E1CC4800FA18308DE20C0093E8B1
:103D3000A34900FA0620A0E10040A0E10150A0E163
:103D40000730A0E120108DE2030091E89C4900FAC1
:103D50000020A0E10130A0E10400A0E10510A0E1F5
:103D6000BE4800FA0040A0E10150A0E10020A0E11F
:103D70000130A0E10A00A0E10B10A0E1B74800FA71
:103D800010009DE50E22A0E35C329FE50060A0E1FB
:103D90000170A0E18A4900FA0A20A0E118008DE52F
:103DA0001C108DE50B30A0E10600A0E10710A0E19A
:103DB000A94800FA0020A0E10130A0E10400A0E140
:103DC0000510A0E1A44800FA023C8FE20C0093E841
:103DD0007B4900FA7F3F8FE20C0093E80040A0E1AE
:103DE0000150A0E10600A0E10710A0E1744900FA2B
:103DF0000020A0E10130A0E10400A0E10510A0E155
:103E0000964800FA40308DE20C0093E8934800FA9F
:103E100000A0A0E134009DE501B0A0E1354900FA21
:103E20000060A0E10170A0E10A20A0E10B30A0E158
:103E300018108DE2030091E8884800FA28308DE2DE
:103E40000C0093E8854800FA0620A0E10730A0E1C5
:103E5000824800FA10009DE50620A0E10730A0E1AD
:103E60000040A0E10150A0E17B4800FA28308DE23B
:103E70000C0093E8784800FA18308DE20C0093E8C3
:103E8000754800FA0020A0E10130A0E10A00A0E19D
:103E90000B10A0E1704800FA10008DE514108DE5BC
:103EA0000020A0E300A0A0E308309DE5013043E23C
:103EB000093093E134319F1534319F0508208DE599
:103EC0000C308DE50C009DE80200A0E10310A0E19C
:103ED0000A20A0E103B0A0E15F4800FA0420A0E1BD
:103EE0000530A0E1364900FA0C009DE80080A0E111
:103EF0000190A0E110108DE2030091E8304900FA32
:103F00000020A0E10130A0E10800A0E10910A0E13B
:103F1000524800FA0080A0E10190A0E10A20A0E14F
:103F20000B30A0E10400A0E10510A0E100038DE842
:103F3000234900FA0130A0E10020A0E10060A0E1E7
:103F40000170A0E10800A0E10910A0E1434800FAD7
:103F5000A0309FE5030051E10090A0E10180A0E1C5
:103F60000140A0E1F20000DABF3481E2073683E2CB
:103F7000003093E18A01001A60308FE20C0093E870
:103F800003009DE8354800FA0620A0E100A0A0E16A
:103F900001B0A0E10730A0E1190000EA0000A0E1B3
:103FA000EF4E454A287ECA3F65DBC9934A86CD3F1E
:103FB00001411DA96074D13F4D268F515555D53F04
:103FC000FFAB6FDBB66DDB3F033333333333E33F9C
:103FD000FD033ADC09C7EE3FF5015B14E02F3EBE5E
:103FE000FE822B654715973C0000084009C7EE3F4D
:103FF0000000F03F0000F0BFFFFF8F40FFFF0F0009
:10400000432EE63F0900A0E10810A0E1124800FAA3
:104010000020A0E10130A0E10A00A0E10B10A0E126
:104020002F4A00FA000050E30850A0015C01001A7A
:104030000126A0E30000A0E3453AA0E1FF3F43E2F0
:10404000023043E2523384E08320A0E1A22AA0E1BF
:104050005CC01FE5FFA4C3E3FF2F42E2032042E25E
:104060000FA6CAE35C12C3E101A68AE3143062E240
:10407000000054E35AA3A0E10020A0E10130A0E138
:104080000600A0E10710A0E100A06AB2F24700FA22
:104090000020A0E10130A0E10060A0E10170A0E1FA
:1040A00003009DE8ED4700FA0ABAA0E10040A0E352
:1040B0000020A0E3BC301FE50400A0E10150A0E116
:1040C000BF4800FA0620A0E10080A0E10190A0E135
:1040D0000730A0E10400A0E10510A0E1DE4700FAEE
:1040E0000020A0E10130A0E103009DE8DA4700FADA
:1040F000BE3F8FE20C0093E8B14800FABD3F8FE26B
:104100000C0093E80060A0E10170A0E10400A0E1D0
:104110000510A0E1AA4800FA0020A0E10130A0E1CA
:104120000600A0E10710A0E1CC4700FA0040A0E1A2
:104130000150A0E10020A0E10130A0E10800A0E1D1
:104140000910A0E1C54700FA0820A0E10930A0E16C
:104150000060A0E10170A0E1BF4700FA0020A0E1EB
:104160000130A0E10400A0E10510A0E1BA4700FA87
:104170000620A0E10080A0E10190A0E10730A0E1CD
:104180000600A0E10710A0E18D4800FA0040A0E180
:104190000150A0E1993F8FE20C0093E8884800FAB3
:1041A000263E8FE20C0093E8AB4700FA0420A0E122
:1041B0000530A0E1824800FA253E8FE20C0093E82A
:1041C000A64700FA0420A0E10530A0E17C4800FAEF
:1041D000093D8FE20C0093E89F4700FA0420A0E11C
:1041E0000530A0E1764800FA233E8FE20C0093E808
:1041F0009A4700FA0420A0E10530A0E1704800FAD7
:104200000020A0E10130A0E10600A0E10710A0E13C
:10421000914700FA0040A0E10150A0E10020A0E198
:104220000130A0E10600A0E10710A0E1644800FA17
:104230000020A0E303008DE80131A0E30400A0E129
:104240000510A0E1844700FA0020A0E10130A0E1C0
:1042500003009DE8EF4800FA0820A0E10040A0E13B
:104260000150A0E10930A0E10600A0E10710A0E1A3
:10427000534800FA0820A0E10930A0E1774700FA8E
:104280000020A0E10130A0E10400A0E10510A0E1C0
:10429000714700FA0620A0E10730A0E16E4700FA5E
:1042A0000130A0E10020A0E18C119FE50000A0E317
:1042B000694700FA0BB081E001065BE30130A0E141
:1042C0000B30A0A10310A0A1EB0000BA08308DE2D2
:1042D0000C0093E83A4800FA0070A0E10140A0E128
:1042E00012FDFFEA0430A0E10410A0E10620A0E1E5
:1042F0000600A0E1324800FA0070A0E10140A0E110
:104300000AFDFFEA03318AE208209DE5013683E2D7
:10431000023093E1D300000A08309DE5010053E329
:104320000060A001024181020670A00173FDFF1A26
:10433000FEFCFFEAF4309FE50251C1E3030055E1C2
:10434000A20000DAE8309FE5033081E0003093E11D
:104350000800001A0620A0E10730A0E13E4700FA5D
:104360000020A0E10130A0E103009DE8524900FADD
:10437000000050E32DFFFF0AA8308FE20C0093E805
:1043800008108DE2030091E80D4800FA94308FE2A6
:104390000C0093E80A4800FA0070A0E10140A0E197
:1043A000E2FCFFEA000058E370FDFFAA18009DE858
:1043B0000370A0E1024184E2DCFCFFEA0030A0E3EC
:1043C0000040A0E328308DE52C408DE540308DE5A0
:1043D00044408DE50030A0E35C409FE50060A0E331
:1043E00020308DE524408DE595FDFFEA0000A0E139
:1043F000EF39FAFE422EE63F396CA80C615C20BE14
:10440000D0A4BE726937663EF16BD2C541BDBB3EDA
:104410002CDE25AF6A56113F93BDBE166CC1663FB8
:104420003E5555555555C53F59F3F8C21F6EA50168
:10443000FFCB904000346F3FFEFFEF3F0000F03FA6
:104440004715F73F14301FE503005AE145FDFFDA39
:104450001C301FE503005AE1F3FCFFCA0020A0E373
:104460002C301FE5FC4600FA0622A0E334301FE59D
:104470000040A0E10150A0E1D14700FA813F8FE266
:104480000C0093E800A0A0E101B0A0E10400A0E1CD
:104490000510A0E1CA4700FA0020A0E310008DE556
:1044A00014108DE504329FE50400A0E10510A0E1A1
:1044B000C34700FA0020A0E10130A0E1731F8FE2A2
:1044C000030091E8E44600FA0420A0E10530A0E1F1
:1044D000BB4700FA0020A0E10130A0E10000A0E30A
:1044E000CC119FE5DC4600FA0420A0E10060A0E1C9
:1044F0000170A0E10530A0E10400A0E10510A0E1F9
:10450000AF4700FA0020A0E10130A0E10600A0E1E1
:104510000710A0E1AA4700FA5E3F8FE20C0093E883
:10452000A74700FA0020A0E10130A0E110108DE2C1
:10453000030091E8C84600FA0020A0E10130A0E1A4
:104540000060A0E10170A0E10A00A0E10B10A0E171
:10455000C24600FA0000A0E30A20A0E10B30A0E16F
:104560000040A0E10150A0E1BB4600FA0020A0E11C
:104570000130A0E10600A0E10710A0E1B64600FA74
:1045800010008DE514108DE544FEFFEA0020A0E147
:104590000130A0E10000A0E318119FE51D4800FADA
:1045A000D4FCFFEAF4308FE20C0093E808108DE2AF
:1045B000030091E8824700FAE0308FE20C0093E8B4
:1045C0007F4700FA0070A0E10140A0E157FCFFEA3C
:1045D000DC309FE5030055E10150A0D10AB0A0D125
:1045E0000510A0D1B0FEFFDA90FEFFEA00005CE308
:1045F0001F00001A143063E25523A0E1120355E1B5
:10460000012002020230620208308D050030A01342
:1046100008308D1560FCFFEA0410A0E10600A0E15F
:10462000270000EB0070A0E10140A0E13FFCFFEAA1
:104630000131A0E380409FE528308DE52C408DE5D9
:104640000030A0E374409FE520308DE524408DE5E7
:1046500050408FE2180094E80167A0E340308DE5F8
:1046600044408DE5F6FCFFEA0020A0E10130A0E126
:10467000A9FCFFEA08208DE553FCFFEA0A20A0E12F
:104680000E0100EB10FFFFEA44DF5DF80BAE543E75
:10469000555555555555D53FFE822B654715F73F66
:1046A0009C7500883CE4377E06D0CF43EBFD4C3E42
:1046B0000000D03F0000E03F0000F03F03B8E23FC1
:1046C0000000F83F28229FE5F0472DE902E0A0E135
:1046D000012002E00E0052E10140A0E10050A0E103
:1046E0007000000A000051E30130A0E10020A0E1C9
:1046F000520000DA416AB0E15E00000A0050A0E317
:104700001600A0E305C0A0E10216A0E3FF34C3E356
:104710000F36C3E3010016E3013683E38330A001C3
:10472000A23F8300FF6F46E28220A001A2EF83E058
:10473000036046E2C660A0E103308EE08220A0E183
:1047400001E08CE003005EE1A24FA0E103306ED0F7
:1047500001C08ED0015085D0010050E2833084E04A
:104760008220A0E1A110A0E1F4FFFF1A2040A0E305
:104770000070A0E10211A0E30C0000EA0C80A0E1AF
:1047800003306CE008C0A0E102005EE1013043822A
:1047900002206EE0010080E0A2EF83E0014054E2DD
:1047A000A110A0E103308EE08220A0E11000000AF9
:1047B0000C0053E101E087E0060000CA0180A0037D
:1047C0000080A01302005EE10080A08301800892B7
:1047D000000058E3EFFFFF0A00005EE301708EE087
:1047E000E5FFFFAA000057E301808CA2E3FFFFAAC8
:1047F000E1FFFFEA023093E10900001AA000A0E106
:10480000C530A0E1FF3583E2023683E2069A83E0F9
:104810000910A0E1010015E302018013F047BDE893
:104820001EFF2FE1010070E3015085020400A0018A
:10483000F2FFFF0A013000E2030080E0EEFFFFEA32
:1048400000C0A0E102E1C1E30CC09EE1F2FFFF0A5B
:10485000000054E30460A0011E00001AA235A0E18C
:10486000000053E3156046E2822AA0E1FAFFFF0A46
:10487000010613E31300001A0010A0E3000000EA91
:104880000010A0E18330A0E1010613E3010081E202
:10489000FAFFFF0A20C060E2323C83E1066061E07B
:1048A0001220A0E194FFFFEA0020A0E10130A0E186
:1048B000C34600FA0520A0E10430A0E1E74500FA74
:1048C000F047BDE81EFF2FE120C0A0E30010E0E3A9
:1048D0000000A0E3EFFFFFEA0520A0E10430A0E123
:1048E000DD4500FA0020A0E10130A0E1494700FACF
:1048F000C9FFFFEA0000F07F0211C1E31EFF2FE1B4
:10490000021181E3010681E2A00FA0E11EFF2FE169
:104910000000A0E31EFF2FE10000A0E300109FE5D0
:104920001EFF2FE10000F87FF0402DE981E0A0E1BB
:10493000AEEAA0E1FFCF4EE203C04CE213005CE31D
:104940000CD04DE20020A0E10130A0E10150A0E137
:10495000A14FA0E10060A0E1200000CA00005CE3DC
:10496000330000BA48119FE5511CA0E1010003E0AB
:10497000020090E11D00000AA110A0E1013003E057
:10498000026093E10500000A13005CE30137A0E335
:104990000261A0030060A0130110C5E1535C81E136
:1049A00010319FE5844183E00510A0E1300094E8D8
:1049B0000600A0E10420A0E10530A0E1A74500FA2F
:1049C00003008DE80420A0E10530A0E103009DE88C
:1049D000A14500FA0CD08DE2F040BDE81EFF2FE1AA
:1049E00033005CE3060000DA010B5CE32E00000AF2
:1049F0000200A0E10310A0E10CD08DE2F040BDE880
:104A00001EFF2FE10010E0E341EE4EE203E04EE234
:104A1000311EA0E1010010E1F4FFFF0AA110A0E1A6
:104A2000010010E10131A0130110C011536E81117A
:104A3000DAFFFFEA0211C1E3001091E10310A0E1E7
:104A4000ECFFFF0AFF34C3E30F36C3E3007083E1DA
:104A5000003067E2077083E158309FE52776A0E1D8
:104A6000027707E2843183E0A558A0E1851887E149
:104A7000C00093E80620A0E10730A0E1774500FAE6
:104A800003008DE80620A0E10730A0E103009DE8C7
:104A9000714500FA0020A0E10211C1E3843F81E1E9
:104AA0000200A0E10310A0E1D2FFFFEA6B4500FA8B
:104AB000D0FFFFEAFFFF0F00489101000000000057
:104AC0008130A0E1A33AB0E170402DE901C0A0E13E
:104AD0000040A0E10150A0E10260A0E11B00001A2B
:104AE00002C1C1E300309CE11600000A34319FE5A9
:104AF0000020A0E3324600FA2C319FE5030056E186
:104B00000040A0E10150A0E101C0A0E1210000BAF5
:104B10008130A0E1A33AA0E1363043E20C219FE5C9
:104B2000033086E0020053E11F0000CA000053E397
:104B30000E0000DA7FC4CCE30FC6CCE3035A8CE14D
:104B40000400A0E10510A0E17040BDE81EFF2FE1C8
:104B5000DC209FE5020053E1EFFFFF1A0020A0E1F7
:104B60000130A0E13D4500FA7040BDE81EFF2FE195
:104B7000350073E3160000AAB8309FE5030056E144
:104B80000420A0E10530A0E11B0000CA84108FE2E0
:104B9000030091E8290000EB78308FE20C0093E8E5
:104BA000074600FA7040BDE81EFF2FE10420A0E197
:104BB0000530A0E164108FE2030091E81F0000EBD4
:104BC00058308FE20C0093E8FD4500FA7040BDE8D4
:104BD0001EFF2FE17FC4CCE30FC6CCE3363083E267
:104BE000035A8CE10400A0E10510A0E10020A0E33D
:104BF00044309FE5F24500FAD2FFFFEA1C108FE235
:104C0000030091E80D0000EB10308FE20C0093E8F8
:104C1000EB4500FACBFFFFEA59F3F8C21F6EA5017E
:104C20009C7500883CE4377E00005043B03CFFFF99
:104C3000FE070000FF07000050C300000000903C8A
:104C4000023103E20221C1E3031082E11EFF2FE1E2
:104C5000000050E3000060B21EFF2FE104309FE52A
:104C6000000093E51EFF2FE1E8000010000051E373
:104C70003A00000A000050E370402DE90060A0E116
:104C80000140A0E10200000A383090E5000053E343
:104C90002C00000AFC30D4E1000053E30000A00324
:104CA0000100001A7040BDE81EFF2FE10410A0E1D2
:104CB0000600A0E1300000EB2C3094E5000053E347
:104CC0000050A0E10500000A1C1094E50600A0E1D8
:104CD0000FE0A0E113FF2FE1000050E30050E0B32C
:104CE000BC30D4E1800013E31800001A301094E5C2
:104CF000000051E30500000A403084E2030051E166
:104D00000600A0110D4E001B0030A0E3303084E5FA
:104D1000441094E5000051E30300000A0600A0E1FE
:104D20008D4900FA0030A0E3443084E5830100EBB4
:104D30000030A0E3BC30C4E1810100EB0500A0E13C
:104D40007040BDE81EFF2FE1780100EBD0FFFFEAC5
:104D5000101094E50600A0E17F4900FAE2FFFFEAA7
:104D60000000A0E31EFF2FE108309FE50010A0E146
:104D7000000093E5BCFFFFEAE8000010FC30D1E141
:104D80000328A0E1020712E3F0412DE90150A0E160
:104D90000070A0E13400001A042091E5023B83E397
:104DA000000052E3BC30C1E1500000DA284095E534
:104DB000000054E35000000A0020A0E30338A0E103
:104DC000010203E22088B0E1006097E52338A0E10A
:104DD000002087E55F00000A502095E5040013E3FA
:104DE0000500000A301095E5043095E5000051E318
:104DF000022063E03C309515022063100030A0E3F0
:104E00001C1095E50700A0E10FE0A0E114FF2FE1E1
:104E1000010070E33B00000A0010A0E3FC30D5E184
:104E2000102095E5023BC3E3010A13E3BC30C5E162
:104E3000041085E5002085E54400001A301095E552
:104E4000000051E3006087E52B00000A403085E256
:104E5000030051E10700A011B84D001B0000A0E3C2
:104E6000300085E5F041BDE81EFF2FE1106091E5BF
:104E7000000056E32000000A2228A0E1030012E30C
:104E80000030A013004091E514309105044066E025
:104E9000000054E3006081E5083081E5030000CAAA
:104EA000150000EA000054E3006086E0120000DA1A
:104EB0000430A0E10620A0E11C1095E50700A0E168
:104EC00024C095E50FE0A0E11CFF2FE1000050E3B6
:104ED000044060E0F2FFFFCA0000E0E3BC30D5E12F
:104EE000403083E3BC30C5E1F041BDE81EFF2FE157
:104EF0003C2091E5000052E3ABFFFFCA0000A0E3B5
:104F0000F041BDE81EFF2FE1001097E51D0051E3C1
:104F1000F0FFFF8A9C309FE53331A0E1013003E2CE
:104F2000013033E2EBFFFF1AFC20D5E110C095E51C
:104F3000022BC2E3010A12E3043085E5BC20C5E17F
:104F400000C085E5BCFFFF0A000051E3BAFFFF1A6D
:104F5000500085E5B8FFFFEA0820A0E10130A0E39A
:104F60001C1095E50700A0E10FE0A0E114FF2FE180
:104F7000010070E30020A0E10200000ABC30D5E18E
:104F8000284095E594FFFFEA003097E5000053E3E1
:104F9000F9FFFF0A160053E31D005313BC30D5116F
:104FA00040308313006087050800A0010200A011B3
:104FB000BC30C511CBFFFFEA0100402010402DE9B5
:104FC000004050E208D04DE20200000A383094E57B
:104FD000000053E30900000AFC00D1E1000050E3A7
:104FE0000200001A08D08DE21040BDE81EFF2FE13C
:104FF0000400A0E108D08DE21040BDE85EFFFFEAAA
:1050000004108DE5C90000EB04109DE5F1FFFFEAF7
:10501000001050E220309F1500009315E6FFFF1AA4
:1050200010402DE914309FE514109FE5000093E532
:10503000E90300EB1040BDE81EFF2FE1E80000107F
:1050400058910100BC4F00000000A0E31EFF2FE1BB
:1050500010402DE908109FE5DF0300EB1040BDE88C
:105060001EFF2FE16C4C0000F04F2DE90070A0E115
:105070000040A0E30430A0E30310A0E3045097E550
:105080002C019FE5BB2F87E23C0087E5E41287E512
:10509000E82287E5E04287E50CD04DE2004085E557
:1050A000044085E5084085E5644085E5BE40C5E1EE
:1050B000104085E5144085E5184085E5BC30C5E124
:1050C0000410A0E15C0085E20820A0E3400500EBAD
:1050D0000130A0E30920A0E3086097E5D4B09FE584
:1050E000D4A09FE5D4909FE5D4809FE520B085E5CE
:1050F00024A085E5289085E52C8085E51C5085E574
:105100000410A0E1BE30C6E1BC20C6E15C0086E22E
:10511000004086E5044086E5084086E5644086E573
:10512000104086E5144086E5184086E50820A0E397
:1051300004308DE5260500EB1200A0E30220A0E379
:105140000C5097E50410A0E11C6086E520B086E5D0
:1051500024A086E5289086E52C8086E5BC00C5E184
:10516000BE20C5E1004085E5044085E5084085E5B1
:10517000644085E5104085E5144085E5184085E5E7
:105180005C0085E20820A0E3110500EB04309DE5FA
:105190001C5085E520B085E524A085E5289085E5AF
:1051A0002C8085E5383087E50CD08DE2F04FBDE8E6
:1051B0001EFF2FE150500000646C0000A06C000046
:1051C000F86C0000286D00000000A0E31EFF2FE136
:1051D000013041E270402DE9834083E0043183E0F7
:1051E0008341A0E10160A0E1741084E2584800FA14
:1051F000005050E20600000A0010A0E30C0085E217
:10520000046085E5682084E2001085E5080085E5F6
:10521000EF0400EB0500A0E17040BDE81EFF2FE1A8
:10522000E0309FE570402DE9005093E5383095E57A
:10523000000053E30060A0E10500A00189FFFF0B1F
:105240002E5E85E2043095E5013053E2084095E595
:105250000400005A1D0000EA013043E2010073E33C
:10526000684084E21900000AFC20D4E1000052E307
:10527000F8FFFF1A0050A0E30020E0E30130A0E3B4
:10528000BE20C4E1BC30C4E1645084E5005084E534
:10529000085084E5045084E5105084E5145084E5FA
:1052A000185084E50510A0E10820A0E35C0084E22A
:1052B000C70400EB0400A0E1305084E5345084E5DD
:1052C000445084E5485084E57040BDE81EFF2FE15E
:1052D000003095E5000053E30350A011D8FFFF1AFA
:1052E0000410A0E30600A0E1B8FFFFEB000050E3CC
:1052F000000085E50050A011D1FFFF1A0C30A0E39B
:10530000003086E5EFFFFFEA5891010010402DE9DB
:1053100010309FE510109FE5000093E52E0300EB91
:105320001040BDE81EFF2FE1589101006C4C0000B9
:10533000383090E5000053E31EFF2F1149FFFFEACC
:105340001EFF2FE11EFF2FE11EFF2FE11EFF2FE1A9
:1053500010402DE910309FE510109FE5000093E507
:10536000FC0200EB1040BDE81EFF2FE1E80000103A
:10537000C851000010402DE910309FE510109FE546
:10538000000093E5F30200EB1040BDE81EFF2FE1A3
:10539000E80000104850000070402DE930509FE5B3
:1053A00030409FE5054064E04441B0E10500000A5B
:1053B000014044E2043035E50FE0A0E113FF2FE1A6
:1053C000000054E3F9FFFF1A584C00FA7040BDE8A2
:1053D0001EFF2FE1BC090010B80900100230A0E147
:1053E000F0402DE90CD04DE20170A0E104208DE2E7
:1053F0000310A0E10050A0E1341D00EB006050E27A
:105400001B00000A0500A0E184FFFFEB004050E212
:105410001700000A0710A0E1A0309FE504209DE5D9
:105420000500A0E1A70400EB000050E31D0000BA56
:105430008CC09FE58C109FE58C209FE58C309FE50C
:10544000010C16E3BE00C4E1BC60C4E11C4084E56D
:1054500020C084E5241084E5282084E52C3084E5F0
:105460000400A0010600001A0CD08DE2F040BDE857
:105470001EFF2FE10000A0E30CD08DE2F040BDE85C
:105480001EFF2FE10500A0E10230A0E30020A0E311
:105490000410A0E1350000EB0400A0E10CD08DE287
:1054A000F040BDE81EFF2FE10050A0E3A3FFFFEB9B
:1054B000BC50C4E1A2FFFFEB0500A0E1E9FFFFEA59
:1054C000B6010000646C0000A06C0000F86C0000E5
:1054D000286D00000C309FE50120A0E10010A0E144
:1054E000000093E5BCFFFFEAE800001010402DE942
:1054F000004050E208D04DE20500000A383094E543
:10550000000053E30200001A06008DE887FFFFEB5E
:1055100006009DE80400A0E17C0400EB08D08DE2C9
:105520001040BDE81EFF2FE13C309FE570402DE9A3
:10553000004093E5000054E30050A0E10160A0E1C9
:105540000300000A383094E5000053E30400A00192
:1055500076FFFF0B0620A0E10510A0E10400A0E10A
:105560006A0400EB7040BDE81EFF2FE1E800001068
:1055700010402DE90B0000EB1040BDE81EFF2FE1AD
:1055800010402DE918C09FE50230A0E10120A0E104
:105590000010A0E100009CE5020000EB1040BDE817
:1055A0001EFF2FE1E8000010F04F2DE9005050E2FF
:1055B00044D04DE20140A0E10280A0E10360A0E1FF
:1055C0000200000A383095E5000053E36100000A4C
:1055D000BC30D4E1423F03E2420F53E36200000AD1
:1055E000289094E5000059E31D30A0030070E0030B
:1055F000003085050800000A010056E34100000A5A
:10560000020056E30800000A000056E31630A0131B
:105610000070E013003085150300000A0700A0E1C8
:1056200044D08DE2F04FBDE81EFF2FE100A0A0E3C3
:105630000A70A0E1103094E5000053E3E500000A91
:10564000FC00D4E1DC239FE50038A0E1032002E068
:10565000000052E32338A0E10600001A010B13E317
:105660004A00001AC0339FE5030059E1CB00000A4D
:10567000020B80E3BC00C4E10410A0E10500A0E13E
:105680004DFEFFEB007050E2C200001A0630A0E1B0
:105690000820A0E11C1094E50500A0E10FE0A0E1C6
:1056A00019FF2FE1010070E3BA00000A301094E501
:1056B000000051E30500000A403084E2030051E19C
:1056C0000500A0119D4B001B0030A0E3303084E5A5
:1056D0000010A0E3BC30D4E1102094E5823EC3E387
:1056E000002084E5BC30C4E1041084E55C0084E261
:1056F0000820A0E3B60300EB0700A0E144D08DE250
:10570000F04FBDE81EFF2FE10410A0E10500A0E16D
:1057100029FEFFEBBC30D4E1012A13E29400000A19
:10572000507094E5040013E34600001A080013E3E8
:105730008D00000A002094E5103094E5000052E34B
:105740000220631002708710078088E001A0A0E3A8
:105750000060A0E3B7FFFFEAF4FEFFEBBC30D4E14A
:10576000423F03E2420F53E39CFFFF1A0410A0E103
:105770000500A0E110FEFFEB98FFFFEA012BA0E37C
:10578000BC30D4E1023083E1BC30C4E14C2084E57C
:10579000000056E308B0A0013F00001A00005AE3E1
:1057A0003100000A301094E5000051E304E094E574
:1057B0009500000A3CA094E5382094E510C094E5DB
:1057C0000E7087E002206CE0077062E002308AE031
:1057D00007005BE1390000BA032087E00B0052E1CB
:1057E0003600009A0B7067E007C08CE0033067E07A
:1057F000000051E300C084E5043084E50500000AA0
:10580000403084E2030051E10500A0114B4B001B26
:105810000030A0E3303084E5BC30D4E12030C3E375
:10582000BC30C4E10070A0E35C0084E20820A0E387
:105830000010A0E3660300EB0700A0E144D08DE276
:10584000F04FBDE81EFF2FE1302094E5043094E5D1
:10585000000052E3077063E04300000A3C2094E537
:10586000103094E5077062E0B6FFFFEABC30D4E187
:10587000010A13E35B00000A500094E5301094E540
:1058800004E094E5000051E300706EE05E00000A61
:105890003CA094E507706AE0C6FFFFEA04208DE2B1
:1058A000FE10D4E10500A0E1670000EB000050E32A
:1058B00070FFFF1A14B09DE50BB088E0B6FFFFEA59
:1058C0004C2094E5002062E20B7002E00720A0E18A
:1058D0000030A0E31C1094E50500A0E10FE0A0E17A
:1058E00019FF2FE1010070E362FFFF0A0020A0E32F
:1058F000301094E5103094E5020051E1042084E575
:10590000003084E50500000A403084E2030051E1E4
:105910000500A011094B001B0030A0E3303084E5E6
:10592000BC30D4E107B05BE02030C3E3BC30C4E15D
:10593000BBFFFF0A0410A0E10500A0E1C10300EBDA
:10594000000050E34BFFFF1A043094E503005BE1D5
:1059500048FFFF8A002094E503306BE00BB082E043
:10596000043084E500B084E5ADFFFFEA103094E533
:1059700074FFFFEA0630A0E11C1094E50500A0E1E9
:105980000FE0A0E119FF2FE1010070E30070A0E13A
:10599000BC30D41162FFFF1A0070E0E31EFFFFEA83
:1059A000FE10D4E1000051E330FFFFBA04208DE285
:1059B0000500A0E1240000EB000050E30300001A02
:1059C00008309DE50F3A03E2020953E36AFFFF0A3C
:1059D000FC00D4E125FFFFEA0410A0E10500A0E1EE
:1059E000E50100EB15FFFFEA0A20A0E10130A0E38A
:1059F0001C1094E50500A0E10FE0A0E119FF2FE1E4
:105A0000010070E39CFFFF1A1AFFFFEA003094E5E3
:105A100010C094E503306CE0077063E00010A0E371
:105A200003308EE069FFFFEA00001A08F86C0000FE
:105A300010C09FE50230A0E10120A0E10010A0E12C
:105A400000009CE5D7FEFFEAE800001001C0A0E1DD
:105A50000030A0E370402DE92C409FE50050A0E10C
:105A60000210A0E10C00A0E1003084E551EFFFFA44
:105A7000010070E30200001A003094E5000053E3D7
:105A8000003085157040BDE81EFF2FE1401000106A
:105A9000083092E5000053E38300000AF04F2DE93F
:105AA000FC30D1E10338A0E10CD04DE2020713E352
:105AB0000140A0E100008DE50260A0E12388A0E1A3
:105AC0002000000A102091E5000052E31D00000AAA
:105AD000029018E2005096E52500000A0080A0E33D
:105AE0000870A0E168949FE5000057E36A00000A8F
:105AF000090057E10730A0310930A0210820A0E1BA
:105B00001C1094E500009DE524C094E50FE0A0E1A1
:105B10001CFF2FE1000050E36A0000DA083096E530
:105B2000033060E0000053E3008088E0077060E02D
:105B3000083086E5EBFFFF1A0000A0E30CD08DE2F1
:105B4000F04FBDE81EFF2FE10410A0E100009DE52D
:105B5000C71400EB000050E3F600001AFC30D4E15B
:105B60000338A0E12388A0E1029018E2005096E5F6
:105B7000D9FFFF1A018018E25900001A0870A0E14D
:105B8000000057E34000000A020413E3089094E584
:105B90002338A0E18400000A090057E109A0A0E130
:105BA0009700003A120D13E39700000A101094E5D5
:105BB00000A094E5149094E50AA061E0899089E042
:105BC00001008AE2A99F89E0C990A0E1070080E076
:105BD000090050E10920A0E10090A0810920A081E6
:105BE000010B13E3C600000A0210A0E100009DE5CE
:105BF000D74500FA00B050E2D000000A0A20A0E128
:105C0000101094E5EB0100EBBC30D4E1123DC3E38E
:105C1000803083E3BC30C4E10A008BE009A06AE075
:105C200008A084E5149084E507A0A0E10790A0E116
:105C300010B084E5000084E50A20A0E10810A0E18E
:105C4000180200EB080094E5009069E00700A0E16D
:105C5000002094E50A2082E0089084E5002084E595
:105C6000083096E5033060E0000053E3008088E0F0
:105C7000077060E0083086E5AEFFFF0AFC30D4E133
:105C8000000057E30338A0E1BEFFFF1A008095E54E
:105C9000047095E5085085E2B8FFFFEA008095E5BD
:105CA000047095E5085085E28EFFFFEA0000A0E34E
:105CB0001EFF2FE10410A0E100009DE5BEFCFFEBFC
