:10000000E07F0010C9280000F9280000FB2800004C
:10001000FD280000FF28000001290000000000006A
:1000200000000000000000000000000003290000A4
:100030000529000000000000072900000929000030
:100040000B2900000B2900000B2900000B290000E0
:100050000B2900000B2900000B2900000B290000D0
:100060000B2900000B2900000B2900000B290000C0
:100070000B2900000B2900000B2900000B290000B0
:100080000B2900000B2900000B2900000B290000A0
:100090000B2900000B2900000B2900000B29000090
:1000A0000B2900000B2900000B2900000B29000080
:1000B0000B2900000B2900000B2900000B29000070
:1000C0000B2900000B2900000B2900000000000094
:1000D0000000000000000000000000000000000020
:1000E0000000000000000000000000000000000010
:1000F0000000000000000000000000000000000000
:1001000000000000000000000000000000000000EF
:1002F000000000000000000000000000FFFFFFFF02
:1003000010B5054C237833B9044B13B10448AFF34F
:1003100000800123237010BD800B0010000000003E
:10032000F421010008B5034B1BB103490348AFF3A7
:10033000008008BD00000000840B0010F4210100C3
:10034000154B002B08BF134B9D46A3F5803A0021A7
:100350008B460F461348144A121A05F0BBFC0F4B8C
:10036000002B00D098470E4B002B00D09847002060
:10037000002104000D000D48002802D00C4801F0B7
:1003800046FD05F0A3FA2000290001F091FE01F0DE
:100390003BFD00BF00000800E07F001000000000EF
:1003A000A1200000800B0010641100100F1E00003F
:1003B00000000000002070470020704700207047B8
:1003C00000207047002070470020704700207047D1
:1003D00000207047002070470020704700207047C1
:1003E00000207047002070470020704700207047B1
:1003F00000207047002070470020704700207047A1
:100400000020704700207047002070470020704790
:100410000020704700207047002070470020704780
:1004200000207047704700207047704700207047D9
:100430000020704700207047704700207047002060
:10044000704700207047022280F8142100220368C0
:1004500080F8152180F81621D3F89430184770479A
:1004600000487047DE000010004870471601001079
:1004700000487047E2000010004870472801001053
:10048000004870470E01001000487047F800001047
:1004900038B5104C05462378BFF35B8FDB0716D4C5
:1004A000204601F0E1FC90B10B4BB5F8F42020465A
:1004B0001A72120A5A72B5F8F6209A72120ADA7291
:1004C000B5F8F8201A73120A5A7301F0E7FC0248D3
:1004D00038BD00BF9C0B0010CC000010B0F80031FC
:1004E00070B51A12022A044627D0032A56D0012AD0
:1004F00004D10368D3F8A830984708B900201BE05E
:1005000023682046D3F8A83098470678122EF5D1F4
:1005100023682046D3F8A83098474578012DEDD1BF
:100520002368C4F80C61D3F8A83020469847C4F873
:100530000801284684F8105170BD0368D3F8AC3028
:1005400098470028DAD023682046D3F8AC30984783
:100550000378092BD2D123682046D3F8AC309847D2
:100560004378022BCAD123682046D3F8AC30984791
:1005700023688578D3F8AC3020469847C37845EA9D
:1005800003252368C4F80C51D3F8AC3020469847B3
:10059000C4F80801012084F81001CDE7DBB2052B77
:1005A000ACD8DFE803F0030E19242F3A0368D3F820
:1005B000B03098470378C4F80C312368D3F8B030D2
:1005C000E4E70368D3F8B43098470378C4F80C31F3
:1005D0002368D3F8B430D9E70368D3F8B830984724
:1005E0000378C4F80C312368D3F8B830CEE7036839
:1005F000D3F8BC3098470378C4F80C312368D3F89B
:10060000BC30C3E70368D3F8C03098470378C4F818
:100610000C312368D3F8C030B8E70368D3F8C4308E
:1006200098470378C4F80C312368D3F8C430ADE799
:100630000B78DB0913700B78C3F3411353700B78FD
:1006400003F01F0393704B78D370C8788B7843EA1C
:100650000023938048790B7943EA0023D380C8793B
:100660008B7943EA00231381704730B590F810511D
:1006700091B004463DBB694600F033FDD4F80C311F
:10068000024698421FD8D4F808111D1A0144C4F834
:100690000811C4F80C5195B994F812313BB1236894
:1006A0006946D3F89C302046984784F812510022BE
:1006B0002046114600F019FD012011B030BD204642
:1006C00000F00DFDF8E70020F7E710B50446FFF74E
:1006D000CCFF20B92046BDE8104000F009BD10BD98
:1006E00070B5D0F80C510446EDB990F811312BB12A
:1006F0002A46294600F0F9FC84F8115194F8123189
:100700004BB1002223681146D3F89C30204698470D
:10071000002384F81231204600F0E1FC204600F06E
:10072000DFFC012070BD90F81061012E12D1402D28
:1007300028BF4025D0F808112A4600F0D6FCD4F88E
:1007400008312B44C4F80831D4F80C315D1BC4F8CF
:100750000C51E6E70020E5E710B50446FFF7C0FFBF
:1007600020B92046BDE8104000F0C2BC10BD10B555
:10077000044690F8001100F0ABFCB4F8003123B946
:10078000022384F81431012010BD0323F9E790F807
:10079000001138B5044680F8151139B900F08FFC06
:1007A0000323012584F81431284638BD0368D3F8A3
:1007B000A030984705460028F6D0204600F076FC89
:1007C000042384F81431EFE790F81431042B0ED190
:1007D000B0F81831A0F8023100F58D73C0F8083177
:1007E0000123C0F80C3180F8103118467047002002
:1007F0007047036810B5D3F8A43090F80021B0F822
:1008000002110446984738B1B4F80231A4F81831FF
:10081000B4F8003184F81A3110BD08B590F81431DD
:10082000042B02D0B0F8023193B990F8FE30022BBD
:100830000ED1B0F800315BB9B0F80231590001F0C7
:100840001E01C3F3C013194300F016FE012008BDBA
:100850000020FCE708B590F81431042B02D0B0F862
:10086000023193B990F8FE30022B0ED1B0F800316E
:100870005BB9B0F80231590001F01E01C3F3C01397
:10088000194300F015FE012008BD0020FCE7000020
:1008900090F8143110B5042B044602D0B0F80231A0
:1008A00033B994F8FE30012B07D003D3022B11D0BB
:1008B00000200EE00F4B012201E000220D4B1A80B8
:1008C0000C4B0120C4F80831022384F81001C4F84D
:1008D0000C3110BDB4F802312046590001F01E0160
:1008E000C3F3C013194300F0F7FD024B0028E2D117
:1008F0001880E5E7A00B001090F8FD3033BB90F8AE
:10090000FF300B2B22D8DFE803F00608210A210C68
:100910000E21101B1D1FFFF7BBBFFFF79BBFFFF78B
:100920007CBFFFF724BFFFF7D9BD00F21513C0F855
:1009300008310123C0F80C3180F810311846704797
:10094000FFF725BFFFF740BFFFF753BF00207047F9
:1009500010B5044690B0694600F0BDFB204604F196
:10096000FC026946FFF764FE002384F81031C4F8E6
:100970000831C4F80C3184F8113184F8123123683D
:100980002046D3F89830984750B1B4F804317BB979
:10099000D4F80C214AB91146204600F0A6FB21E00C
:1009A0002046FFF7A9FF0028EFD1002010B010BDAE
:1009B00094F8FC1094F81021012915D1012AF4D1E2
:1009C000D4F80C219A4201D9C4F80C31D4F80C2186
:1009D000934204D9930604BF012384F811312046C1
:1009E000FFF77EFE0120E1E7002ADED1D4F80C21DA
:1009F0009A42DAD1204600F072FBF3E710B50446C4
:100A0000FFF7A6FF20B92046BDE8104000F070BBFC
:100A100010BD38B50D46044600F034FB1DB194F806
:100A20001431042BFBD138BDFC307047002300F09B
:100A3000B9BB0000F8B504461D460F46164600F047
:100A4000DBFB094BA4F8F4702360012384F8143114
:100A50000023A4F8F660A4F8F85084F8153184F85F
:100A600016312046F8BD00BF040C010008B500F0A7
:100A700048FB431E5842584108BD70B5049E0446C9
:100A8000B3420D4601D9002070BD90F81461042EC8
:100A9000F9D100F05BFB0128F5D12946204600F092
:100AA00071FB012803D194F81431042BF5D0B0FA6E
:100AB00080F04009E8E7F8B51F4690F81431044685
:100AC000042B0D4616460FD13B463246294620469A
:100AD00000F01AFB012803D194F81431042BF3D051
:100AE000B0FA80F04009F8BD0020FCE703681B69FC
:100AF000184703689B69184703689B6A18474FF0BB
:100B0000FF3070471120704770477047704770473B
:100B1000002380F81B31704700487047A80100107F
:100B200000487047920100100048704747010010CC
:100B300010B50446FFF778FF4378012B1AD1C2782D
:100B4000212A07D0222A0CD0202A13D1072283750C
:100B5000026104E007220261074A0375C260184679
:100B600010BD828812F0010214BF84F81B3184F892
:100B70001B21F4E70023F2E72E010010072A73B5CA
:100B800006460C46154625D1FFF74EFF4378012B4C
:100B900020D1C378202B1DD12A4621460E4804F0CF
:100BA0008FFFB8B12A4621460B4804F0BBFF60789E
:100BB0002178637901EB0021A078A27901EB004153
:100BC000E07824793568009401EB0061D5F8CC40D9
:100BD0003046A04702B070BD2E010010012938B583
:100BE00005460C4614D140220321FFF71FFF402287
:100BF00005212846FFF71AFF402204212846FFF767
:100C000015FF402204212846FFF730FF204638BD5B
:100C10000020FCE738B50D4C05462378BFF35B8F09
:100C2000DB0711D4204601F01FF968B1084BB5F875
:100C3000F42020461A72120A5A72B5F8F6209A72F7
:100C4000120ADA7201F02AF9014838BDA40B00102B
:100C50003501001010B50446FFF7ECFE054B2046A9
:100C6000236000239DF8081084F81B31FFF7D1FEA4
:100C7000204610BDD80C0100402307B50093134651
:100C80000A460521FFF7F9FE03B05DF804FB37B50E
:100C90004024134600940A4604210546FFF70BFF43
:100CA00038B122460421284603B0BDE83040FFF7A2
:100CB000DDBE03B030BD30B4D0F8CC410D46114696
:100CC0001A46029B1CB12846A44630BC604730BC83
:100CD00070470346B3F84611B3F8442192B28A42F2
:100CE000F8D0B3F84611B3F8442192B28A4216D034
:100CF000B3F8462192B2511C89B2A3F84611812162
:100D00001A4492F84801B3F8462192B292FBF1F1ED
:100D100001EBC111521A92B2A3F84621704700208C
:100D20007047A0F58E70FFF7D4BF07B590F81B2170
:100D3000019102F0FF033AB1012201A9FFF79CFFE4
:100D4000012003B05DF804FB1846FAE7A0F58E70A9
:100D5000FFF7EBBFF0B5002693B012AA01AD42F841
:100D6000486D29460446FFF792FF324681210098DC
:100D7000904234D0B4F84431B4F846C1013393FB07
:100D8000F1F707EBC717DB1B6345AE5C10D1B4F876
:100D9000463101339BB2A4F84631B4F846319BB2D8
:100DA00093FBF1F707EBC717DB1B9BB2A4F84631A7
:100DB000B4F8443101329BB25F1CBFB22344A4F8A3
:100DC000447183F84861B4F844319BB293FBF1F667
:100DD00006EBC6169B1B9BB2A4F84431C8E7D4F8B7
:100DE00040311BB11B6804F59A709847012013B07D
:100DF000F0BD000010B504460D4B036003F1E8029E
:100E000003F5A273C0F81C21C0F82031D4F840319A
:100E100000F59A700BB19B68984704F58E7002F04C
:100E2000DFFA044B2046236000F016F9204610BD7F
:100E3000B00D0100040C0100A0F58E70DAE7A0F5FA
:100E40009070D7E710B50446FFF7D4FF204601F0B5
:100E50004DF8204610BDA0F58E70F3E7A0F5907018
:100E6000F0E7B0F84431B0F846219A42B0F8443186
:100E70008BBFB0F84621B0F8460103F18100181A83
:100E800088BF801A80B2C0B2704770477047704701
:100E900070477047704700001022064B904040F4A6
:100EA000A060C3F80822C3F81002D3F80022D206CB
:100EB000FBD5704700C000501022064B904040F414
:100EC0008070C3F80822C3F81002D3F80022D206BB
:100ED000FBD5704700C000502022084B000440F4AE
:100EE0000070C3F80822C3F81002D3F8002292065B
:100EF000FBD5D3F81402C0B2704700BF00C0005049
:100F000008B5FE20FFF7C8FFBDE80840FE20FFF748
:100F1000E3BF0000012303FA00F0054BC3F83802D9
:100F2000D3F800229206FBD5D3F81402C0B2704762
:100F300000C0005008B5FFF7E3FF0146FE20FFF7B1
:100F4000ABFFBDE8084001F0FE00FFF7B5BF0000B1
:100F500070B504464010164B800040F00200C3F804
:100F60002802C3F8242292B10020054611F8016B33
:100F7000013A86400830354300F01F06F0B20EB14A
:100F8000002AF3D1C3F81C521AB10025EEE7C3F8CA
:100F90001C220022064B2046C3F82822FFF77CFFC4
:100FA0002046FFF799FFBDE87040FA20FFF774BFB5
:100FB00000C00050014608B5D020FFF76DFFBDE826
:100FC000084041F08000FFF777BF00004810F8B5F7
:100FD00084001F4B44F00104C3F82842D3F8204298
:100FE0002405FBD5D3F82042C4F3090454B30023ED
:100FF0001D46DFF85CC016190BB9DCF8185225FA4B
:1010000003F702F8017B0833B24203F01F03F3D168
:1010100000220F4BC3F82822032390FBF3F303EBCA
:101020004303984200D158B90846FFF735FF0846F8
:10103000FFF752FFF220FFF72FFFF220FFF74CFFE0
:101040002046F8BDD3F81822024B1A60E0E700BF33
:1010500000C00050B00B0010084B10B503600446F0
:10106000FFF768FF4FF08072054BC3F88020BFF395
:101070004F8FBFF36F8F204610BD00BF040F0100DC
:1010800000E100E04FF0807208B5074B1A60FFF7EF
:1010900037FF0146FE20FFF7FFFEBDE8084041F0A4
:1010A0000100C0B2FFF708BF00E100E008B5D8209A
:1010B000FFF7F2FEBDE808400120FFF7FDBE08B5CE
:1010C000D820FFF7E9FEBDE808400020FFF7F4BE96
:1010D0000846FFF76FBF0A460021FFF777BF70474A
:1010E00070470A460021FFF771BF0120FFF730BFAC
:1010F00008B54020FFF7D0FEBDE808408020FFF78C
:10110000DBBE012070470000F8B54E100C460321ED
:1011100096FBF1F101EB41018E421F460A4D00D1D1
:101120001EB92968E140CB070CD52146FFF74EFFD9
:101130000122386000202B6802FA04F423EA040438
:101140002C60F8BD0120FCE7A80B001008461146F2
:101150000A4A70B51468C440E2070CD40124084E52
:1011600004FA00F2356825EA02051A463560FFF7F1
:10117000EFFE204670BD0320FCE700BFAC0B001063
:10118000A80B0010064B01201A68CA4012F0010F8C
:1011900005D01A68884022EA0000186000207047D5
:1011A000A80B00104FF48070114B10B5C3F8080263
:1011B0000120D3F8444288400443C3F84442C3F8B2
:1011C0004812C3F84C22D3F80022D205FBD54FF4C5
:1011D00080720849C3F808220A6822EA00020A60FD
:1011E000D3F834221043C3F83402012010BD00BFED
:1011F00000C00050AC0B001002464FF08071944BC1
:1012000070B542F8043B934B0446C3F88010BFF31B
:101210004F8FBFF36F8F904B904D93E8030082E8A0
:10122000030004F10C0203F1080103C982E8030082
:1012300004F1140203F1100103C982E8030004F170
:101240001C0203F1180103C982E8030004F124021F
:1012500003F1200103C982E8030004F12C0203F129
:10126000280103C982E8030004F1340203F13001CC
:1012700003C982E8030004F13C0203F1380103C909
:1012800082E8030004F1440203F1400103C982E84B
:10129000030004F14C0203F1480103C982E8030092
:1012A00004F1540203F1500103C982E8030004F180
:1012B0005C0203F1580103C982E8030004F16402EF
:1012C00003F1600103C982E8030004F16C0203F139
:1012D000680103C982E8030004F1740203F170019C
:1012E00003C982E8030004F17C0203F1780103C919
:1012F00082E8030004F1840203F1800103C982E85B
:10130000030004F18C0203F1880103C982E80300A1
:1013100004F1940203F1900103C982E8030004F18F
:101320009C0203F1980103C982E8030004F1A402BE
:1013300003F1A00103C982E8030004F1AC0203F148
:10134000A80103C982E8030004F1B40203F1B0016B
:1013500003C982E8030004F1BC0203F1B80103C928
:1013600082E8030004F1C40203F1C00103C982E86A
:10137000030004F1CC0203F1C80103C982E80300B1
:1013800004F1D40203F1D00103C982E8030004F19F
:10139000DC0203F1D80103C982E8030004F1E4028E
:1013A00003F1E00103C9E83382E8030093E8030096
:1013B00004F1EC0282E80300294AD2F8C43043F079
:1013C0000043C2F8C430D5F8F43F43F01203C5F827
:1013D000F43FD5F8F83F122BFBD1224E736823F06F
:1013E00070537360736843F0A0537360FFF7A2FDFE
:1013F00033691D4823F440333361336943F4802358
:10140000336101F03DFF0023402201212046FFF718
:10141000C9FE0023402219462046FFF7C3FE134BA6
:10142000134A1C60134B20469B68C3F8A0200D2371
:10143000C5F80432D5F8343243F00203C5F834322B
:10144000D5F8343243F00103C5F8343270BD00BF23
:10145000040F010000E100E0980F010000C00050FF
:1014600000C00F4000C002409A99993EB40B001092
:101470001D16000000ED00E0012908B507D8402046
:10148000FFF70AFDBDE808408020FFF715BD01F118
:101490004000FFF701FD0120FFF70EFD0123034A85
:1014A00003FA01F113681943116008BDAC0B001079
:1014B00001F1400008B5FFF7EFFC0020FFF7FCFC4E
:1014C0000123044A03FA01F1136823EA01031360BC
:1014D00008BD00BFAC0B0010024B1868C84000F0FC
:1014E00001007047AC0B00102DE9F041484D044657
:1014F000D5F80032DB0713D50368F5209E69FFF7A6
:10150000CBFCF520FFF7E8FC0146F520FFF7E4FCF3
:1015100041EA002189B22046B0470123C5F80832CC
:101520003B4BD3F8002217071BD50822C3F808222B
:10153000FFF7E6FC00F00C030C2B054604D12368F2
:1015400000215B6920469847EE060AD56D0704D452
:10155000236801215B6920469847236820461B6861
:1015600098472B4BD3F8002250074FD5D3F8303291
:10157000D9070ED50020FFF7CDFC236810F0040F2B
:1015800014BF5B689B68204698470422204BC3F831
:1015900008221F49D1F830329A0709D50120FFF7F8
:1015A000B9FC0423C1F8083223682046DB68984759
:1015B0000225DFF85C80174ED8F83032E8B2EB40F5
:1015C000DB0720D50127FFF7A5FC3368AF403B437D
:1015D000336004231049C8F8083204EBC50353F8FC
:1015E00008CC09684FEA6C021CF0010F01EB020005
:1015F00053F80C3C1CBF8A58D358984718B133682D
:1016000023EA070737600135202DD5D1BDE8F081E9
:1016100000C00050A80B0010B40B0010014B18685C
:10162000FFF762BFB40B001010B50446074B303013
:1016300003F1200240F8303C7C330260436001F04B
:10164000CFFE204601F088FD204610BDE4170100C2
:10165000A0F13000E8E7A0F13400E5E773B50446F7
:1016600016460D4619B912B10D4801F0A5FF731BBE
:101670000F2B019307D9002201A9204602F098F808
:10168000019B2060A36032462946206802F0BCF826
:101690000021019B22686360D15402B070BD00BF7D
:1016A000A410010038B504460D461822002104F0AC
:1016B00011FB2046294601F098FA204638BD00006B
:1016C00030B5002287B01A49044602F027F90546D2
:1016D00000221849204602F021F96B1C01D001308C
:1016E00003D11549154801F0A1FE21466B1E0122C8
:1016F000684602F091F9009803F0ACFA0DF0A4F9F5
:101700000F4B1860684602F077F86A1C21464FF0CC
:10171000FF33684602F080F9009803F09BFA0DF061
:1017200093F9084B1860684602F066F807B030BDC0
:10173000881001008A1001008C100100D00D0010EB
:10174000F40B0010F80B00102DE9F0414FF07E5023
:1017500088B001F095FD4FF416412D4801F040FC92
:101760002C492D4801F062FE2C4801F0D5F92B4898
:1017700001F08CF92A4D2B4CDFF8C4802846FFF786
:1017800070FB0028FAD02846FFF76BFB0028F5D045
:10179000244A4146204801F066FE23787E2B24D05F
:1017A00004AB2046029304F0F9FD2146221802A85A
:1017B000FFF754FF02A91C4802F032F802A802F019
:1017C0001BF8194A1949144801F030FE164902A8BD
:1017D00002F0E2F802A8FFF773FF02A802F00CF88B
:1017E0000E4801F090F9124B1860124B18680CF07B
:1017F000D1FC114B064618680F460CF0CBFC324664
:10180000CDE900013B460D49034801F00FFEB5E765
:10181000680C0010CE100100D00D0010880E0010D2
:10182000B40C0010E80B0010B80B0010D810010029
:10183000FC0B0010F40B0010F80B0010DC10010082
:10184000D510010010B50446FFF7EEFE204600F06B
:101850004DFB204610BDA0F13000F3E7A0F13400AD
:10186000F0E700004FF4165373B5334C334E00933A
:101870004FF0FF3200233249204601F07BFB324615
:101880003049204600F0BEFA012300252E4C00937B
:1018900042F212024FF4F8512046FFF7DBF9002123
:1018A00004F58E7001F074FD284B002103F1E8026D
:1018B0002360C4F81C2103F5A273102204F59A706A
:1018C000C4F8203104F006FA3246A4F84451204905
:1018D000A4F846512046C4F8CC5100F093FA1D49B3
:1018E0001D48FFF7DFFE1D491D48FFF7DBFE1D49C0
:1018F0001D48FFF7D7FE1D491D48FFF7D3FE1D49C0
:101900001D48FFF7CFFE1D481D4C00F10803C0E93C
:10191000003532461B49057200F074FA204601F08A
:101920000CF932461849204600F06CFA174802B00C
:10193000BDE8704000F03AB8680C0010C800001014
:101940000FC0092029160000B40C0010B00D0100D2
:10195000F50D000032C00920080C001034C0092029
:10196000200C001035C00920380C001037C00920A9
:10197000500C001006C00920D00B0010B80B00104E
:10198000880E00108D3800006D2A0000000C001039
:1019900010B5054C4021204601F034FD2046BDE83D
:1019A0001040C02101F02EBD980C00104FF41653CA
:1019B00010B5044696B04FF0FF320749009303A8D4
:1019C000002301F0D7FA2046FFF7E2FF03A8FFF754
:1019D0002BFE204616B010BD0FC00920431C10B5C9
:1019E000044604D115220649064801F01BFA204698
:1019F000002100F065FB012004F01F04A04010BD91
:101A000009110100F610010038B505464B1C0C46C3
:101A100029600FD00846FFF7E1FF24F01F0404F10E
:101A20001803EB6004F11C032B6104F114036860DC
:101A30006B61AC6038BD006800F068BB38B5036806
:101A4000044601330D4604D12C220A490A4801F00C
:101A5000E9F915B1012D07D038BDA2686168136896
:101A600023EA0103136038BDA268616813680B4361
:101A7000F8E700BF09110100F110010038B5036853
:101A8000044601330D4604D124220549054801F0DE
:101A9000C9F9636815B1E268136038BD2269FBE7D4
:101AA00076110100F110010010B586B001F0E8F9DF
:101AB0001449684601F099F8042401216846FFF7AB
:101AC000DDFF962001F0E8FB00216846FFF7D6FF16
:101AD000962001F0E1FB013CEFD10424012168468E
:101AE000FFF7CCFF4FF4C87001F0D6FB0021684629
:101AF000FFF7C4FF4FF4C87001F0CEFB013CEDD1FD
:101B0000DAE700BF32C0092070B50D460446A0B028
:101B100001F0B6F92B4622468021684607F08EF880
:101B2000051E03DC01F0D8F920B070BD094B1B681D
:101B300023B9094A09490A4800F010FE0024084E5A
:101B40001DF804103046013400F06CFDA542F7D1B9
:101B5000E8E700BFBC0F001003C0092002C0092045
:101B6000341100100FB407B504A951F8040B01910A
:101B7000FFF7CAFF03B05DF804EB04B07047000044
:101B800008B5084B1B685BB907490848084A00F0CC
:101B9000E5FDBDE808404FF41651044800F0B2BB23
:101BA00008BD00BFBC0F001002C009203411001096
:101BB00003C00920022810B501DC002010BD00215F
:101BC0000B4AC31E52F8230042F8231030B903F029
:101BD00045F8092303604FF0FF3010BD03685B69CF
:101BE0009847041EE9DA03F039F864420460F2E72A
:101BF000A80E00100228F8B50D4614460EDC134B53
:101C00001B680BB9FFF7BCFF114E2F19BD4210D056
:101C100015F8011B304600F005FDF7E70D4B0338C2
:101C200053F8200038B903F019F809234FF0FF34B6
:101C300003602046F8BD0368DB689847041EF8DAA5
:101C400003F00CF863420360F3E700BFBC0F001021
:101C500034110010A80E0010022810B50C460BDC41
:101C6000104B1B680BB9FFF78BFF0F4800F09AFC75
:101C700020700124204610BD0C4B033853F820007F
:101C800030B902F0EBFF09234FF0FF340360F1E7B6
:101C900003689B689847041EECDA02F0DFFF63429A
:101CA0000360E7E7BC0F001034110010A80E00100D
:101CB000022810B516DD0C4B033853F820402CB920
:101CC00002F0CCFF09230360204610BD23682046A4
:101CD000DB699847041EF7DA02F0C0FF6442046033
:101CE0000024F1E70124EFE7A80E0010022810B548
:101CF00006DC02F0B3FF1D2303604FF0FF3010BD80
:101D00000A4B033853F8200018B902F0A7FF092343
:101D1000F2E703681B699847041E04DA02F09EFF8D
:101D200064420460E9E7204610BD00BFA80E001021
:101D3000022838B50D4604DC4FF400534B600020F8
:101D400038BD0E4B033853F8204034B902F086FFFB
:101D5000092303604FF0FF3038BD23682046DB695C
:101D60009847002814BF4FF400534FF400436B60B2
:101D7000236820469B6A98472861E0E7A80E001078
:101D8000014801F061B800BF6F12010008B50120E1
:101D900000F03AF80C4A10B513681844EFF30881C4
:101DA000884205D30C22094B4FF0FF301A6010BD5A
:101DB00007490C6824B10749096821448842F1D2D7
:101DC0001060184610BD00BFB00100106011001077
:101DD000B00F0010B40F0010094C08B52368054679
:101DE000986803F089F82368D86803F085F801F053
:101DF000ECF908B101F055FA0DB1FFF755FEFEE719
:101E0000C00100100120704708B5FFF7E5FF012071
:101E10007047002104F08CB81FB504220C463A2309
:101E20000DEB020101900DF109008DF8083003F06F
:101E300079FE214602A803F0A5F9044638B10198BD
:101E40000368DB69984710B12046FFF7E2FF2046A0
:101E500004B010BD7047704708B5FFF7FBFF08BD21
:101E600008B5FFF7F8FF08BD10B50378044603F086
:101E70000303012B0CD02BB140F2DE32054906489A
:101E800000F0D0FF2378012043F00203237010BD3F
:101E9000002010BD96120100F112010010B5037868
:101EA000044603F00303022B05D040F2E632054955
:101EB000054800F0B7FF237823F0030343F0010344
:101EC000237010BD961201001713010010B503F026
:101ED000A1FD044610B9024800F0B6FF204610BD2F
:101EE0007912010008B103F09DBD7047FFF7FABFFA
:101EF000034653F8042B10B5044602B90360226868
:101F00009A4204D05B220349034800F08BFF20680B
:101F100010BD00BFF81101005B12010010B50446AE
:101F20000948FFF7E5FF00231946084A52F8230045
:101F3000A04208BF42F823100133402BF6D10248DB
:101F4000FFF7D6FF10BD00BFA80F0010A80E0010AD
:101F50002DE9FF4789464049064604F041F9044609
:101F600028B9FFF70DFE204604B0BDE8F0873B49D5
:101F7000304604F035F918B9FFF702FE0124F2E704
:101F80003749304604F02CF918B9FFF7F9FD02245F
:101F9000E9E7344D3448FFF7ABFF0024A84655F875
:101FA0002470002F40D00134402CF8D102F056FEAE
:101FB000182303602C48FFF79BFF0EE0314602A870
:101FC00001F005F902A801F046F9064640B902F011
:101FD00045FE1323036045F824604FF0FF34C2E749
:101FE00002A801F026F9074602A81FB101F02AF95C
:101FF00001902BE001F014F906460028E7D00368B1
:1020000002A8D3F808A001F000F929F480330246B1
:1020100001A93046D0470646C0B102F01FFE764205
:10202000066045F82470D8E74FF0FF330E4845F8B6
:102030002430FFF75DFF337801973A2BBED104229D
:10204000711C02A803F06EFD029B0193019B48F8EE
:102050002430033487E700BF5E13010065130100DD
:1020600056130100A80E0010A80F0010704770470B
:1020700070470000074B10B59A6807490748043AB3
:1020800052F8044F41F8044F8142F9D14FF0805289
:102090009A6010BD00ED00E0FCFFFF0FC0000010D3
:1020A00008B5FFF7E7FFFFF7E2FFFFF7E1FF08BD25
:1020B00008B5FFF7DBFFBDE80840FFF745BB0000B0
:1020C00038B5431C04460D4604D115220D490E486F
:1020D00000F0A8FE04F16040A0F51C2042000309B6
:1020E00003209B0003F1804303F53033196802F0AD
:1020F0001E02904021EA00011960196895400D43C5
:102100001D6038BD6D130100F610010038B5431C89
:1021100005460C4604D120221749184800F082FEDB
:1021200005F16040A0F51C2043099B0003F18043AA
:1021300003F530339D6EC4F3800100F01F0201FAF5
:1021400002F225EA02059D669D6E2A439A6691B9C0
:102150004200030903209B0003F1804303F5303361
:10216000196C02F01E02904021EA00011964196CFA
:1021700094400C431C6438BD6D130100F61001003F
:1021800030B52A4B04689C4224D006DCA3F580437A
:102190009C420CD000231D460BE0254B9C421CD0DA
:1021A00003F580439C42F5D1224B082501E005252B
:1021B000214BAAB10122606802FA01F1014361607A
:1021C0001E4905F110008968AA4041F820301C4BD7
:1021D0001A6030BD1B4B0625EBE71B4B0725E8E7D4
:1021E00001290AD042683820184B00FB023292F8CD
:1021F000363092F83520D34216D1012303FA01F28A
:10220000B1FA81F16068490920EA02006060626801
:1022100003FA01F1114207D1094AAB40C2F88030FC
:10222000BFF34F8FBFF36F8F30BD00BF0000014081
:1022300000800940F1220000B522000000ED00E01E
:1022400000E100E0C9220000DD220000C00F001004
:10225000012810B408D0022808D010BC704750687C
:1022600020F00100506010E003460EE038230F48D4
:1022700003FB01035868013006D018699C680460AC
:1022800093F83630002BEAD0002338225143074818
:10229000421840580028E0D01BB992F83620002A96
:1022A000DBD0034A1946126810BC1047C00F00105B
:1022B000B80F0010034A00219068C0F34200FFF7F6
:1022C000C7BF00BF00C00040034A01219068C0F3AF
:1022D0004200FFF7BDBF00BF00000140034A0221DA
:1022E0009068C0F34200FFF7B3BF00BF0080094011
:1022F000034A03219068C0F34200FFF7A9BF00BF63
:1023000000C009402DE9F04F754A0E4601688DB0B6
:102310009142059004DD9B227249734800F082FDD2
:10232000059B72491A688A4200F09C8079DCA1F50D
:1023300080418A4200F088806D4AD2F800903201D4
:10234000B9FBF2F5ACB202FB1595002D00F0BF8091
:102350004FEA490308934FEA89030793079A012735
:102360000392002233462146DDF820B0CDF81090CC
:102370000696029701921A464FF000085FFA87FA14
:10238000BBF1000FABBF0398BBFBF2F4B0FBF2F460
:102390002409A8BF64090134C4F34F045FFA88F527
:1023A000002C00F09780B8F1000F02D0012C08BF7C
:1023B000022407EB080060430A93049BC000B3FBB0
:1023C000F0F00130C6EB50000B92099102F03EFC98
:1023D000069B099998420B9A0A9B62DA86425BD166
:1023E0000F2F07D12146CDF808A001950C46DDF846
:1023F00008A0019D059B45EA0A151B68EDB21A7BF2
:1024000042F080021A73C4F30722E4B21A711C70FE
:1024100083F828501A7B02F07F021A730DB0BDE8D2
:10242000F08F34498A4229D001F580418A4283D114
:10243000314AD2F8AC1121F44021C2F8AC11D2F8E3
:10244000AC1141F4802124E02B4AD2F8A81121F0EC
:10245000C001C2F8A811D2F8A81141F04001C2F899
:10246000A81169E7244AD2F8A81121F44071C2F8F2
:10247000A811D2F8A81141F48071F0E71E4AD2F8F1
:10248000AC1121F44031C2F8AC11D2F8AC1141F4D6
:102490008031C2F8AC114FE721460690CDF808A074
:1024A000019508F101085FFA88F050453244FFF4C5
:1024B00067AF0F2F9AD0049A07984A440492089A5B
:1024C00001379344039A33440244039253E74FF095
:1024D000010A8FE7B8F1000F0CBF0124022468E75E
:1024E00000C00940FC1401006B1501000000014010
:1024F000B40100100080094000C00F40F8B55E1E16
:10250000012E07460C46154604D9FB2213491448F0
:1025100000F088FC053C032C04D9FC220F4911482B
:1025200000F080FC042D04D9FE220C490E4800F076
:1025300079FC013DEDB2032D8BBF002301221A4629
:102540000A4B44EA860498BF5B5744EAC2043968E0
:1025500044EA0314E4B20C73F8BD00BFFC1401009C
:1025600084150100A9150100CC150100D813010044
:10257000034B1960382341684B430249CA507047E6
:10258000B80F0010C00F001030B431B938254368BF
:10259000034C05FB034383F8362030BCFFF7F0BD46
:1025A000C00F001010B50268137DDB07FCD538247E
:1025B00043680848117804FB03035868C9B2013026
:1025C00006D058699B680360536843F00103536069
:1025D000084610BDC00F00103821114A436801FBA6
:1025E0000323DA69013209D01A6B1B6A12681A4296
:1025F00014D10368187DC0F3801070470268127D03
:10260000920604D50022012083F83420704793F805
:1026100034000F288CBF0020012070470020704735
:10262000C00F001038B504460D462046FFF7D4FF12
:102630000028FAD038212368EDB21D706368044A7F
:1026400001FB032393F83420013283F8342038BD92
:10265000C00F00102DE9F84F9A463C4C0368054620
:10266000A34218BF00248946904647681CB1237CCA
:1026700003F03F03237438234FF0FF32344E2846D3
:1026800003FB0763DA615A60002283F835201146A4
:10269000FFF776FDB9F1000F55D02E49404600F006
:1026A000D5FA2D498346504600F0D0FAA9F102032D
:1026B000012B1BD8BAF1FF3F0BD0244B98420DD110
:1026C00064B1237C244943F080032374504600F016
:1026D0008FFAB9F1030F0CD0BDE8F88F382000FB5A
:1026E000076051461C3000F066FAF2E7B9F1010FBD
:1026F00029D1B8F1FF3F01D1BDE8F88F07222B683F
:102700001A72124B9B450AD14CB1237C404643F0D0
:10271000400323740F49BDE8F84F00F069BA38242C
:1027200004FB076041460022043000F047FA012212
:102730006B68284604FB036686F835200021BDE857
:10274000F84FFFF71DBDBDE8F88F00BF0000014046
:10275000C00F001000140100DC1301002DE9F84344
:102760000F4605464D493846164600F07BFA4C495F
:102770000446304600F076FA0146204600F054FA4E
:10278000411C044604D15C224649474800F04AFBFC
:10279000464B2C609C4263D04DD8A3F580439C42AD
:1027A00056D04FF001094FF0000884F808904FF41C
:1027B00016512846C4F80480FFF7A4FD42464B4654
:1027C00008212846FFF79AFE3449384600F010FAEF
:1027D0003349304600F00CFA7A1C03D041463846A3
:1027E000FFF794FC731C03D000213046FFF78EFCEA
:1027F0002E4B9C424CD03FD8A3F580439C4244D002
:1028000038216A682A4B284601FB02324FF0FF3319
:1028100000215360D3611A46FFF71CFF254B9C42F1
:102820003AD10122244B29461A6024480822BDE8E7
:10283000F84303F077B9224B9C4217D003F580434D
:102840009C42AED11F4AD2F8C43043F0007304E07A
:102850001C4AD2F8C43043F00803C2F8C430A0E7E1
:10286000184AD2F8C43043F01003F6E7154AD2F8FC
:10287000C43043F08073F0E7114B9C420AD003F55B
:1028800080439C42BCD1032300E000236B60B7E788
:102890000123FBE70223F9E7BDE8F8839014010068
:1028A00024140100FC140100501601000000014036
:1028B000C00F001000C00040BC0F00103411001009
:1028C0000080094000C00F400649074A074B9A4262
:1028D000BEBF51F8040B42F8040BF8E704488047E8
:1028E000044800472C250100C80000107C0B001094
:1028F0000D29000041030000FEE7FEE7FEE7FEE7CA
:10290000FEE7FEE7FEE7FEE7FEE7FEE72022264BB6
:10291000C3F8A021D3F8A021920603D5D3F8A021B3
:102920005006FBD50222C3F8042100220120C3F87F
:10293000A821C3F8AC210B22C3F80C01AA21C3F8CB
:1029400084205522C3F88C10C3F88C20C3F8800073
:10295000C3F88C10C3F88C20134B1A46D3F8881098
:102960004901FBD50321C3F88010AA21C3F88C10BC
:102970005521C3F88C10D2F8883013F0407FFAD07C
:102980000523C2F80831094BC2F8C4300023C2F84D
:10299000C831136823F4704323F03A0343F44053DF
:1029A00043F03A031360704700C00F40DE872804ED
:1029B000104B1868E0B901210F4A1960D2F8C430F1
:1029C00043F40003C2F8C430A2F5D02210670220FD
:1029D0000A4B1B6850600A48B3FBF0F3013BD3601D
:1029E000084B51609B68084A1A651022074B1A6011
:1029F000704700BFA010001000C00F40B4010010CD
:102A000000093D0000ED00E0F12C000000E100E0D5
:102A100008B5044B1B680BB9FFF7CAFF024B986857
:102A200008BD00BFA010001000400940034B986192
:102A30005A6942F001025A61704700BF00400940E4
:102A40001022024BC3F80021704700BF00E100E0F4
:102A5000024A536923F00103536170470040094063
:102A60000122014B1A6070470040094010B504462E
:102A700000F006FA23681BB1237F0BB100F01CF9AC
:102A80000023236000F028FA204610BD10B504464C
:102A900000F0F6F9236853B9237F0BB100F0F2F888
:102AA000A06900F0ADF90123C4E902012360BDE88B
:102AB000104000F011BA38B5044600F0E1F923687F
:102AC00073B1A06900F09CF904F10805D5E900454F
:102AD000041B61EB050500F0FFF92046294638BDCF
:102AE00000240025F7E770B5064600F0C9F9D6E9DD
:102AF00004453046FFF7DFFF24184D4100F0ECF9A4
:102B00002046294670BD08B5FFF7EDFF4FF47A72F5
:102B100000230CF063F908BD10B5044600F0B0F9CD
:102B2000A06900F06DF900220023C4E90201C4E9A4
:102B30000423BDE8104000F0CFB9002310B50022F7
:102B400003600023C0E90223C0E90423044600F027
:102B5000CBF80123A06123772046FFF7DDFF204655
:102B600010BD000038B50368044601330D4604D19A
:102B700024220549054800F055F9636815B1E2685B
:102B8000136038BD2269FBE776110100F1100100E6
:102B900070B50E4604461546FEF736FF013609D0DD
:102BA00020460021FEF74AFF29462046BDE8704036
:102BB000FEF741BF70BD0322FFF7EABF70B50E46B6
:102BC00004461546FEF720FF01360DD02946204663
:102BD000FFF7C8FF20460121FEF730FF2046BDE881
:102BE00070400221FEF727BF70BD0022FFF7E6BF4D
:102BF00010B5044601300DD110BD9C4209D12046CC
:102C00008968FFF75DFA2046BDE810400221FFF712
:102C10007DBA0C310B685A1CEFD10248BDE8104058
:102C200000F012B991160100884208B508D0431C83
:102C300006D0013106D0044800F006F94FF0FF310C
:102C4000084608BD0146FBE7601601000B685A1CE8
:102C500001D118467047834201D1486870470C3152
:102C6000F4E70000421C10B5044607D0FFF7EEFF62
:102C7000431C044602D1024800F0E6F8204610BD8D
:102C80007116010008B500F0FBF8094B1A884FF6E1
:102C9000FF739A4204D100F01FF9064800F0D4F8FF
:102CA0000121034800F036F9BDE8084000F014B9EE
:102CB000A4100010A216010008B500F0E1F8084BBE
:102CC0001B8823B900F008F9064800F0BDF801217F
:102CD000034800F02CF9BDE8084000F0FDB800BF43
:102CE000A4100010CF16010000487047F81601002C
:102CF000014800F063B800BFF81601000368D0B5C2
:102D000044685B68D4E9026798470022B04242EA0F
:102D100000023B4602D2003247F10103C4E902231C
:102D2000D0BD2DE9F0410646FFF7E8FF726837682D
:102D30005368D2E902012BB3D3E90023994208BFBB
:102D4000904203D37B69BDE8F0411847141A63EB46
:102D50000105002D08BFB4F1E04F13D2121A8418F8
:102D60003B69204641F1000598473046FFF7C6FF12
:102D70007368D3E90223AB4208BFA24205D333688C
:102D80005B69E0E74FF0E042E9E7BDE8F081036806
:102D900010B504461B6898470022636800201A603B
:102DA0005A6000210122C3E902011A742046FFF78C
:102DB000A5FF2046BDE81040FFF7B3BF036870B51C
:102DC000DB680446984763685B68A3B12046FFF759
:102DD00095FF65686E68D5E90201D6E9002399423E
:102DE00008BF904207D3F3686B602B68002BEAD0D2
:102DF000B0689847E7E72046BDE87040FFF791BF0D
:102E0000436810B51B7C04460BB9FFF7C0FF204692
:102E1000FFF774FF6368D3E9020110BD08B5FFF73F
:102E2000EFFF08BD70B504460D46164600F028F8C1
:102E300033462A4621460348FEF794FEBDE870401B
:102E4000FEF732BE181701000FB413B5084B1A78FD
:102E50004AB9012405A904981C700191FEF754FE9B
:102E60002046FEF7D1FF02B0BDE8104004B0704725
:102E7000C0100010EFF31080C04300F00100704755
:102E800038B5FFF7F7FF054672B60E4C236823B935
:102E900080F001030C4ADBB213702368013304D1C4
:102EA00043220A490A48FFF7BDFF23682BB125B129
:102EB000472206490748FFF7B5FF2368013323601F
:102EC00038BD00BFC4100010C11000104917010028
:102ED000A2170100C817010010B50A4C236883B17E
:102EE000FFF7C8FF20B1582207490848FFF79AFFAB
:102EF0002368013B236023681BB9054B1B7803B98A
:102F000062B610BDC410001049170100C8170100B7
:102F1000C110001038B505460C46FFF7B1FF2988EF
:102F20000C44A4B22C80FFF7D7FF204638BD70B503
:102F300005460E46FFF7A4FF2C88A41BA4B22C80E4
:102F4000FFF7CAFF204670BD7047A0F13000FFF7C1
:102F5000FBBFA0F13000FFF7F7BF00F054B8A0F1BD
:102F60003000FFF7FABF00F051B8A0F13000FFF7D2
:102F7000FABF000038B504461D46049B00F068F80F
:102F8000294604F1300000F003FA054B204603F116
:102F90000802226003F1280284332263636338BD90
:102FA000DC17010070477047090170B501F10C058D
:102FB0000544EB6873B14418A3692BB940F20E22A3
:102FC00005490648FFF72EFFA3692846BDE8704073
:102FD0001B68184770BD00BF68180100C7180100C2
:102FE00070B505460E46044655F8043B1B689847E5
:102FF00028463146FFF786F92368E6622046BDE899
:1030000070405B6818470430FFF7CCBA10B50C4627
:103010000430FFF707FB204610BDC36810B5044617
:103020000BB19B689847204610BD884238B50446CE
:103030000D460AD0FFF7F1FF3CB1EB681BB15B68AE
:10304000294620469847EB68E360204638BD0000DB
:103050002DE9FF47044600259A46884691461F4BB6
:1030600000F10C07036045608560294604F11C06E9
:103070001022384602F02EFE29461022304602F079
:1030800029FE10222946C4F82CA0684602F022FE30
:1030900069463846FFF7C9FF6846FFF7BEFF1022B2
:1030A0002946684602F016FE69463046FFF7BDFF26
:1030B000251D6846FFF7B1FF4A4641462846FFF7FF
:1030C0004DFBE16A2846FFF71DF9284622460449D0
:1030D000FFF74EFA204604B0BDE8F087D41801008F
:1030E000A92F00002DE9FF410646884617460546F0
:1030F00056F8043B3C011B689847FFF7C1FED8F81F
:103100000C300C342C44ABB1E3680BB9FFF7BAFDBB
:1031100041462046FFF789FF012239463046FFF736
:1031200033FAFFF7D9FE2B6828465B68984704B04E
:10313000BDE8F081E3680BB1FFF7BEFD102200216E
:10314000684602F0C7FD69462046FFF76EFF6846F5
:10315000FFF763FF0022E0E77FB50446154B10221E
:1031600003600021684602F0B5FD00226946204652
:10317000FFF7B8FF6846FFF750FF102200216846AE
:1031800002F0A8FD012269462046FFF7ABFF684622
:10319000FFF743FF14F10C0608D004F12C05B542EB
:1031A00004D0103D2846FFF738FFF8E7204604B06A
:1031B00070BD00BFD418010010B50446FFF7CCFF66
:1031C0002046FEF793FE204610BD00F075B80023A0
:1031D00010B5036043600A7804462F2A0DD14A785F
:1031E0005AB1481C1946206023681A782F2A06D144
:1031F0000133236000F0A4F96060204610BD002A6E
:10320000F8D0013301312360EEE700687047406871
:1032100008B520B100F044F9431E5842584108BD9A
:1032200010B50446FFF7F3FF10B1606800B1043831
:1032300010BD406808B520B100F032F9B0FA80F056
:10324000400908BD10B50446FFF7F3FF10B16068F0
:1032500000B1043810BD4068003018BF012070472D
:1032600070B50446FFF740FD0646FFF7D7FD05465B
:103270003046FFF7D3FD401BA042F9D370BD0000DC
:1032800008B504490BF034FC0BF082FDBDE80840A2
:10329000FFF7E6BF002474494FF47A735843FFF7F1
:1032A000DFBF30B585B06D46182420462946ABBE39
:1032B0000446204605B030BD024B186800F00100FE
:1032C000704700BFF0ED00E000207047002070471D
:1032D000036801221B690021184700220368114678
:1032E0001B691847F8B50E4603680446DB6C8F1857
:1032F00035469847BD4207D0236815F8011B5B6C23
:10330000204698470130F5D1236820461B6D984729
:10331000A81BF8BDF8B50E4603680446DB6C8F1891
:1033200035469847BD4208D0236820469B6C984795
:10333000431C02D005F8010BF4E7236820461B6DFF
:103340009847A81BF8BD00207047704700207047C1
:103350000020704710B50446044B03604C3340F81E
:10336000043F00F0BDF8204610BD00BFEC1801007E
:10337000A0F10400EEE700BF10B50446FFF7EAFF36
:103380002046FEF7B3FD204610BDA0F10400F3E790
:1033900010B504460E4B002240F8043B00F082F8C2
:1033A0000C4B0D4923605C3363600023204663614E
:1033B00000F0FFF8606118B1FEF72BFD204610BD4C
:1033C00001F04CFC01680548FFF73EFDF6E700BF41
:1033D000E81901006C1901004019010043190100AE
:1033E00010B50446064B03F10802643302604360E3
:1033F000406901F0A1FC2046FFF7ACFF204610BD5C
:103400006419010038B504460D460368DB6C984723
:10341000606901F071FD6169284601F0BBFE054657
:10342000236820461B6D9847284638BD0EB477B5F3
:103430000446036807AD55F8046BDB6C9847606978
:10344000019501F059FD019A3146606904F03CFC98
:103450000546236820461B6D9847284603B0BDE803
:10346000704003B070470EB477B50446036807ADEB
:1034700055F8046BDB6C98476069019501F03CFDE1
:10348000019A3146606905F083FB054623682046B2
:103490001B6D9847284603B0BDE8704003B07047E5
:1034A000007B704738B50B4B0446036000230D4684
:1034B0004360A16002730848FEF71AFD45B1074B4F
:1034C0001A681C6062600448FEF712FD204638BD91
:1034D0006560F8E7D8190100CC100010C810001082
:1034E00010B504460E4B03600E48FEF701FDA368BD
:1034F0002BB10D4A13689C420CD1636813600948D4
:10350000FEF7F6FC237B13B9201FFEF707FD2046CC
:1035100010BD13465A689442FBD162685A60EEE7C8
:10352000D8190100CC100010C810001010B50446C6
:10353000FFF7D6FF2046FEF7D9FC204610BD00005D
:1035400070B506460C480D46FEF7D2FC0B4B1C68C6
:103550005CB1A06870B12A46314602F04DFF48B90F
:10356000A06802F01BFF854204D10348FEF7C0FCAF
:10357000204670BD6468EBE7CC100010C810001046
:10358000036870B51B690122002104469847051E97
:103590000DDB236802221B6900212046984706465E
:1035A000236829461B69002220469847354628464D
:1035B00070BDFEF731BC000038B50546082000F0AC
:1035C000CBFA2946044601F07FF92046044A054912
:1035D00001F022F8204600F0D7FA00F0F9FA00BF17
:1035E00015480000801C010038B50546082000F091
:1035F000B3FA2946044601F07BF92046044A0549FE
:1036000001F00AF8204600F0BFFA00F0E1FA00BF2E
:10361000694800008C1C01000FB4F0B583B000AF06
:1036200007F1200454F8046B304602F0B7FE00F2B4
:103630000E2323F00703ADEB030D6D4600F500717B
:103640002346324628467C6000F06AF8082000F0E5
:1036500083FA2946044601F055F92046044A0549F3
:1036600000F0DAFF204600F08FFA00F0B1FA00BF58
:1036700099480000981C0100F0B59DB000AF0C1AED
:10368000064669220E49381D02F04CFA04F1770310
:1036900023F00703ADEB030D6D46391D6822284664
:1036A00002F040FA2246314605F1680002F03AFA8B
:1036B000002301342C44284684F86730FFF77CFF50
:1036C000381A01002DE9F04100AF86B0EC460CF14C
:1036D0000C063446DFF84080DFF840E0AEFB0253D2
:1036E000DB0803EB8305A2EB450218F802501A46EB
:1036F00004F8015D002BF1D1341B8C4209D8C4F1D0
:103700000C016144224602F00DFA2046BD46BDE898
:10371000F0814FF0FF34F8E72C1A0100CDCCCCCC6F
:1037200001392DE9F041074615460446461802E0E6
:103730002270013501342A78F2B1B44233D2252AFD
:10374000F6D1697873291BD07A2903D02529EFD1C6
:103750000135EDE7A9787529EAD11A68311B2046B1
:1037600003F10408FFF7AEFF00281CDD03352A78BB
:1037700004444346002AE0D12270E01BBDE8F081FA
:10378000196804330A7812B907E0A64207D004F892
:10379000012B11F8012F002AF7D10235CBE7314672
:1037A0003846FFF769FF21463846FFF765FF00BF3F
:1037B000086808B500281ADB90420AD952009042E6
:1037C00007D2002A0ADBBDE808400A60501CFEF759
:1037D0007DBB0130BDE80840FEF778BB6FF00043C9
:1037E0004FF000400B60BDE80840FEF76FBB01489A
:1037F000FFF7FAFE201B010050F8083B834202D07D
:103800001846FEF773BB7047521A012A03D002B95B
:10381000704702F087B90B7810B4037010BC704782
:1038200088422CD02DE9F041804658F8087B4E683C
:10383000B8450CBF0F22826882B0B2420D460446E2
:103840000CD32EB1012E29681AD10B783B70276852
:1038500000236660BB5502B0BDE8F08102A941F8C3
:10386000046DFFF7A5FF07462068804501D0FEF7ED
:103870003DFB019B2760A360002EE9D0E2E7704783
:103880003846324602F04EF92768E1E7034610B5A4
:10389000044653F8080B984201D0FEF727FB204658
:1038A00010BD00BF2DE9F047456833B995422CBFE4
:1038B00010464FF0FF30BDE8F087954226D9D0F88A
:1038C0000090A5EB020C634509EB020E4D4491F804
:1038D00000801BD8C3F1010616EB0C021C460F46F4
:1038E0000DD113E02246394602F0EAF80AF1010E42
:1038F000A5EB0E0270B1944208D8B21806D07046FB
:10390000414602F097F882460028EBD14FF0FF3095
:10391000BDE8F087AAEB0900CDE700BF70B505460A
:1039200008460C46164602F039FD3246034621464B
:103930002846FFF7B7FF70BD70B5054682B0F1B1FC
:10394000541A0F2C0E4601940CD80268012C104614
:1039500019D10B7813702A680021019B6B60D15438
:1039600002B070BD002201A9FFF722FF019B286071
:10397000AB602246314602F0D5F82A68ECE72AB956
:1039800001920268E8E7002CE6D0F2E70148FFF771
:1039900013FE00BFF41A010010B5044600F108033D
:1039A0000360D1E9003219461A444FF00003FFF7D3
:1039B000C3FF204610BD00BF70B5054682B0F1B10F
:1039C000541A0F2C0E4601940CD80268012C104694
:1039D00019D10B7813702A680021019B6B60D154B8
:1039E00002B070BD002201A9FFF7E2FE019B286032
:1039F000AB602246314602F095F82A68ECE72AB916
:103A000001920268E8E7002CE6D0F2E70148FFF7F0
:103A1000D3FD00BFF41A010070B54D68AA4213D857
:103A200000F108050560D1E90015AA42064610D844
:103A30001144AA1A9A4294BF8A18CA184FF0000378
:103A4000FFF7BAFF304670BD2B4604490448FFF724
:103A5000E3FD2B4603490248FFF7DEFDA41A0100EF
:103A6000BC1A0100381B0100FEF740BAF0B4204C2C
:103A7000A0F1080663682BB350F8087CF519AB4237
:103A800020D81AD0596851B38D4204D32BE0954207
:103A90000B4604D211464A681C1D002AF7D19542F4
:103AA00015D023681A6899188E4215D05B6840E9D2
:103AB000027323685E60F0BC7047D3E900231744AB
:103AC00040F8087C40F8043C6660F0BC7047D5E9DB
:103AD000002317444B60E4E717441F60F5E70A46EC
:103AE00004341946DBE70A4604341946D7E700BF19
:103AF000D410001030B4174C00F108026368082A93
:103B000038BF082203B30732196822F007028A423D
:103B100004D81BE001688A4205D90346586800288A
:103B2000F8D130BC704704338C1A072C456808D98B
:103B300081184D608450186802601960083030BCEC
:103B4000704701601D60F9E71846EAE71846231D33
:103B5000EAE700BFD410001010B500F18004204641
:103B600001F058FF38B1034680220021184602F0C8
:103B7000B1F8803010BD2046FFF7BCFF0346002897
:103B8000F2D100F0D3FC00BF064A80389368984217
:103B900003D9D2681344984201D301F043BFFFF721
:103BA00065BF00BFD410001038B54FF41E65074C38
:103BB0002846E56001F02EFFA06020B10023606080
:103BC000C0E9005338BDE060606038BDD41000101B
:103BD0001EB400F08DF81EBC0CF00EF8F0B50278A3
:103BE00083B0472A0D461F461ED00023254C019363
:103BF000236820469B68984780B10226019B1B687A
:103C000001932B68214628461C6901AA0123A0477D
:103C100030B13046019B3B6003B0F0BD0126F0E7B8
:103C20000646304603B0F0BD43784E2BDDD1837895
:103C3000552BDAD1C378432BD7D10379462B15D036
:103C40000379432BD1D143792B2BCED183792B2BE5
:103C5000CBD1C379012BC8D850F8204C02D05830B2
:103C60000190C5E7204654F8784CF9E743794F2B8B
:103C7000E6D18379522BE3D1C379002BE0D10193B4
:103C8000014CB5E7701B0100681B010010B504462C
:103C900000F0FEF82378A4F12002472B04D08368BB
:103CA00023BB8260012010BD63784E2BF7D1A3782F
:103CB000552BF4D1E378432BF1D12379432BEED16B
:103CC00063792B2BEBD1A3792B2BE8D1E379012B53
:103CD000E5D854F8043C0133012B44F8043CE1D10D
:103CE000836844F8083C8260012010BD00F01EFC8F
:103CF00008B500F0CDF8836883B393F82020472AF5
:103D000004D00022826003F1200008BD93F8212036
:103D10004E2AF6D193F82220552AF2D193F8232087
:103D2000432AEED193F82420432AEAD193F82520A0
:103D30002B2AE6D193F826202B2AE2D193F82720CC
:103D4000012ADED8DA69013ADA61002ADBD10022E1
:103D5000996981609A6103F1200008BD00F0E6FBDB
:103D600038B5044600F094F822780368472AA4F195
:103D7000200104D08BBB1C460160204638BD627810
:103D80004E2AF7D1A278552AF4D1E278432AF1D10C
:103D90002279432AEED162792B2AEBD1A2792B2A00
:103DA000E8D1E279012AE5D854F80C2C002A11DB7D
:103DB000013245688B4205F1FF3544F80C2C456013
:103DC0001CBF44F8103C01602046646A0BF04CFBB9
:103DD000204638BDC2F10102EBE700F0A7FB00BFAF
:103DE00008B500F051F80246006870B390F8203032
:103DF000472B06D0002320301360BDE808400BF0AD
:103E000035BB90F821304E2BF4D190F82230552B51
:103E1000F0D190F82330432BECD190F82430432B91
:103E2000E8D190F825302B2BE4D190F826302B2BBD
:103E3000E0D190F82730012BDCD84369002B05DB5B
:103E4000013B002B07D00DDB436108BD0133FBD1E3
:103E500001691160F8E7036920301360BDE808408C
:103E60000BF004BB00F062FB704700BF704700BF5F
:103E700000487047541B010010B504460421FFF7A9
:103E8000F3FD204610BD00BF00487047E41000104D
:103E900000487047E41000105028F8B51CD000F01E
:103EA0000F040C2C56D8DFE804F0074151071F55CA
:103EB0005555552723071F00144654F8045B45B198
:103EC00000F07006102E08BF114602060D4448BFD0
:103ED0002D681D602046F8BD033222F0030454F81B
:103EE000045B1D602046F8BD144654F8085BE6E705
:103EF000144634F9025BE2E7002514462F4614F815
:103F000001CB0CF07F06BE401CF0800F45EA060591
:103F100007F10707F3D11F2FD1D81CF0400FCED0E7
:103F20004FF0FF3606FA07F73D43C9E70025144670
:103F30002F4614F801CB0CF07F06BE401CF0800F1A
:103F400045EA060507F10707F3D1B8E7144634F848
:103F5000025BB4E700F072FE00F07000202811D080
:103F60000BD9402806D050280AD030280DD1084659
:103F70000CF03EB808460CF02BB808B1102804D15C
:103F80000020704708460CF037B808B500F056FE20
:103F9000F8B50C461546074608B10CF019F828602C
:103FA00026780134FF2E28D168602378601CFF2B0F
:103FB0002B7532D00024102322462B7510F8011BDC
:103FC00001F07F039340090644EA030402F107026B
:103FD000F4D40444EC6000242246037801306B756D
:103FE00010F8011B01F07F0393401C430B0602F104
:103FF0000702F5D404442C61F8BD39463046FFF77A
:10400000ABFF224601462B1D3046FFF745FF044615
:104010002378601CFF2B2B75CCD10023EB60DAE7F3
:1040200000232DE9F04F00F0030499B0012C8846DD
:1040300017460C9300F095800DD3022C40F05F8260
:10404000394640460BF0AEFF002800F09A80092068
:1040500019B0BDE8F08F0207F2D4012304930023C6
:1040600018AA42F82C8D009219460C2238460BF003
:1040700025FA38460BF0B2FF05900028E0D012ABCD
:104080001A46059938460693FFF782FF05469DF8C4
:104090005C00FF2800F0E4803946FFF75DFF04462E
:1040A00000230DF1440B1946CDF800B00F2238461D
:1040B00014940BF0E1F9119E169B26F001069D4227
:1040C00006F1FF3680F0D3800DF13C0A0DF1400976
:1040D0009DF85D400021FF2C03D02046FFF73CFFF8
:1040E00001462A4620465346FFF7D6FE9DF85D401E
:1040F0000546FF2C4FF0000103D02046FFF72CFFB0
:1041000001462A4620464B46FFF7C6FE9DF85D4015
:104110000546FF2C4FF0000103D02046FFF71CFF9F
:1041200001462A4620465B46FFF7B6FE00240546B8
:10413000214615F8012B02F07F038B401C43130628
:1041400001F10701F5D4129B0F9A1344B3421FD912
:10415000049BDB0700F19180049B1C0715D500F040
:10416000E5F910F008041CD018AA42F82C1D0092A2
:1041700044F0020419460C22384604940BF09EF9D0
:1041800077E7082019B0BDE8F08F404600F0D6FC74
:10419000109A1344B34200F28880169BAB4297D822
:1041A000D6E712AB009306930D22234621463846EC
:1041B000D8F820500BF060F9129B9D4202D00223E8
:1041C00004934CE718AB43F82C8D0093214623460B
:1041D0000C2238460BF072F9D8F830300393002BDC
:1041E000D3D0D8F828300DF13C0A1A46D8F82C3034
:1041F0000DF1400905931346002B1C46C0F228819F
:104200000325002318AA42F8288D19460092384643
:104210001A460BF053F9002301221946CDF800A0ED
:1042200038460F940BF04AF900230F221946CDF8B7
:10423000009038460BF020F90023109A039C02F0FE
:1042400001021443CDF80090384619460F2210940D
:104250000BF034F9022D05D0072019B0BDE8F08F1E
:1042600000241DE74046FFF711FD0720F0E6049B00
:10427000D9077FF571AF0DF14009002403940023A5
:104280000D221946CDF8009038460C9D0BF0F4F83D
:10429000059A109BC8F82C20039AC8E90954C8F85D
:1042A0003020C8F820300620D2E6119B002B3FF4C6
:1042B000C7AE139A9A180392002C00F0F180169B57
:1042C000013C2344002A3FF4BBAE002B00F0F980F0
:1042D000049A12F00802099200F0048147254E2446
:1042E0005520432146224F264FF0520C4FF0000E2E
:1042F00088F8005088F8014088F8020088F8031018
:1043000088F8042088F8056088F806C088F807E077
:104310000022CDE90A7A0792CDF8209000242146A8
:1043200000E02B461D4615F8010B00F07F028A4085
:10433000060644EA020401F10701F2D41F2905D858
:10434000400603D501228A40524214430026A1466A
:10435000314613F8010F00F07F028A40164302062F
:1043600001F10701F5D41F2905D8470603D501231C
:104370008B405B421E43002C4CD04EDC159B04F15D
:10438000010ACAEB8A7203EB820753F82210B8F1D4
:10439000000F01D0099B2BB151B3002E00F08A8091
:1043A000AB19BBE70C9B119329B990E057F8041F98
:1043B000002900F08C8039445B4600224046FFF71C
:1043C0000DFC0028F2D0E8E7E3005B42159A14994F
:1043D0001A44089BFFF760FD109949B1B8F1000F2E
:1043E000DBD00CAB00224046FFF7F8FB0028D4D00E
:1043F000049B4A46DDE90A7AD807DDF820903FF5AC
:104400003EAF099B002B3FF4F6AE002CBFF6F8AE92
:1044100000F09AF801230793BFE79DF85C00FF289E
:104420003AD000F00703042B69D801A252F823F018
:104430004B440000FF440000454400004B44000092
:10444000C943000063005B42C0E7A3005B42BDE7D5
:1044500001331D46DDE905123846FFF799FD9DF849
:104460005C00FF281AD03946FFF776FDC5EB857250
:10447000159D92001490AB58154433B12A46002381
:1044800052F8041F01330029FAD10422C8E90A3086
:10449000C8E90C250325B4E6002397E70020E5E7EB
:1044A000039B002B3FF4CCAD049BDA073FF5C8AD6E
:1044B0000225A6E6DDE90A7ADDE90739002B3FF49B
:1044C000BFAD049BDD073FF5BBAD0024F0E7049BC7
:1044D0005546DE070A9FDDF82CA0DDF820903FF559
:1044E000CEAEB7E798F80720012A0CBF58F8202C69
:1044F00008F158020C920BE7FFF732FC2FE600F0B0
:104500009DFB00BF08B5804700F098FBFFF728FC33
:1045100000F094FB0D460446FFF762FC013501D024
:10452000FFF756FB204600F019FB00BF08B5034B10
:104530001868BFF35B8FFFF7E5FF00BFBC010010F9
:1045400008B58047FFF7F2FF08B5034B1868BFF3C3
:104550005B8FFFF7F5FF00BFB8010010024B186832
:10456000BFF35B8F704700BFBC010010024B18689F
:10457000BFF35B8F704700BFB8010010012810B572
:104580001AD8BFF35B8FA1F1280353E8002F013A3B
:1045900043E800200028F8D1BFF35B8F5AB951F8E7
:1045A0001C3C01F158040BB1204698472046BDE859
:1045B0001040FFF7E9BA10BD51F8140CFFF7A2FF45
:1045C000F8B5002540E91E1240F8805C0446FFF76C
:1045D000CDFF44F8700CFFF7C1FF472143222B2386
:1045E0004E27552604F8581C0A4904F8515C04F873
:1045F000577C04F8566C44F8501C04F8552C04F809
:10460000542C04F8533C04F8523C44F86C0CA4F1CC
:104610008000F8BD7D450000F8B505460E461746FA
:10462000FFF736FC044643683A460133314663607F
:104630002846FFF7C5FF0123044644F8283B2046DF
:104640000BF0C8FA2046FFF78BFBFFF76FFF00BFA8
:1046500010B5FFF71DFCD0E900420132426064B1A1
:1046600094F82020472A0AD00022026020342046F5
:104670000BF0D4FA2046FFF773FBFFF757FF94F8CF
:1046800021204E2AF0D194F82220552AECD194F81A
:104690002320432AE8D194F82420432AE4D194F833
:1046A00025202B2AE0D194F826202B2ADCD194F85F
:1046B0002720012AD8D8626952426261D6E700BF3A
:1046C00010B50446024B036000F0BEF9204610BD51
:1046D000441C010010B50446044B036000F0B4F91B
:1046E00020460C21FFF7C0F9204610BD441C0100F4
:1046F00070B582B0069C0E469442054609D0A86863
:104700003146056806942C6AA44602B0BDE87040A4
:10471000604719460192009300F064F8DDE9003229
:104720000028ECD0062002B070BD00BF2DE9F04F8C
:10473000894681B01946DDE90A4ADDE90CB81D4613
:104740001646074600F04EF888B1B9F1000FC8F8D8
:10475000004088F804601BDB4C44A3450CBF0624D2
:10476000012488F80640002001B0BDE8F08F5C45C8
:1047700015D0B8682B460568CDE90CB8CDE90A4AD2
:10478000EC6932464946A44601B0BDE8F04F6047A7
:1047900019F1020FE7D1012388F80630E3E751460B
:1047A000384600F01FF80028E3D088F80560DAE703
:1047B0002DE9F04107460C4615461E4600F07EF9ED
:1047C00008B1BDE8F081B868334606682146B4698F
:1047D0002A46A446BDE8F041604700BF704700BFCD
:1047E0000020704781420FD008B5406803782A2B1B
:1047F0000CD049680B782A2B08BF013101F0F0FC7E
:10480000B0FA80F0400908BD01207047002008BDC3
:104810004068704710B5044643680C4A0C49A3F140
:104820000C00904282B0216005D12046FFF71CFBAE
:10483000204602B010BD53F8042C511E002A43F844
:10484000041CF2DC01A900F093F8EEE7F010001070
:10485000E41C010010B50446FFF7DCFF2046FDF71D
:1048600045FB204610BD00BF10B50446024B036057
:10487000FFF7D0FF204610BDF81C010010B504461C
:10488000044B0360FFF7C6FF2046FDF72FFB2046D1
:1048900010BD00BFF81C010010B50446024B0360B8
:1048A000FFF7B8FF204610BD0C1D010010B50446EF
:1048B000044B0360FFF7AEFF2046FDF717FB2046D1
:1048C00010BD00BF0C1D010010B5084B82B004469E
:1048D00001AA40F8043B00F07FF8204602B010BD6A
:1048E0002046FFF7C1FAFFF773F900BFE41C01008F
:1048F00010B50446FFF7E8FF014B2046236010BDCA
:10490000F81C010010B50446FFF7DEFF014B2046FE
:10491000236010BD0C1D0100134B10B598421FD829
:104920008842044614D94A00904238BF144604F124
:104930001D02B2F5805F04F10D000BD9A14209D22E
:1049400004F58054C2F30B02A41A9C4228BF1C46F3
:1049500004F10D00FDF7BAFA0022C0E9014210BDD2
:104960000248FEF741FE00BFFCFFFF3F441D01006F
:10497000FDF7BCBA884215D070B5054610B30C1AC5
:1049800020460021FFF7C8FF012C064600F10C036A
:1049900005D054B90D4A96420ED1184670BD2A78FA
:1049A0000273F7E70A4B1846704718462946224615
:1049B00001F0B8F80346EDE7002231193460B26027
:1049C0000A73EAE70348FEF7F7FD00BFF010001096
:1049D000FC100010181D010070B5054616460C4667
:1049E00061B1084601F0DAFC2118324620464FF04A
:1049F0000003FFF7BFFF2860284670BD4FF0FF316E
:104A0000F3E700BF70B500241026036884B0154694
:104A1000CDE9026412689E6900946B468DF80440EB
:104A2000B0479DF8043003F00603062B09BF0120B0
:104A30002046009B2B6004B070BD00BF00989042E0
:104A40000CBF06200120704710B50446024B0360DE
:104A5000FFF7C4FE204610BD941D010010B50446AA
:104A6000044B0360FFF7BAFE20460821FEF7FCFF67
:104A7000204610BD941D01002DE9F041069D0899C6
:104A800090468D421F460646099C0CD0394630465A
:104A9000FFF7A8FE20B10123256084F80480A371EC
:104AA0000020BDE8F0810799FFF79CFE0028EDD0BB
:104AB00084F805800020BDE8F08100BF38B51546B8
:104AC0001C46FFF78FFE20B1082206232560E26016
:104AD000237138BD2DE9F04117461C4606460D46A8
:104AE000FFF780FE08B9032C01D9BDE8F0812B68DF
:104AF0003A4631462846BDE8F0415B69184700BF99
:104B00000378472B01D00020704743784E2BFAD111
:104B10008378552BF7D1C378432BF4D10379432BFA
:104B2000F1D143792B2BEED183792B2BEBD1C079AB
:104B300001288CBF00200120704700BF10B530B1A4
:104B40000446FFF70DF92046FFF7DAFF08B9FFF733
:104B5000EDFC54F8140CFFF7D5FC00BF2DE9F04F25
:104B600085B00246FFF7CCFF60B1D2E90C7452F871
:104B7000188C104652F8145C966AFFF7F1F840461C
:104B8000FFF7DEFC1046FFF7EBF8FFF7DDFCFFF761
:104B9000E7F8FFF7CBFC4FF00008FFF7E1F8FFF76D
:104BA00073F9C14603680DF1100A93F8272027F026
:104BB000030B012A0CBF1A6803F17802203301931A
:104BC0004AF8082DB1451BDA276807B12744534638
:104BD000002239460198FFF701F8E8B93B6804AABA
:104BE0001B6942F8040D0093384601231049009FC9
:104BF000B847002818BF804609F101095C44E1E785
:104C0000B8F1000F10D00420FEF7A6FF094B0A4AA6
:104C100003600749FFF700FDFFF71AFDFFF7E0F813
:104C2000FFF7DEF8FEF7D4FF2846FFF76BFC00BF66
:104C3000781B0100FC1B01006D3E000008B506203A
:104C400001F06CFA0120FDF7C7F800BF0028B8BFDB
:104C5000404270470A22002101F0BCBC014B186899
:104C6000704700BFC001001070B5002948D005464C
:104C70000C4610B1836B002B48D0626EB4F90C3037
:104C8000D00740D4990530D52146284600F05CF87D
:104C9000E36A064633B1E169284698470028B8BF61
:104CA0004FF0FF36A3891A063CD4216B41B104F1C1
:104CB0004003994202D028460BF0B8F90023236341
:104CC000616C21B128460BF0B1F90023636400F058
:104CD000EDF90022636EA281DB071FD5A06D00F005
:104CE0001BFE00F0E9F9304670BDA06D00F016FE25
:104CF000B4F90C30002BC7D1666E16F0010616D041
:104D00000026304670BD002BFAD0BDE700F04CF90C
:104D1000626EB4F90C30D007F5D4B3E7A06D00F0A3
:104D2000FFFDDBE7216928460BF080F9BDE7A06DA8
:104D300000F0F6FD304670BD024B01461868FFF7E3
:104D400093BF00BFC0010010B1F90C302DE9F04154
:104D50009AB20C461107804644D4626843F400635B
:104D6000002AA3815ADDA56A002D54D000229BB2EF
:104D7000D8F80060E169C8F8002013F4805240F0D0
:104D8000848001234046A847431C4BD0A389A56AD1
:104D9000E1695F0705D56268236B801A0BB1E36B8D
:104DA000C01A024600234046A847451C46D00021B1
:104DB000B4F90C30226923F40063A381DB04C4E955
:104DC000002100D52065216BC8F8006019B304F1FB
:104DD0004003994202D040460BF028F9002020639E
:104DE000BDE8F0812669B6B1920718BF0023256897
:104DF00008BF63692660AD1BA3600AE02B463246FC
:104E0000676AE1694046B8470028A5EB00050644FB
:104E10002BDD002DF2DC0020BDE8F081E26B002AE2
:104E2000A1DCF8E7D8F80030002BAFD01D2B01D063
:104E3000162B2CD1C8F800600020EDE7D8F8005000
:104E40001D2D1AD8144BB4F90C20EB40DB4313F0A2
:104E5000010314D1216922F40062C4E90013D104D2
:104E6000A281B0D5002DAED1ACE7A3894FF0FF30C1
:104E700043F04003A381BDE8F081B4F90C2042F077
:104E80004002A2814FF0FF30C6E7206D81E7A38981
:104E900043F04003A381BFE70100402038B50D4631
:104EA000044608B1836BA3B1B5F90C00B8B16B6EC1
:104EB000DB0701D481051AD520462946FFF744FFB8
:104EC0006B6E0446DA0702D4AB899B050AD52046EF
:104ED00038BD00F069F8B5F90C000028E7D10446A8
:104EE000204638BDA86D00F01BFD204638BDA86DDA
:104EF00000F014FDE0E700BF20B1054B0146186843
:104F0000FFF7CCBF034B0449186800F0B7BC00BFE3
:104F1000C0010010B81D01009D4E0000002310B517
:104F200004468181C281C0E9003383604366C0E9E1
:104F300004338361194608225C3000F0CBFE074839
:104F40000749084A084BC4E90740C4E90912E3626B
:104F500004F15800BDE8104000F0DCBC59610000CD
:104F60007D610000B9610000D9610000014900F0D5
:104F700085BC00BF694C000070B568254A1E05FB62
:104F800002F50E4605F174010BF04CF8044640B1F1
:104F900000210C30666005F168022160A06000F01D
:104FA00099FE204670BD00BF10B50446144800F0BD
:104FB000B5FCA26BFAB90320124904F53B73C4F89F
:104FC000E832C4F8E022C4F8E402E1636068042136
:104FD000FFF7A4FFA06801220921FFF79FFFE06807
:104FE00002221221FFF79AFF01230548A363BDE8BF
:104FF000104000F095BC0248BDE8104000F090BCA5
:10500000481100106D4F000070B50646244800F0AE
:1050100085FC244B1D68AB6B83B305F53875D5E96A
:105020000134013B05D525E0013B5A1C04F168041D
:1050300020D0B4F90C20002AF6D100251A4B04F137
:105040005800E360656600F065FC154800F068FCF8
:105050002560C4E90155C4E90455A5612946082223
:1050600004F15C0000F036FEC4E90C55C4E91155AA
:10507000204670BD2C682CB12546D0E72846FFF7A6
:1050800093FFCAE704213046FFF776FF0446286005
:105090000028F1D1024800F043FC0C233360E7E71D
:1050A0005C110010B81D01000100FFFF014800F075
:1050B00035BC00BF5C110010014800F031BC00BFDE
:1050C0005C1100101346F0B583B00F4601AA1946D3
:1050D000064604F055FE002836D005463046FFF758
:1050E00093FF044600282FD039464FF4DB73019A12
:1050F000304600F039FE071E30DB636EDB0715D546
:105100001C4B1D491D4AC4E907431D4BC4E9091244
:10511000E905E781A581E3620FD4636EDA0702D463
:10512000A3899B0514D5204603B0F0BDA38998053B
:10513000E6D4A06D00F0F2FBE2E730460223002245
:10514000214600F053F8E8E70024204603B0F0BD04
:10515000A06D00F0E5FB204603B0F0BD0025FFF791
:10516000A5FFA581A06D00F0D7FB2C46FFF7A4FF9B
:10517000D9E700BF596100007D610000B9610000FE
:10518000D9610000024B0A4601461868FFF79ABF32
:10519000C0010010144B70B51D6806460C460DB1D9
:1051A000AB6B9BB1636ED80702D4A389990516D562
:1051B00028462246314600F0EDFD636E0546DA07CB
:1051C00002D4A3899B0505D5284670BD2846FFF764
:1051D000EBFEE7E7A06D00F0A3FB284670BDA06DD5
:1051E00000F09CFBE4E700BFC001001000F000B835
:1051F0002DE9F04F0C4697B091461F46064618B170
:10520000836B002B00F09480626EA389D20702D4D6
:105210009D0540F1A68003F48473B3F5847F00F00C
:105220009B80D4F82880B8F1000F00F08480012F13
:1052300013D0022F00F08B80002F00F08880162200
:10524000636E3260D90702D4A3899A057BD54FF0EB
:10525000FF35284617B0BDE8F08F21463046FFF7EE
:105260001DFEA38913F4805240F03781E1693B466B
:105270003046C047411C054600F0E280A3895F0725
:10528000226940F1EE80D4F804E0236BA5EB0E0513
:105290001BB1D4F83CC0A5EB0C054FF0010A002768
:1052A000A944002A00F0E78040F61A01B4F90C3056
:1052B0009AB20A4208D1520565D4964A904500F048
:1052C000FD8043F40063A38121463046FFF7E6FDED
:1052D000002840F0C1803B464A46E1693046C0475D
:1052E000013000F0B980216B41B104F140039942D3
:1052F00002D030460AF09AFE00232363002122697F
:10530000A389C4E90021082223F40263A38104F1E4
:105310005C0000F0DFFC656E15F0010503D1A38988
:105320009B0540F195800025284617B0BDE8F08F19
:10533000FFF73AFE68E71D22636E3260D80786D415
:10534000A3899A0583D4A06D00F0EAFA7FE74FF0B5
:10535000000A22695546A4E721463046FFF79EFD24
:105360005FE7A06D00F0DAFAA38954E7019AB4F977
:105370000C3002F47042B2F5004FA2D14FF48062BB
:105380001343A381E264002F40F08B80CB46BAF137
:10539000000F75D1A389DB0400F1818052460123FF
:1053A000E1693046C047451C8ED0D4F804E0216B3B
:1053B000A0EB0E05734600296AD0D4F83CC0A5EBDB
:1053C0000C05A36B206975441B1AED1A6344AB45A9
:1053D00080F28580E26C0023524202EA0B052A46E5
:1053E000E1693046C04701303FF46EAF00222369C7
:1053F000216B6260236041B104F14003994202D005
:1054000030460AF013FE00232363A389BBEB050B90
:1054100023F02003A38110D02146304600F0FCFC8D
:1054200000287FF451AF63685B45FFF44DAF2268FD
:10543000A3EB0B035A44C4E900230822002166E7CA
:10544000636EDA073FF503AFA3899B053FF5FFAE17
:10545000A06D00F065FAFCE6636ED9077FF5F4AE47
:10546000F5E618077FF519AF2368002B3FF415AF59
:105470009B1A1D4411E72146304600F081FA13E7DC
:10548000216B21B1D4F804E0D4F83CC099E76368FB
:10549000226820690021121AAD1A134497E7206D83
:1054A00083E76A46B4F90E10304600F035F800285C
:1054B0007FF40AAF049B09EB030B68E7B4F90E1005
:1054C0000029FFF6FEAE6A46304600F025F80028B7
:1054D0003FF44CAFB4F90C30F3E6256DCFE6EA1893
:1054E0005A457FF677AFABEB050528445B1BC4E953
:1054F000000341B104F14003994202D030460AF062
:1055000095FD00232363A389082223F02003A381B0
:1055100094E700BFB961000070B50D460023074C49
:105520000646114628462360FCF702FC431C00D0C7
:1055300070BD2368002BFBD0336070BD601100107C
:105540009368002B00F0DB802DE9F04FB1F90C30AF
:105550000C469BB2190783B0824690462BD5226930
:105560004AB313F00202D8F8006033D000273D465A
:10557000D4F824B0E169DFF8B892C5B14D452B46A7
:105580003A4628BF4B465046D847002840F3BF80D4
:10559000D8F8083007441B1A2D1AC8F80830002B19
:1055A00000F0A980D4F824B0E169002DE6D1D6E955
:1055B00000750836E1E72146504603F0BDFB0028A0
:1055C00040F03081B4F90C30D8F800609BB213F091
:1055D0000202CBD113F001095ED14D46A7682068C5
:1055E000002D55D09A0540F19C80AF42BB4600F299
:1055F000DE8013F4906F2FD0D4E9041707EB470730
:10560000A0EB010B07EBD777681C7F105844B8421A
:105610003A4684BF07463A465B0540F1D9801146B9
:1056200050460AF0FFFC002800F0F6805A46216937
:10563000019000F077FAA289019B22F4906242F077
:105640008002A281A7EB0B0203EB0B006761AB4664
:105650002F4623612060A2605A46494600F0D8FADE
:105660002368A2685B44AB460025D71BA760236074
:10567000D8F80870D944A7EB0B07C8F80870002FBA
:1056800039D0B4F90C30A7689BB22068002DA9D19D
:10569000D6E900950836A3E73346914610461746EB
:1056A0004E469B46002F6ED0002876D02068216998
:1056B000B9454B4628BF3B468842626903D9A56875
:1056C0001544AB4276DC9A4200F398801346656A33
:1056D0003246E1695046A847051E18DDB9EB0509B9
:1056E0000FD00120D8F808302E445B1B7F1BC8F870
:1056F0000830002BD6D1002003B0BDE8F08F002089
:10570000704721465046FFF7C9FB0028EAD0B4F99C
:105710000C304FF0FF3043F04003A38103B0BDE8ED
:10572000F08F2369834217D36269AA4214D83F4B92
:10573000676A9D4294BF2B466FF0004393FBF2F3E0
:10574000E16902FB03F350464A46B847B0F1000B4B
:10575000DDDDA5EB0B058BE7AF4228BF2F464946A1
:105760003A4600F055FAA3682268DB1B3A44BB4670
:10577000A3602260002BECD121465046FFF78EFB40
:105780000028E6D0C3E70BF1080353F8047C9B46DE
:1057900053F8086C0833002FF7D03A460A213046F8
:1057A00000F048F938B30130A0EB06097EE72F4638
:1057B000AB4651E731462A4600F02AFA23682146D3
:1057C0002B4423605046FFF769FB002886D09EE7F4
:1057D00050460AF029FC034600287FF433AF2169C4
:1057E00050460AF023FC0C22B4F90C30CAF8002011
:1057F00023F080038DE707F1010957E71A46314688
:105800001D46019300F004FAA1682268019BC91AA1
:105810001344A160236061E70C22B4F90C30CAF88C
:10582000002076E74FF0FF3066E700BFFEFFFF7F06
:1058300000FCFF7F2DE9F04110F538771AD088463B
:105840000026D7E90154013D0ED4A389013D012B67
:1058500006D9B4F90E30013302D02046C0470643C2
:105860006B1C04F16804F0D13F68002FE9D1304689
:10587000BDE8F0813E463046BDE8F0812DE9F843B1
:1058800010F538761ED0884607464FF00009D6E955
:105890000154013D10D4A389013D012B08D9B4F96D
:1058A0000E30013304D021463846C04749EA00098A
:1058B0006B1C04F16804EED13668002EE7D148462F
:1058C000BDE8F883B1464846BDE8F88370B50D4E93
:1058D0000D4D761BB61006D00024013455F8043B5C
:1058E0009847A642F9D1094E094D0BF07BF9761B7A
:1058F000B61006D00024013455F8043B9847A64260
:10590000F9D170BD6C0B00106C0B0010780B0010FF
:105910006C0B0010704700BF704700BF704700BF9E
:10592000704700BF70B50C46B1F90E1096B0002953
:1059300015461E460FDA0023A289336012F080005C
:1059400004D14FF480632B6016B070BD402218461E
:105950002A6016B070BD6A46FFF7DEFD0028EADB5C
:10596000019B4FF4806203F47043A3F50053B3FA34
:1059700083F34FF400605B0933602A6016B070BD9A
:105980008A890B46920706D5012103F1430259612A
:105990001A601A61704770B582B001AB6A460C4656
:1059A0000546FFF7BFFF0099064628460AF03AFB76
:1059B000B4F90C30D8B1164A0099EA63019A43F061
:1059C0008003A3812060C4E904011AB93343A38191
:1059D00002B070BD2846B4F90E1004F0E3FAA0B18D
:1059E000A38923F0030343F001031BB2EEE79A05FA
:1059F000EED4012123F0030304F1430243F0020338
:105A0000A381616122602261E2E7B4F90C30DDE735
:105A10006D4F0000024B014618680AF003BB00BF3F
:105A2000C0010010024B014618680AF0FFBA00BF1F
:105A3000C0010010830770B4CDB23DD0541E0AB32C
:105A40000378AB421FD0431C05E014F1FF3419D397
:105A50000278AA4217D013F0030F184603F101038E
:105A6000F3D1032C11D84CB30378AB420BD00444D0
:105A7000431C02E00278AA4205D09C42184603F17A
:105A80000103F7D1002070BC704706460A0292B2AB
:105A90002A4342EA0242336830465340A3F10131BF
:105AA00021EA030313F0803F06F10406DCD1043C35
:105AB000032C3046EFD8D6E71446D2E72046E2E77B
:105AC000032A70B414D940EA0105AD0704460B4619
:105AD00022D11D6826681946AE42204603F1040310
:105AE00004F1040418D1043A032A20461946F0D8D8
:105AF000541E72B102780B789A4208BF641806D01F
:105B00000CE010F8012F11F8013F9A4206D1A14292
:105B1000F7D1002070BC7047541EEBE7D01A70BC60
:105B2000704700BF844641EA000313F0030349D1E4
:105B3000403A23D30B6803604B6843608B688360F3
:105B4000CB68C3600B6903614B6943618B698361F7
:105B5000CB69C3610B6A03624B6A43628B6A8362DF
:105B6000CB6AC3620B6B03634B6B43638B6B8363C7
:105B7000CB6BC36340304031403ADBD230320BD381
:105B80000B6803604B6843608B688360CB68C360BD
:105B900010301031103AF3D20C3205D351F8043BD7
:105BA00040F8043B043AF9D2043208D0D2071CBFB3
:105BB00011F8013B00F8013B01D30B8803806046DC
:105BC000704700BF082A13D38B07B1D010F003032E
:105BD000AED0C3F10403D21ADB071CBF11F8013B9E
:105BE00000F8013BA4D331F8023B20F8023B9FE7C9
:105BF000043AD9D3013A11F8013B00F8013BF9D23C
:105C00000B7803704B7843708B78837060467047D5
:105C10008842F0B40DD98B1883420AD9841832B166
:105C2000224613F8014D994202F8014DF9D1F0BC1A
:105C300070470F2A48D940EA01039B0746D1A2F1D9
:105C400010031B0901F1200707EB031701F11004F2
:105C500000F1100554F8106C103445F8106C54F82D
:105C60001C6C103545F81C6C54F8186C45F8186C11
:105C700054F8146CBC4245F8146CEBD1013302F0BB
:105C80000F051B01032D1944034421D90F462C464F
:105C90001E1F57F804CB043C032C46F804CFF8D859
:105CA0002C1F24F0030404342344214402F0030293
:105CB000002ABCD0013B0A4411F8014B914203F881
