:10000000E07F001021D1000051D1000053D1000049
:1000100055D1000057D1000059D100000000000068
:10002000000000000000000000000000B5270000F4
:100030005DD10000000000001F28000055280000CE
:1000400063D1000063D1000063D1000063D10000E0
:1000500063D1000063D1000063D1000063D10000D0
:1000600063D1000063D1000063D1000063D10000C0
:1000700063D1000063D1000063D1000063D10000B0
:1000800063D1000063D1000063D1000063D10000A0
:1000900063D1000063D1000063D1000063D1000090
:1000A00063D1000063D1000063D1000063D1000080
:1000B000B1A1000063D1000063D1000063D1000052
:1000C00063D1000063D1000063D100000000000094
:1000D0000000000000000000000000000000000020
:1000E0000000000000000000000000000000000010
:1000F0000000000000000000000000000000000000
:1001000000000000000000000000000000000000EF
:1002F00000000000000000000000000010B5054CE8
:10030000237833B9044B13B10448AFF300800123C1
:10031000237010BDC00A0010000000000CCA0100CC
:1003200008B5034B1BB103490348AFF3008008BD78
:1003300000000000C40A00100CCA0100154B002B7D
:1003400008BF134B9D46A3F5803A00218B460F460C
:100350001348144A121A10F01DFB0F4B002B00D04B
:1003600098470E4B002B00D0984700200021040036
:100370000D000D48002802D00C480CF0CCF90FF00D
:1003800087FE200029000CF0BFFA0CF0C1F900BF75
:1003900000000800E07F001000000000F9C8000025
:1003A000C00A0010F425001017C70000000000006C
:1003B0007047036818470B68036070477047000078
:1003C000036810B50133044604D12C2205490648C0
:1003D0000DF064F963691A6863681A4214BF01205A
:1003E000002010BD96B50100DFB5010038B50368E7
:1003F000044601330D4604D12422054905480DF079
:100400004DF9636815B1E268136038BD2269FBE7F6
:1004100096B50100DFB5010010B504460CF0AAF94D
:10042000204610BD10B50446074B303003F12002C2
:1004300040F8303C7C33026043600DF0F9FC20460C
:100440000DF068FB204610BDCCC30100A0F13000C8
:10045000E8E7A0F13400E5E710B508480DF08AF9A7
:1004600004460748FFF7ACFF064B84421A680CBFEE
:10047000013202F1FF321A6010BD00BFE00B001024
:10048000280C0010100D001010B508480DF072F97E
:1004900004460748FFF794FF064B84421A680CBFD6
:1004A000013202F1FF321A6010BD00BF800B001054
:1004B000C80B00100C0D001038B504460D4618226C
:1004C000002110F067FA204629460CF0B0FF2046C4
:1004D00038BD38B504460D461822002110F05AFAEE
:1004E000204629460CF0BDFF204638BD0378BBB13D
:1004F0004268104B1A60C2680F4B1A60426A0F4B79
:100500001A60C26A0E4B1A6042690E4B1A60C269C9
:100510000D4B1A60426C0D4B1A60C26C0C4B1A608A
:1005200090F830302BB1426B0A4B1A60C26B0A4B09
:100530001A607047040B0010080B0010DC0A001052
:10054000E00A0010EC0A0010F00A0010F40A001093
:10055000F80A0010480B00104C0B00100021014855
:100560000DF078BCF00C0010002208B50B4B0C49C4
:100570001A6000230B600B490B600B490A600B49A2
:100580000A600B4A13600B4A1360FFF7E7FFBDE8F0
:10059000084001210848FFF729BF00BFCC00001028
:1005A000480B00104C0B0010FC0A0010000B001050
:1005B000400C0010440C0010500B001013B5084CF8
:1005C000ADF80400C0F3072120460DF043FC20469F
:1005D0009DF80410803102B0BDE810400DF03ABC27
:1005E000F00C0010000000002DE9F04FB04889B079
:1005F0000CF0C6FEAF4CB04D2368C01A1AF088FB51
:10060000AE491AF08DFC2860A9480CF0ADFEAC494B
:100610001AF084FD20B1A6480CF0BBFE0023236035
:10062000A3480CF0ADFE2D682060284619F016FF97
:1006300080468946DFF8E8B2DFF8E8A2DBF8004040
:10064000A04F204619F0F8FE95A3D3E9002319F036
:100650005DFF42464B461AF083F81AF04FFA044603
:100660003860DAF8000019F0E7FE8DA3D3E9002323
:1006700019F04CFF42464B461AF072F81AF03EFA57
:100680000023CBF80030CAF800308F4B8F4E1A6829
:10069000804621463060104603921AF083FA8C4A55
:1006A000DFF884B2136841460090CBF8000018468A
:1006B00004931AF077FA874A21461060864A01901F
:1006C00010681AF06FFA4FF07D511AF075FB294649
:1006D0001AF026FC814C81464FF07A5120681AF0BE
:1006E0006BFB014648461AF05FFA7D4A206041469E
:1006F000029010681AF056FA4FF07D511AF05CFB28
:1007000029461AF00DFC774C80464FF07A5120684C
:100710001AF052FB014640461AF046FA029B724A12
:1007200020601360714ADFF80492106000998246DD
:1007300028461AF041FBD9F800101AF035FADFF814
:10074000F0810446019928461AF036FBD8F80010CB
:100750001AF02AFA6649054620461AF0E9FC5A4B77
:100760000593002800F01B81624920461AF0C2FC64
:1007700000B9604CC9F800405D4928461AF0D8FC21
:10078000002800F00E815B4928461AF0B3FC00B93E
:10079000584D594BC8F80050196801981AF00CFBD5
:1007A000564B8046196850461AF006FB01464046F3
:1007B0001AF0FAF9524B8046196828461AF0FCFAEA
:1007C000014640461AF0F0F94E4B05461968049868
:1007D0001AF0F2FA4C4B8046196800981AF0ECFABD
:1007E0004A4B8146196802981AF0E6FA01464846D3
:1007F0001AF0DAF9464B8146196820461AF0DCFAFD
:10080000014648461AF0D0F9424B0446196803984D
:100810001AF0D2FA014620461AF0C6F919F01EFE67
:100820000DF0B8FB1AF022F93B4C404220604146E3
:1008300028461AF0B9F919F011FE0DF0ABFB1AF0C9
:1008400015F9236813F13E0FC0F2AD803F2BA8BF0E
:100850003F2340333E28236000F3A88010F13E0F71
:10086000C0F2A78040422D4D40302860386820F00B
:10087000004019F0F3FD0CA3D3E900231AF0B8F8F7
:10088000002859D0059B186820F0004019F0E6FDBB
:1008900005A3D3E900231AF0ABF800284CD049E0B7
:1008A000B39DEFA7C64B473F7B14AE47E17AC43FE9
:1008B000180D0010540C0010440B001000007A4476
:1008C0000080D4440C0B0010480B0010100B0010DB
:1008D0004C0B0010E80A0010140B0010580C00100C
:1008E000180B00105C0C00103C0B0010400B0010AB
:1008F00000007FC300007F43080B0010E00A0010D7
:10090000F00A0010F80A0010040B0010DC0A0010B6
:10091000EC0A0010F40A0010FC0A0010000B001092
:100920000C0D0010100D0010E40A0010400C001017
:10093000440C001040232360306820F0004019F080
:100940008DFD1DA3D3E900231AF052F868B11C4BAA
:10095000186820F0004019F081FD17A3D3E90023A7
:100960001AF046F808B140232B6023688DF81C303C
:100970002B688DF81D300798FFF720FEDBF800206C
:10098000104B1A60104B1A68104B1A603A68104BE3
:100990001A6032680F4B1A6009B0BDE8F08F0E4C38
:1009A000E8E60D4DF5E66FF03E0352E76FF03E00CE
:1009B00059E73F2057E700BF7B14AE47E17AC43FB9
:1009C0004C0B00104C0C0010E80A0010500C0010EA
:1009D000140B0010180B001000007FC3C36810B583
:1009E00004460BB19B689847204610BD034653F858
:1009F000042B10B5044612B90360206810BD9A425A
:100A0000FBD05B22024903480CF048FEF5E700BF2B
:100A100058B5010082B5010008B50248FFF7E6FFAE
:100A200008BD00BF6C1A001008B50248FFF7DEFFD2
:100A300008BD00BF6C1A001030B5DFB06022002185
:100A4000054606A80FF0A6FF4FF480721EA901A864
:100A50000AF092F901238DF818308DF820308DF8C6
:100A600028308DF830308DF838308DF840308DF8E2
:100A700048308DF850308DF858308DF860308DF852
:100A800068308DF86A308DF87030314B31481B6812
:100A90000793314B1B680993304B1B680B93304B0A
:100AA0001B680D932F4B1B680F932F4B1B681193E3
:100AB0002E4B1B6813932E4B1B6815932D4B1B68F5
:100AC0001793FFF793FF2C480BF0E2FA04462148F6
:100AD000FFF78CFF204619F0C1FC1BA3D3E90023CC
:100AE00019F014FD0022254B19F010FD0022244BB3
:100AF00019F036FE1AF002F8224B19901B6806AA6C
:100B0000003318BF01238DF869301F4B1F491B6844
:100B100001A81B931E4B1B681D930AF055FB04464E
:100B200050B905991B4B1C48002908BF19460FF006
:100B300097FF20465FB030BD049A1EA928460AF0F0
:100B400072F8F6E7AFF300806666666666660A408E
:100B5000040B00106C1A0010080B0010EC0A0010B7
:100B6000F00A0010DC0A0010E00A00100C0B001064
:100B7000100B0010440B0010200B001000488040A8
:100B800000804940CC000010F40A0010FCB90100BC
:100B9000F80A00103CB5010043B501002DE9F04F03
:100BA0007048E9B00FF05CFF00226F48114609F071
:100BB000D1FC4FF47A7009F0F3FC09F013FD014603
:100BC0006A480FF04DFF684609F0B6FF07216846F6
:100BD00009F0B8FF0121684609F0DBFF01216448F4
:100BE000FFF704FC1022002128A80FF0D3FE614C6F
:100BF000614B28A9614828932B940CF0EEFD28A89E
:100C0000FFF7ECFE1022002128A80FF0C3FE5C4B7A
:100C100028A95C4828932B940CF0DFFD28A8FFF747
:100C2000DDFE4FF07C500DF043F800215048FFF7F7
:100C3000DDFB55480CF0ADFB53480CF053FB07A807
:100C400009F0E4FF002400264FF080474F4D504844
:100C50000FF006FF07A9684609F0ADFF4D480FF0F9
:100C6000FFFE3222002107A809F0BBFE0AA809F006
:100C700056FF014648480FF0F3FE484B01229A46C2
:100C80001A60FF2228A907A809F0FCFFB0F10008AC
:100C900003DA0A200DF018F8F3E709D140480FF005
:100CA000DFFEFFF761FC012107A809F0F8FECEE79F
:100CB000502200210DEB02000FF06CFE424628A9E5
:100CC00003A80AF091FC14AA364903A80BF04EF8C9
:100CD000A0B90699344B3548002908BF19460FF0D2
:100CE000BFFE0AA809F00AFF07A809F0ECFE684653
:100CF00009F0E9FE012069B0BDE8F08F14A8FFF704
:100D0000F5FB21480CF03CFB22462B468346394636
:100D100030460DF087F980468946584619F08CFB1D
:100D200042464B4619F082FE28B117480CF031FBC1
:100D300000221F4B1A601F48FFF742FB48B9FFF71C
:100D400013FCFFF751FC07A8FFF776FE002898D1A7
:100D5000C7E7012300211848CAF80030FFF746FB17
:100D6000EFE700BFF7B501001AB6010027B6010092
:100D7000600C001030B5010089040000800B0010E9
:100D800059040000E00B0010180D00100000344062
:100D900042B6010062B6010078B60100CC00001036
:100DA0008EB6010085B901003CB50100A8B601006E
:100DB000480C0010680B0010500B001010B50446D2
:100DC000FFF730FB20460BF0D5FC204610BDA0F10C
:100DD0003000F3E7A0F13400F0E70000F8B5344D3F
:100DE000344C28460CF0E6FA2846334D2246334967
:100DF0000BF08CFC4FF416534FF0FF32304928466D
:100E00000CF0C6FD22462F4928460BF07FFC2E49E8
:100E10002E48FFF75EFB2E492E48FFF75AFB2E495E
:100E20002E48FFF756FB2E492E48FFF752FB2E495E
:100E30002E48FFF74EFB2E4D2E492F48FFF749FB5A
:100E40002E4E2F492F48FFF737FB2F4928460CF02D
:100E500063FC2246314628462C4D0BF057FC2C49AA
:100E60002C48FFF729FB2C4928460CF055FC31464D
:100E70002A4E2846354622460BF048FC2849294888
:100E8000FFF71AFB284F294B384645F8043BFFF77C
:100E9000ADFD274928460BF0B5F83846FFF7A6FD0B
:100EA00022463046BDE8F84022490BF02FBC00BF77
:100EB000180D0010C8000010C00C0010C5D20000B2
:100EC0000FC009202504000032C00920600C00106A
:100ED00034C00920780C001035C00920900C001097
:100EE00037C00920A80C001006C00920240B0010F0
:100EF000800B001012C00920500B00107DD700009D
:100F000017C00920680B001042C00920E00B001038
:100F100043C00920C80B001040C009201C0B001062
:100F200041C00920280C00106C1A001020B50100E7
:100F30003EC00920B1030000002ABBBF22F00042DE
:100F40000732033222F00702A8BF22F0030210B5D5
:100F5000B4BF10230C2392B1D4188C420FD8014493
:100F600003445442C0E901120360214498188142AD
:100F700002D300510346F9E70020186010BD01209C
:100F8000FCE7EFF3108272B6036802F001020BB1C6
:100F90001968016002B962B61846704781420DD3E4
:100FA00043688B420AD9EFF3108372B602680A6075
:100FB000016013F0010003D162B670470120704751
:100FC0000020704702230370002341804360704774
:100FD000F8B504460126134F65689DB9114843686A
:100FE0006BB1114E9A7831688B789A4207D901F02B
:100FF0009EFC0122336828465A7000F097FE0020BC
:101000002070F8BD204601F0AAFC0546002101F041
:1010100087FC284601F04CFD6E702946384601F0E9
:1010200086FCD9E700250010EC1A0010426810B5C4
:101030006AB101F094FC0446012101F071FC2046E4
:1010400001F036FD204600F071FE002010BD428800
:1010500001324280F9E70000428810B50C461AB10F
:10106000013A4280002010BD49B1084A1168426827
:101070003AB101F05CFC0721204600F079FE012026
:10108000F1E74160C1E90120F5E700BFEC1A00106B
:1010900008B5002101F01EFDBDE8084000F090BD3C
:1010A000426810B57AB101F05AFC044601F000FD27
:1010B00001212046617001F033FC2146BDE810405B
:1010C000034801F034BC42880132428010BD00BFA9
:1010D0000025001030B500240A4A136843B90360A4
:1010E000816013B19D68691A996044B1206030BD78
:1010F0009D688D42F3D81C46491B1B68EEE71060C3
:10110000F5E700BFE01A001000210C4A136813B97C
:101110004FF0FF30704783420BD019461B68F6E74B
:101120000B6003681BB19A6881680A449A600020CA
:10113000704703680029F3D11360F2E7E01A00104A
:10114000C0B1431C11D00C4B984211D84FF47A71A6
:101150000A4B1B685A1E01FB0020B0FBF3F34FF64D
:10116000FE70834206D898B270474FF6FF70704702
:101170004FF6FE70704700BF00093D00CCB601007D
:1011800038B1830704D10378002B18BF00207047C3
:101190000020704738B50D4D2878A8B90C4C23684D
:1011A00093F8241000F006FE2368DA78FF2A03D1B2
:1011B000DA6A203282F3098862680AB9C4E9002336
:1011C00000F0A2FF01232B70002038BDDD1A0010B3
:1011D000EC1A0010014B1878704700BFDD1A0010A0
:1011E00010B5EFF3108434B9EFF305841CB9EFF3B5
:1011F0001484E40702D4034B187810BDDFF808C04C
:1012000000DFFAE7DD1A0010D511000010B588B034
:10121000EFF31083002B35D1EFF30583002B31D191
:10122000FFF7DEFF28B9184C246814B1646804B1D4
:10123000A047EFF3148404F00304022C16D0032C0F
:101240001AD0012C1CD008AC84F309880F4C2478E8
:10125000E4070FD5022484F31488BFF34F8FBFF344
:101260006F8FDFF82CC000DF08B010BD074C24786A
:10127000E407F6D40324EEE7044C2478E407F0D521
:10128000FF20F1E78220EFE730250010FAB60100D9
:101290009511000070B50B461646024610B90024A1
:1012A000204670BD00680028F9D0B2F90440E51C62
:1012B000ADB2062DF3D8D168C1B11269043444EA45
:1012C000012100F0B5FD0028E9D00A4B013853F8A0
:1012D0002040094AE36A5A63084B1B6843B19B6884
:1012E00033B13146E0789847E063D9E70A46E5E74D
:1012F000E663D5E7481D00109D160000302500105C
:1013000008B500F04FFD18B1024B013853F820002A
:1013100008BD00BF481D001010B5FFF731FF04469F
:1013200070B1084B1B681BB1DB680BB1C06B9847F1
:10133000E07800F0CDFDFF2814BF0020812010BD13
:101340008020FCE73025001008B520B1FFF7F8FE3B
:1013500000F032FC402008BD10B5EFF3108434B922
:10136000EFF305841CB9DFF80CC000DF10BD82204C
:10137000FCE700004913000010B5044688B100687E
:1013800070B1606860B101290BD8074B1B6843B18D
:10139000037933B903600123C0E904240371417167
:1013A00010BD0020FCE700BFFC240010F8B5830747
:1013B000044625D120B329B3134B4FF47A701A6831
:1013C000002312F1FF3643F1FF37E0FB016730469F
:1013D000394619F0DDFE23790546012B07D0022B93
:1013E00003D12046FFF790FE20B1812007E00223C1
:1013F000E060237120462946FFF76CFE0020F8BD0F
:101400008020FCE78620FAE7CCB60100830705D1EF
:1014100038B1436901691B681846704700231946B3
:10142000FAE70346FBE70000F0B507460E4615460F
:10143000EFF31084B4B9EFF3058CBCF1000F13D1B6
:10144000EFF31484E40706D4084C24781CB9BDE8F3
:10145000F040FFF791BF384631462A46DFF810C00A
:1014600000DFF0BD0020FCE72046FAE7DD1A00109F
:101470007913000010B5EFF3108434B9EFF305844D
:101480001CB9DFF80CC000DF10BD8220FCE70000B3
:10149000AD13000010B504460846DFF80CC000DFAD
:1014A000C4E90001204610BD0D14000010B50A4625
:1014B000FFF766FE48B10B0C1B0433B9048BC178EF
:1014C00090B200F085FE204610BD4FF00044FAE7D0
:1014D000030C1B042DE9F04180460C4663BB084613
:1014E000FFF72EFE0146B8F1000F08D001221FFAC7
:1014F00088F000F04FFE02280DD108240DE042468E
:101500004FF6FF7000F046FE022804D10D4B1B6819
:10151000B3F81A80F1E75CB9A046002001464546C1
:101520000E460F462046294632463B46BDE8F0812E
:101530004FF000084024F0E7002586242E462F4671
:10154000F0E700BFEC1A001010B50A46FFF718FECE
:1015500048B10B0C1B0433B9048BC17890B200F076
:1015600063FE204610BD4FF00044FAE770B5044614
:101570000D46EFF3108616B9EFF305862EB1294616
:101580002046BDE87040FFF7DFBFDFF808C000DF8E
:1015900070BD0000AD14000030B504460846114689
:1015A000EFF3108515B9EFF305851DB18223236094
:1015B000204630BDDFF80CC000DFC4E90001A260A6
:1015C000F6E70000D114000010B540B1046824B162
:1015D000237823B9204600F0BBFF204610BD00242D
:1015E000FBE770B510F0030405460E4611D180B13B
:1015F0000378032B0DD10846FFF7A2FD01462846CC
:1016000001F01EF8012806D1002E14BFC120812050
:1016100070BD8020FCE72046FAE7820708B50AD1B2
:1016200048B10378032B06D100F09AFFFF2814BFBE
:101630000020812008BD8020FCE7000070B5054631
:10164000EFF3108494B9EFF305868EB9EFF31484A9
:10165000E40706D4074C24781CB9BDE87040FFF7B6
:10166000B3BF2846DFF810C000DF70BD0020FCE7E4
:101670002046FAE7DD1A0010C915000010B5EFF397
:10168000108434B9EFF305841CB9DFF80CC000DF17
:1016900010BD8220FCE70000E3150000084808B5F3
:1016A0004FF0FF310068FFF7E9FFDFF818C000DFF7
:1016B000044601F025F82046DFF80CC000DFFEE705
:1016C000D81A0010011300001913000010B5EFF331
:1016D000108434B9EFF305841CB9DFF80CC000DFC7
:1016E00010BD8220FCE700001B1600002DE9F04130
:1016F00080460F461646EFF3108404BBEFF30583D4
:10170000D3B9EFF31483DB0706D40E4B1B781BB958
:10171000BDE8F041FFF7BEBD0B4D4FF0FF3128682B
:10172000FFF7ACFF404639463246DFF820C000DF05
:1017300004462868FFF7CAFF2046BDE8F081002470
:10174000FAE700BFDD1A0010D81A00109512000049
:101750000022FFF7CBBF10B560B1046844B1237815
:1017600043B9B1F5803F07DA89B22046FFF72AFC7A
:10177000204610BD0024FBE71C46F9E738B510F001
:10178000030405460FD170B10378022B0BD1084634
:10179000FFF7D6FC01462846FFF75EFC012805D07E
:1017A0006888013038BD4FF0FF30FBE72046F9E78D
:1017B00010B510F003040CD158B10278022A08D1F8
:1017C0004FF6FF7342889A4205D0FFF72FFC204660
:1017D00010BD8020FCE78120FAE710B510F003046B
:1017E00007D130B10378022B03D1FFF7F1FB20467C
:1017F00010BD8020FCE710B510F003040CD158B1E7
:101800000278022A08D14FF6FF7342889A4205D027
:10181000FFF73EFC204610BD8020FCE78120FAE760
:10182000F0B506460D46EFF310849CB9EFF305873B
:1018300097B9EFF31484E40706D4084C24781CB954
:10184000BDE8F040FFF787BF30462946DFF810C0FB
:1018500000DFF0BD0020FCE72046FAE7DD1A0010AB
:101860005717000010B5EFF3108434B9EFF3058477
:101870001CB9DFF80CC000DF10BD4FF0FF30FBE7F4
:101880007D17000030B50446EFF3108515B9EFF36E
:10189000058525B12046BDE83040FFF7ACBFDFF835
:1018A00008C000DF30BD0000B117000010B5EFF335
:1018B000108434B9EFF305841CB9DFF80CC000DFE5
:1018C00010BD8220FCE70000DB17000010B50446C5
:1018D00060B1016851B1406838B1037833B904315F
:1018E000890089B200F0DCFC606810BD0020FCE7D4
:1018F00038B5114C23780BB900F094FBFF220F4B45
:1019000025781B689A708DB929460D48FFF7DEFFD0
:101910000C4B2A46186029460B48FFF7BBFC0B4BC3
:1019200018600B48FFF78AFE0A4B1860012300205D
:101930002370094B187038BDDC1A0010EC1A001027
:1019400000B70100081E00101CB70100FC240010A5
:10195000C0B60100D81A0010DD1A001010B5EFF360
:10196000108474B9EFF305845CB9EFF31484E407D1
:1019700003D4BDE81040FFF7BBBFDFF80CC000DFA9
:1019800010BD8220FCE70000F118000070B50E4683
:101990001546044688B10378012B0ED11046FFF797
:1019A000CFFB31460246204600F086FC012806D1D6
:1019B000002D14BFC120812070BD8020FCE70020D5
:1019C000FAE72DE9FF410C46804618B30378012B56
:1019D00025D10846FFF7B4FB02A90246404600F0B5
:1019E000B7FC012811D10020002C0246034618BF85
:1019F0004020029904460D4616461F4620462946B9
:101A000032463B4604B0BDE8F08100200246034662
:101A10001020EEE78024054606460746EEE700253F
:101A200080242E462F46E9E770B50E46144605463B
:101A300060B15AB90378012B08D100F0DFFC38B14E
:101A40002846314600F0DEFC204670BD8020FCE7D1
:101A50008120FAE7F8B5114E34682CB1A368104F15
:101A6000013BA360A26802B1F8BD25682146386831
:101A70003560FFF7D9FF10B1042000F033FE637921
:101A8000012B07D1E1682046FFF724FB002DEBD0A6
:101A90002C46E7E701232371F8E700BFE01A0010A6
:101AA000081E00107FB504461646084601B122B153
:101AB00080232360204604B070BD0B78012BF7D142
:101AC00002A900F0A6FC042808BF102301AD14BF32
:101AD0000196019395E8070084E80700EAE7000013
:101AE000F0B506460D46EFF310849CB9EFF3058779
:101AF00097B9EFF31484E40706D4084C24781CB992
:101B0000BDE8F040FFF7E2BE30462946DFF810C0DE
:101B100000DFF0BD0020FCE72046FAE7DD1A0010E8
:101B2000CD180000F0B504460D461646EFF31087B9
:101B300017B9EFF3058737B1324629462046BDE88D
:101B4000F040FFF771BFDFF808C000DFF0BD000014
:101B50008D19000038B504461546EFF3108010B912
:101B6000EFF3058028B12A462046FFF79BFF204669
:101B700038BD08461146DFF80CC000DFC4E900019B
:101B8000A260F4E7C31900007FB50A4C4FF0FF32A2
:101B9000216803A8FFF7DEFF039B102BF6D1049901
:101BA00001A8FFF777FC019B002BEFD00298984724
:101BB000ECE700BF081E0010032100F0D9B80000B8
:101BC000054B1B7823B94FF08052044B1A607047C5
:101BD0000122034B1A707047480D001004ED00E01D
:101BE000490D001038B51A4B1A4C18680123437080
:101BF00000F0C8FE6578A3783BB91748657000F01F
:101C0000AEFEBDE8384000F077B804EBC503586875
:101C100002789AB9198900F019FBE3780135AB42D3
:101C200008BF0025EFF31082EFF3108372B6A3789C
:101C3000013BA370002ADED162B6DCE7012A03D1A2
:101C4000996800F00FFCE8E7FFF72AFAE5E700BF24
:101C5000EC1A0010841D001000250010084B4FF0F6
:101C6000FF301A68074B1A6000225A60072243F8B7
:101C7000042C054A136843F07F431360704700BF8C
:101C800030B7010014E000E020ED00E070470000F4
:101C900008B50B4B18680123437000F073FE00F089
:101CA00049FF084A13680133136000F09BFEFFF7F9
:101CB000D1FE054800F053FEBDE8084000F01CB816
:101CC000EC1A0010E41A001000250010084B1B68E5
:101CD000DA78022A0AD01A6BDB6A9A4203D81268B1
:101CE000044B9A4202D0012000F0FCBC704700BFB8
:101CF000EC1A0010A52E5AE2054B586002234370DF
:101D0000044B1B681BB11B690BB1C06B18477047B4
:101D1000EC1A00103025001008B5034800F01FFE33
:101D2000BDE80840FFF7E8BF0025001070B5044685
:101D300018B9BDE87040FFF7EFBF0B4EA2783068CE
:101D4000012583789A4208D900F01CFE33682046AA
:101D50005D70BDE87040FFF7CFBF65702146BDE8FC
:101D60007040024800F0E3BDEC1A0010002500109E
:101D700038B50D46014680B14FF6FF739842074CC7
:101D800002D0206800F008FE236805485D7000F06E
:101D9000E6FDBDE83840FFF7AFBF38BDEC1A0010D4
:101DA00000250010024B186800B1C078704700BFD2
:101DB000EC1A001010B5A8B9194B1B68997083F87C
:101DC0002410184843689B788B4201D8002010BD2E
:101DD000134C216800F0ABFD012223685A70FFF715
:101DE0009BFFF3E7104B1B88834217D30F4B01383F
:101DF00053F8204094B10A4BA1701B6884F824105A
:101E00009C42DED0204600F03BFE6378012BDDD102
:101E1000044800F0A4FDFFF789FFD7E7FF20D6E7CD
:101E2000EC1A001000250010FCB60100481D00103F
:101E30002DE9F0470D4611F0FF0F80462048164669
:101E40009A4608BF0135FFF79CF8044618B90026EA
:101E50003046BDE8F0871B490663894601261A4BC8
:101E6000280A1B88A0629E42F1D851F8042B771EE5
:101E70000AB10136F7E74FF48073EDB2E670C4F8AB
:101E80001CA0C4F838A02380A57084F824502262D6
:101E9000C4E90122C4E90322C4E9052284F825200B
:101EA00018B90A48FFF76DF820632046414600F054
:101EB000E7FC204649F82740FFF738FFC8E700BF96
:101EC00030210010481D0010FCB60100381B001026
:101ED0002DE9F84F4D4D2C6810B1E378834240D185
:101EE0000023637000F03BFC0127E062FFF7EEFE89
:101EF0002B68DFF82C811C6AA4B92A684449D3787E
:101F00004448013B41F82340116BFFF747F829682B
:101F100041480C63FFF742F82C60FFF7FDFE2046B6
:101F2000BDE8F88F6368B3B1204600F018FD06469F
:101F3000002100F0F5FC304600F0BAFD7770314624
:101F4000404600F0F4FCE368326A6780A660E26015
:101F500034621C46D0E7E2686380C4E90233144669
:101F6000CAE72E4B1B8883424DD3294B471E53F89B
:101F700027609946002E46D04FF0010A304600F007
:101F800069FD304600F094FDDFF894B0346AB4B9CE
:101F9000316B204849F82740FFF700F83146346399
:101FA0001D48FEF7FBFF1E48296843689A788B7826
:101FB0009A42B4D901234B7000F0B9FCADE76368D5
:101FC000DBB1204600F0CBFC8046002100F0A8FCED
:101FD000404600F06DFD88F801A04146584600F0EB
:101FE000A6FCE368D8F82020A4F802A0C4F8088072
:101FF000E260C8F820401C46C9E7E2686380C4E993
:1020000002331446C3E7FF2489E700BFEC1A00102F
:10201000481D0010381B001030210010FCB60100D4
:102020000025001038B5274B274A19880023184689
:10203000994243D80025254B402219882448FEF7B1
:102040007BFF244B24481A88244B42F00042196835
:10205000FEF772FF224B08221988224B224C186887
:10206000FEF76AFF214B1C48C4E90035A562C4E9AC
:102070000255C4E90455A5612562A584FEF781FFD8
:102080001B492063204600F0FBFB0422194B20462D
:102090001A705D60184B1A70C3E903559D82174B87
:1020A0001C6002236370FFF727FE154A154B127858
:1020B0001D80DA70BDE8384000F030BD42F8040BF6
:1020C0000133B5E7FCB60100481D0010C8B6010099
:1020D0003021001018B70100381B0010C4B60100F1
:1020E000CAB60100500D0010F41A0010000100FFE4
:1020F000E12600000025001018250010EC1A001041
:10210000F9B60100841D001008B51E4B1A6842F490
:102110007F021A601B681B0203F07F43DB43B3FAA4
:1021200083F3194ADBB21268C3F10803C2F3022237
:10213000934298BF531C6FF08072144802FA03F365
:10214000016803F07F4321F07F4213430360FFF7F0
:1021500085FD0F4B0028186012DBFF22012100F1E2
:10216000604000F5644002701A6853099B0003F157
:10217000604302F01F0203F5614301FA02F21A60A4
:1021800008BD00BF20ED00E00CED00E01CED00E01C
:10219000E81A001038B50D4B0D461C68238B00EA79
:1021A000030132B1884207D123EA000302202383CE
:1021B00038BD41B16183F7E7062160832846FFF708
:1021C000D7FD0120F4E70521F7E700BFEC1A001066
:1021D000144B013910B553F8214014B3238B6278A6
:1021E0001843062A2083638B14D133EA000218D1E6
:1021F00020EA03002083204600F05AFC01232046F9
:102200006370628B082100F08EFB2046BDE8104011
:10221000FFF78CBD052A04D110EA030201D06283C6
:10222000E6E710BD481D001008B5074B013953F80B
:1022300021303BB10146184600F04CFCBDE8084097
:10224000FFF7BEBC08BD00BF481D001010B5038BD2
:1022500042781943062A04460183438B15D133EA99
:10226000010219D121EA03012183204600F020FC5C
:10227000012320466370628B082100F054FB214645
:10228000BDE81040054800F052BB052A04D111EA10
:10229000030201D04283E5E710BD00BF0025001016
:1022A000012303800023103989088370C0E90133BA
:1022B0008381C18170470000F8B5466803460D462A
:1022C00017468EB14278012A0ED100F048FB044631
:1022D0002A46102100F027FB204600F0E9FB2046AB
:1022E000FFF724FD0020F8BD9989DA89914214D1C5
:1022F0005FB1164C216856B1184600F018FB2368F0
:102300000821DD613846FFF733FD0120EBE70222AB
:102310005960C1E901635A70F1E71A89043243F840
:102320002250EFF31081EFF3108272B69A890132D6
:102330009A8101B962B61A89D989013292B2914261
:102340001A814FF00000CED11881CCE7EC1A0010B2
:1023500038B5838904461546002B39D043891A1DA8
:1023600050F8222001330A60C2899BB29A4243810D
:1023700004BF002343814368F3B14378022B1BD190
:1023800000F0EDFA0546002100F0CAFA2389E96958
:102390001A1D44F822100133E2899BB29A4223812C
:1023A00008BF0023284608BF238100F081FB284690
:1023B000FFF7BCFC00200AE0EFF31080EFF310837E
:1023C00072B6A389013BA3810028F3D162B638BD60
:1023D0004AB1094B196843683BB100F0A8FA0821DB
:1023E0002846FFF7C5FC0120F1E74160C1E9013053
:1023F00001234370F3E700BFEC1A0010C289808903
:10240000101A704708B500F065FBBDE80840FFF7FB
:10241000D7BB838910B504460BB34389043350F806
:1024200023300B604378022B04D1002100F052FBD3
:10243000FFF7C6FBEFF31082EFF3108372B6A389A8
:10244000013BA38102B962B66389E28901339BB281
:102450009A42638101D100236381042000E0184681
:1024600010BD0000436870B504460E46002B4CD0EA
:102470004578022D20D0032D0AD0012D60D100F027
:102480006EFA04463246102100F04DFA65700EE0F7
:102490000846FEF776FD0546002851D0204600F09C
:1024A0005EFA2946044600F03BFA01236370204699
:1024B00000F0FEFA214623E000F051FA0546002123
:1024C00000F02EFA2389EA69043344F82320EFF35D
:1024D0001082EFF3108372B6A3890133A38102B98E
:1024E00062B62389E28901339BB29A42238104BFF9
:1024F00000232381012328466B7000F0D9FA294676
:10250000BDE87040114800F012BA8289C3899A422E
:1025100017D20389043344F82310EFF31082EFF34A
:10252000108372B683890133838102B962B623892D
:10253000E28901339BB29A42238101D10023238196
:1025400070BD0320BDE8704000F0CCB8002500103D
:102550000323037000234380C0E90133C360704745
:102560002DE9F84343880546002B63D0324F82683B
:1025700039688A425ED1013B9BB243801BB1002483
:102580002046BDE8F8830B6A984229D1C3680B62E4
:1025900091F824300C6A5CBB8B706A68DFF89C8011
:1025A000002A3BD0284600F0DAF906464FF0010930
:1025B000214600F0B5F9304600F07AFA336A3968FE
:1025C000EB60D8F80430A5F80290AE6035628A78E6
:1025D0009B789A4214D33046FFF7A8FBD0E7134606
:1025E000002BD5D0DA68AA42F9D1EA68DA60CFE7E1
:1025F00062681AB19278934238BF1346E468CAE71A
:10260000404600F094F93146404600F090F93B68AE
:1026100083F8019086F801902046DDE7D8F8042081
:1026200092789A42ABD9404600F081F901223B688A
:102630005A70F1E7FF24A3E7EC1A00100025001000
:1026400070B50E46134D418804462B6839B91A6A95
:102650008360C260186200200131618070BD8068B3
:102660009842F8D086B19B7882789A4202D28370E1
:1026700000F006FA6368296843B1204600F057F974
:1026800009213046FFF774FB0120E7E76160C1E9EB
:102690000134F5E7EC1A001008B50B48FEF7CEFF41
:1026A0000A4B18600A48FEF7C9FF0A4B18600A482F
:1026B000FEF7C4FF094B18600DF0EAFCBDE80840C6
:1026C000002108460AF020B910B701000C1E0010C6
:1026D0000CB70100540D001008B701004C0D00109C
:1026E00000F056BA10B50446FEF70AFE2146BDE8D2
:1026F0001040024601480AF0E3BF00BFD0B6010017
:1027000000F03CBA0449054AC1F1805303F5F8438F
:10271000C2E90331704700BFF8250010D000001057
:10272000FFF71CF9FFF7EEFF03480021FFF710F851
:10273000FEF76CFDFEE70000D0000010024B4FF0EA
:10274000FF311868FEF79ABF540D0010014B18684E
:10275000FEF7BCBF540D001080F309887047EFF3FB
:1027600009807047684680F309883F480078C007B1
:1027700014BF0220032080F314887047DFF8ECC0F8
:10278000EFF305831B0618BF6047EFF31483DB07E5
:1027900008BF604700DF7047DFF8D4C0EFF3058360
:1027A0001B0618BF6047EFF31483DB0708BF6047C1
:1027B00000DF7047EFF30980816911F8021CF1B95D
:1027C00090E80F10E047EFF3098C8CE80700294BE5
:1027D00093E8060091420FD039B12CE9F00FC1F80F
:1027E0002CC00CB4FFF772FA0CBC1A60D2F82CC0E3
:1027F000BCE8F00F8CF309886FF0020E704710B53B
:102800001D4A1268914209D81C4C54F8214090E8A6
:102810000F10A047EFF3098C8CE80F0010BDFFF7F5
:10282000E1F9144B93E80600914210D0EFF3098CC4
:102830002CE9F00FC1F82CC00CB4FFF747FA0CBC20
:102840001A60D2F82CC0BCE8F00F8CF309886FF046
:10285000020E7047FFF71CFAFFF7E3BFFFF716FA07
:10286000FFF716FAFFF7DDBFFAB60100830F00008D
:102870009D0F0000EC1A001000000000FCFFFFFF9D
:10288000836AF0B59B0808BF234B066B08BF1B8803
:102890004FF0000E08BF9B0806EB8302540748BFA9
:1028A000043A4FF08074154642E90214A2F1400741
:1028B000A2F14404A2F10C0C44F804EF6445FBD1EE
:1028C000C46942F8204C4163C178C76202291ED016
:1028D0001249316010490968C90018D5112B16D961
:1028E0004FF0CC31103B5B08A2EBC302083D954290
:1028F0000ED16FF0070202FB03731A1D964238BF18
:102900004FF0CC3203F1080338BF43F8042CF0BD7C
:1029100045E91011EAE700BF18B70100A52E5AE2F9
:10292000C36A19627047C36AC3E90812704730B5B9
:1029300002788C78013A4368D2B213B19D78A542EF
:1029400007D2022A4B60416006D803B199608860C3
:1029500030BD18465B68F0E700238B60F8E74368FA
:1029600001785A680139022942604FF0000106D807
:102970000AB19060596000229A6018467047596009
:10298000FBE70000034B5A684260002258608260F7
:10299000704700BF00250010114B10B5DA6892B1E6
:1029A0009A8A8A42DC680DD3C460D860C468036127
:1029B00004B1206192B2541A8482988A01448A1A1E
:1029C0009A8207E03CB900248A1AC460D860036187
:1029D0009A82848210BDA38A1A442346E1E700BF8D
:1029E000182500102DE9F041174DEB6853B1002672
:1029F000AB8A164F013BDFF85880AB82AA8A0AB92E
:102A0000EC680CB9BDE8F081A36833B16168596026
:102A100011B161688B606260A66021463846FFF79D
:102A200086FFA38AAB826378042B01BFD8F80030FD
:102A3000E28A9B18A38201236370E368EB600BB109
:102A40001D61E6602661D9E71825001000250010F9
:102A5000E41A001083682BB142685A6042685AB188
:102A600093607047054B5A68904202D142685A60A1
:102A700070471346002AF6D1704700BF00250010AA
:102A800010B5846801462CB94378012B0DD1074C51
:102A900003E0A4682378002BFBD00846FFF7DAFF99
:102AA0002046BDE81040FFF742BF10BD00250010D2
:102AB000036910B55BB1C268DA604AB1998A848A49
:102AC0002144998213610023C3600023036110BD78
:102AD0009A82FAE770B4104BDD78EFF31086EFF3CB
:102AE000108272B69A78954207D901329A701A7894
:102AF000541CA54208BF00241C7006B962B6DC78DD
:102B0000944205D970BC03EBC203C3E901017047CD
:102B1000022070BCFFF7E6BD841D00100022034BAD
:102B20001A60034A1268DA80704700BF342500102B
:102B300014B7010008B50E4B5A680E4B19880E4B9E
:102B40001868904204D01A60DA88013A0A449A80E0
:102B50009A888A420AD1002205481A60FFF7FFFED0
:102B6000BDE8084001460248FFF7E1BE08BD00BFCE
:102B700000250010E41A001034250010024B1B68D9
:102B800003B11847704700BFA80D00107047000040
:102B900008B5024C23689847FCE700BFE40000102A
:102BA00070B5044600F108050E46082200212846AB
:102BB0000DF0F0FE2046314640F8045FFEF730FE8F
:102BC0002060204670BD0068FEF74CBE0068FEF72E
:102BD00059BE10B504460068FEF768FE204610BDD9
:102BE000F0B50F2200260E4B0E490F4D0F4823F073
:102BF0000303002435F802CB41F8046BA7B2BC45AF
:102C000005D8013A92B20230002AF2D1F0BD51F853
:102C1000047C01341F60078841F8043C3B44EDE725
:102C200003000820AC0D001034B7010052B70100BA
:102C30000E2838B505460CD807F06AFE064B53F847
:102C4000254014B1226843F8252007F073FE204682
:102C500038BD0024FBE700BFAC0D001038B50546B9
:102C60000C4659B107F054FE054B53F8252022605D
:102C700043F82540BDE8384007F05CBE38BD00BFD2
:102C8000AC0D0010037B8B421FBF00230173437305
:102C900043837047038B30B54469E51885F8F0101D
:102CA000991C01339BB22344018383F8F02030BD8B
:102CB00010B5028B4369541C1344048383F8F0104D
:102CC00010BD038B426930B5D4180D0A84F8F0505A
:102CD0009C1C01339BB21344048383F8F01030BD75
:102CE000038B426930B5D4180D0E84F8F0505C1C8B
:102CF000A4B214440D0C84F8F0509C1CA4B21444EB
:102D00000D0A84F8F0501C1D03339BB21344048356
:102D100083F8F01030BD10B568B1038B4269591CBF
:102D20000183FF21134483F8F0100021038B432B10
:102D300002D99C0700D110BD5C1C1344048383F8A6
:102D4000F010F3E7F8B50C4615460646002800F0EB
:102D50008680002900F0868000224FF49A71104688
:102D600004F0CDFD206100287FD0627B404B12B97A
:102D70001A6801321A6001221F6843682760636184
:102D80001A705A70002296F832103FBA082D9970C6
:102D9000DA705F601A725A729A72DA721A735A7320
:102DA0009A73DA7307D0042D05D0032D05D1227B49
:102DB000043A012A01D87268DA60002203F11C008B
:102DC00007461A745A749A74DA741A755A759A7591
:102DD000DA751A765A769A76DA7633361FFA81FEE3
:102DE0001FFA82FCE64534D80A4600268654013292
:102DF00091B20F29FAD9002003F12C0203F16C01E2
:102E000002F8010B8A42FBD1002103F1EC0002F829
:102E1000011B8242FBD16FF07D00632283F8ED003D
:102E2000532083F8EC2083F8EF20002283F8EE0093
:102E30002183F03303F8012B0132442AFAD12046D2
:102E400001223521FFF726FF2946FFF731FF002039
:102E5000F8BD16F801CB013207F801CBC0E76FF0DF
:102E60000D00F5E76FF00500F2E74FF0FF30EFE7F8
:102E7000E800001010B5044630B1006908B104F054
:102E80000FFD0023C4E9043310BD0000F7B5074669
:102E9000846A04212046FFF7F5FE032221463846C6
:102EA000FFF750FF0546E0B9022239212046FFF71F
:102EB000F1FE398EFFF705FFFE6A5EBB2046FFF785
:102EC0002AFF218B2069F03189B204F09EFD009722
:102ED00043231A4A2169606801F047FF2046FFF743
:102EE000C9FF637B28460133DBB2092B637396BFAE
:102EF000C3EB431242F2107303EB82034FF4FA72F6
:102F00009CBFDB009BB203F2F313B3FBF2F36383CA
:102F100003B0F0BD30460EF039FBC2B2002ACDD06E
:102F20000C212046FFF7B6FE013E16F8011F0029CE
:102F3000C4D02046FFF7BCFEF7E700BF84B701000E
:102F4000F7B50746846A01212046FFF79BFE03225E
:102F500021463846FFF7F6FE054600283CD12046BC
:102F600002223921FFF796FE398EFFF7AAFE0422CE
:102F70003221FFF78FFE616A09BAFFF7B1FE042222
:102F80003621FFF787FE216A09BAFFF7A9FE04225E
:102F90003721FFF77FFE0121FFF78AFE0321FFF7AC
:102FA00087FE1C21FFF784FE0621FFF781FEFE6AE3
:102FB0004EBB2046FFF7AFFE218B2069F03189B26E
:102FC00004F023FD00974323184A2169606801F04B
:102FD000CCFE2046FFF74EFF637B28460133DAB272
:102FE000052A96BF4FF47A734EF6602393406273BE
:102FF0004FF4FA7298BF9BB203F2F313B3FBF2F3F0
:10300000638303B0F0BD30460EF0C0FAC2B2002AAE
:10301000CFD00C212046FFF73DFE013E16F8011FE0
:103020000029C6D02046FFF743FEF7E784B701002A
:1030300073B50646846A03212046FFF723FE032268
:1030400021463046FFF77EFE054610BB2046022291
:103050003921FFF71FFE4FF41071FFF732FE0422F3
:103060003221FFF717FE616A09BAFFF739FEFFF751
:1030700052FE218B2069F03189B204F0C6FC009623
:103080004323104A2169606801F06FFE2046FFF774
:10309000F1FE637B28460133DBB2092B637396BFD5
:1030A000C3EB431242F2107303EB82034FF4FA7244
:1030B0009CBFDB009BB203F2F313B3FBF2F3638319
:1030C00002B070BD84B70100002373B50646846A60
:1030D000062163622046FFF7D5FD012221463046D6
:1030E000FFF730FE054648BB204602223921FFF794
:1030F000D1FD318EFFF7E5FD04223721FFF7CAFD30
:103100000121FFF7D5FD0321FFF7D2FD1C21FFF7B9
:10311000CFFD0621FFF7CCFDFFF7FDFD218B2069D8
:10312000F03189B204F071FC009643230F4A216903
:10313000606801F01AFE2046FFF79CFE637B28467C
:103140000133DAB2052A96BF4FF47A734EF6602344
:10315000934062734FF4FA7298BF9BB203F2F31379
:10316000B3FBF2F3638302B070BD00BF84B701000C
:1031700038B50546846A08212046FFF783FD002202
:1031800004F12401284604F00BFE637B01336373D2
:103190000123638338BD37B50546002842D0846AD1
:1031A000002C3FD0636B581C0CD01E33B3F5701F3E
:1031B00036BF3C224FF6FF73B3FBF2F39AB2002BFB
:1031C00032D0A283A36B591C0BD01E33B3F5701FF2
:1031D00036BF3C224FF6FF73B3FBF2F39AB233B320
:1031E000E283A37B33B3A36A0093E36A01932BB911
:1031F000636A009A134043F08073019304F1240141
:10320000284603F045FC6946284603F0B7FC01A9AF
:10321000284603F0AFFC284603F0BAFC0A212046FA
:10322000FFF730FD03B030BD0123A383CAE70123BC
:10323000E383D6E794F824301A0601D4FF23D3E7BA
:10324000BF2B8CBF6FF07F434FF6FF73CCE70000BE
:103250002DE9F04F53898BB02B2B06469246D0F8C0
:1032600028B035D953681A78022A31D1002290F853
:10327000325003F11C013330D4B2A54221D85B682F
:10328000DBF800201BBA9A4222D10A220021B3485F
:103290000DF080FBBAF80A302B2B19D9DAF804307C
:1032A000BAF80890CBF8083000230193F023DFF838
:1032B000AC82574667B17A89934212D27A680592F6
:1032C000D9E010F8017B11F8014B0132A742D3D0AD
:1032D00000235046CBF8083004F0E2FA0BB0BDE80A
:1032E000F08F9B1AA9EB02099BB21FFA89F93F687C
:1032F000E0E73968002900F0CC804A681178C8E01E
:1033000036282CD00BD834282DD035281A4608BFA3
:10331000012516BF4FF0FF350C460024CFE03A28B8
:1033200025D03B281A4608BF0525F2E75A1E92B25F
:103330004FF0FF352146C1E008290C461A4628BF48
:1033400008240825BBE00C461A460325B7E00C46C6
:103350001A460625B3E01A4607250424AFE00C46BA
:103360001A460225ABE00C461A460025A7E00C469B
:103370001A460425A3E00122631EC3F385031D44FE
:10338000C3EB831304EB8304E4B2042C0CBF099B4E
:103390009DF8243008F80520714A08BF1BBA42F88E
:1033A00025307B89039A9A4264D33F68D21AA9EBED
:1033B00003097B6892B203921FFA89F90593002FE3
:1033C00058D198F80030002B40F0B080019B002BC2
:1033D00040F0B58098F80130002B3FF479AF604A97
:1033E00013791446052B40F0CA809BF80C30012B52
:1033F00040F0BD80019AB36AC3E90A2298F803201D
:103400000AB1E2681A6398F80420002A00F0AA8042
:1034100022695A6398F80520002A00F0A6806269A4
:103420009A639A6812695A6298F806201AB1A269DA
:1034300012BA9A6201229A7398F8072012B1E269CF
:1034400012BADA6298F8083083B1236A09A91BBA64
:103450000020099301F0F2F898F8093033B1636A5B
:1034600009A91BBA0120099301F0E8F83046FFF7DB
:103470007FFE2DE7039B059AD05CFF28A1D04B452A
:103480009FD279895A1C8A42BFF633AF059A1A44F3
:10349000517833283FF457AF3FF632AF01283FF45D
:1034A00056AF44B2002C3FF441AF03283FF453AF72
:1034B00006283FF441AF1A464FF0FF350024023290
:1034C0000A4492B20392002C3FF46BAF02339BB2DA
:1034D00004930023099305EB08030693204B029401
:1034E00003EB85030793029A049B042A28BF042256
:1034F00009A9D2B2384604F029FB029B042B7FF6BF
:103500003AAF4FF00102069B03F8012B0693099B8B
:10351000079A1BBA42F8043B029B0792043BDBB2BA
:103520000293049B04339BB20493DCE700220C4B10
:1035300088F800201B68012B0CD0022B05D100233A
:103540004FF06C0901932C23B3E6032B7FF43EAFBD
:10355000012301934FF0EC096C23AAE63C250010EF
:10356000482500101A6B520853E71A6B58E7033BC3
:10357000022B3FF6ADAE3046FFF70DFEA8E6062B58
:103580001FD19BF80C30DA1E022A02D9012B7FF4DE
:103590009FAE3046B46A03F01CFB3046164903F078
:1035A00077FA3046144903F0E5FA3046124903F041
:1035B000E5FA20460C21FFF765FB3046FFF784FD56
:1035C00086E6022B7FF484AE9BF80C30062B7FF44A
:1035D0007FAE019BABF81A3098F80230002B3FF415
:1035E00077AE9268B36A12BA1A629A683046126964
:1035F0005A62FFF7A5FC6BE680B7010038B5856A13
:103600000446CDB12B7B0A2B10D8DFE803F0150F51
:103610000F0606060F0F0F0F060003F0DAFA00235D
:103620006B732046BDE83840FFF702BD00236B7383
:10363000BDE83840FFF748BD38BD000037B5054646
:10364000002832D0846A84B3237B082B2DD10A68EA
:10365000636A9A4229D10C212046FFF713FB04220A
:1036600021462846FFF76EFBD0B9042220463221BE
:10367000FFF710FB616A09BAFFF732FBFFF74BFB5C
:10368000218B2069F03189B204F0BFF90095432302
:10369000074A2169606801F068FB2046FFF7EAFBF2
:1036A000637B013363731423638303B030BD00BFB6
:1036B00084B70100F7B50746846A05212046FFF765
:1036C000E1FA032221463846FFF73CFB0546E8B9FC
:1036D000022239212046FFF7DDFA398EFFF7F1FA91
:1036E000FE6A66BB2046FFF716FB218B2069F0318E
:1036F00089B204F08AF90097432304F1200221697A
:10370000606801F032FB2046FFF7B4FB637B28467C
:103710000133DBB2092B637396BFC3EB431244F64C
:10372000206303EB82034FF4FA729CBF1B019BB230
:1037300003F2F313B3FBF2F3638303B0F0BD30463F
:103740000DF024FFC2B2002ACCD00C212046FFF796
:10375000A1FA013E16F8011F0029C3D02046FFF749
:10376000A7FAF7E7134B10B51C6804B910BDA36A9C
:1037700073B1DA8B511E012AD9830BD11B7B03F065
:10378000FB02012A01D00A2B02D12046FFF77EFB63
:103790002468EAE79A8B511E012A9983F8D11B7B92
:1037A00003F0FB02012A01D00A2BF1D12046FFF7DA
:1037B00081FFEDE78825001073B5846A0546002176
:1037C0002046FFF75FFA00230722C4E90833C4E963
:1037D0000A33C4E90D33236321462846FFF7B2FAC2
:1037E000064698B92046FFF796FA218B2069F031FA
:1037F00089B204F00AF90095432304F120022169FB
:10380000606801F0B2FA2046FFF734FB637B28467C
:103810000133DBB2092B98BFC3EB431263738CBF38
:1038200042F2107303EB82034FF4FA729CBFDB0089
:103830009BB203F2F313B3FBF2F3638303F0C9F912
:103840002846074903F024F92846054903F092F970
:103850002846034903F092F9304602B070BD00BF1C
:1038600080B7010038B50025234B1C6804B938BD6A
:10387000A36A23B15A8B012A03D9013A5A832468D7
:10388000F4E7FCD11A7B5D830C2A01D0062A03D110
:103890002046FFF719FCF2E7012A06D15B7B2046A0
:1038A000052B1DD8FFF74CFBE9E7082A09D15B7B04
:1038B0002046012B02D8FFF75BFCE0E7FFF76BFC2B
:1038C000DDE7052A03D12046FFF7F4FED7E7042AF7
:1038D00009D15B7B2046082B02D8FFF7D7FACEE749
:1038E000FFF76AFFD4E7032AC9D15B7B2046012B8F
:1038F000CFD8FFF79DFBC2E78825001010B598B11F
:1039000090F83930846A23F0080380F839305CB1CC
:10391000606818B101F05CFA002363602046BDE8DE
:1039200010400021FFF7AEB910BD000038B50446C5
:1039300010B96FF00D0038BD90F83930856A23F06A
:1039400008029B0680F83920F3D5038EB3F5107F6B
:1039500002D24FF0FF30EEE755BB3C2000F0BCFF39
:1039600005460028F5D0A0623C22002128460DF033
:1039700011F801F043FA68600028EAD0027A13498E
:1039800042F020020272442201F0DCF843220F4987
:10399000686801F0F5F9686822460D4901F014FAEB
:1039A0002046FFF791FB48B12046FFF7A7FFD0E77D
:1039B00068680028D8D001F00BFAD5E794F83930C0
:1039C00043F0080384F83930B5E700BF80B7010041
:1039D0005132000010B51488C907204484B204EBAA
:1039E000104080B205D51978C1F10101197040BAB3
:1039F00080B2108010BD2DE9F84F824603209DF85B
:103A000028600F4690469946FFF712F94FEA860B59
:103A10005FFA8BF5044628B9384603F041FF20468B
:103A2000BDE8F88F467300263B89C0E90067A3EB29
:103A30000B030381468106731421384603F005FF0A
:103A400020B1204603F0EBF93446E8E763685A6892
:103A5000BAF81C3022615BBA1380BAF81E305BBA28
:103A6000AD0299FA89F905F5A0455380C2F8049092
:103A700045EA08056DBA95819074D074CFE714318A
:103A800038B589B2044615460120002203F037FFFD
:103A9000C0B14368A28B52BA1A80E28B52BA5A80E4
:103AA000626A5D6011BA996045F2100149BA998164
:103AB000658D69BAD98100212A44197459749974A1
:103AC000D974E26238BD2DE9F04F8DB00793002321
:103AD00006469146ADF82C308DF82A300591002924
:103AE00000F05C81037C072B03D0023B022B00F229
:103AF0005A81B9F1000F10D0B6F86E304B4508D29C
:103B000096F8203063F07F0386F820304FF0FF30C6
:103B100046E1B6F87030032BF2D8B6F87030746F07
:103B20000393A046002C00F030812468002C46D17D
:103B300098F80D3013F0020F0CBF00210C21B9F1E1
:103B4000000F00F02581B8F80820358F9B00AD1AD2
:103B500003F00403ED1A6D1AADB2002D00F01681CA
:103B6000002A00F01281079B4D45A8BF4D46DB0798
:103B700027D522462946032003F0C1FE0746002828
:103B800000F00A812A460599406802F018F90DF103
:103B90002A030BAA2946FFF71DFF384603F05BFFF7
:103BA0004446039B03449BB203934FF0000A079BD8
:103BB000AB4603F00103CDF820A006939DE0A0469C
:103BC000B3E701222946032003F099FE07460028A7
:103BD00000F0E2802946059802F0D0F8C0430DF1CC
:103BE0002A030BAA294680B2FFF7F4FE059B7B60EF
:103BF000D3E7328FA9EB0B039BB29A4228BF1A4638
:103C00004FF00003ADF82E308DF82B30069B049258
:103C100003B300220499104603F071FE0446002805
:103C200036D0DDE90423406803EB0B0102F0C7F84E
:103C30000DF12B030DF12E020499FFF7CBFE204668
:103C400003F009FF039B03449BB2042B039335D974
:103C500020461BE001220499069803F050FE0990CB
:103C6000B0B1059B049903EB0B04204602F086F8E3
:103C7000C043099B069A5C60ADF82E0011461046C1
:103C800003F03DFE099B0446A0B9184603F008FE68
:103C9000544696F8203063F07F0386F8203017B141
:103CA000384603F0FDFD002C3FF430AF204603F012
:103CB000C4F82BE7194603F0E3FEC0E70022B36E19
:103CC000214600925B443046FFF795FE04460028EB
:103CD000DED0BDF82E3043819DF82B300373437B3B
:103CE00043F004034373BAF1000F4CD0089B1860F3
:103CF000049B08949B441FFA8BFBCB45FFF479AFE0
:103D000017B33946D8F8040003F0BAFEB8F8083003
:103D10003A891344A8F80830B5B19DF82A3023B188
:103D2000BDF82C305BBAADF82C3008F10C0308F16B
:103D30000A022946BDF82C00FFF74CFE98F80D301A
:103D400043F0040388F80D30B8F1000F21D1C6F814
:103D500074A0B36E4B44B366B6F86E30A3EB09099A
:103D6000039BA6F86E90A6F8703054B12069B8B1E4
:103D7000079B13F0020404D108235ABA8389134322
:103D8000838100200CE08246B2E7254627460CE7F7
:103D9000CA46C8F800A0DCE700277AE76FF00D00FC
:103DA0000DB0BDE8F08F6FF00C00F9E7B0F870309F
:103DB00073B5032B04460D4608D994F8203063F000
:103DC0007F0384F820304FF0FF3033E0B0F86E30DE
:103DD000C1F34006B100002BF5D00022104603F0DD
:103DE0008EFD01460028E8D00096A36E2A462046A4
:103DF000FFF701FE0028E0D0636FF3B96067AA0700
:103E000007D0A36E0133A366B4F86E30013BA4F86B
:103E10006E30EB0742BF94F8203043F0200384F863
:103E20002030406803F017FEB4F870301844A4F84E
:103E30007000002002B070BD13461A68002AFBD142
:103E40001860DCE7436F10B423B9012110BCFFF701
:103E5000ADBF13461A68002AFBD11C69A28953BA68
:103E600013F00703F1D1012149BA0A43A281184690
:103E700010BC7047F7B5826D002112BA0446FFF7F7
:103E8000FEFD0546F8B194F82030476823F003039F
:103E900084F820300389261D0093324606232146EC
:103EA00001F0ECFE062338820193637A32460093D8
:103EB0002146A37A284602F0B8FB284603F0F0FC1E
:103EC000002003B0F0BD6FF00100FAE7854B2DE94B
:103ED000F74F1B68044683423DD0B0F85C30B0F821
:103EE0005270456F9F4228BF1F4690F820309A07B6
:103EF0000FD545B12B69C16C5B681ABA2B895B1A67
:103F00001344BB4205D9204603B0BDE8F04FFFF78C
:103F1000B1BFA66F26BB4FF0100ADFF8D0B1A5B134
:103F20002969E06C4B681ABA2B891B1A1344BB42EF
:103F30001AD994F8A42042B9B4F85C108B4282BF1D
:103F40000123C4F8A02084F8A43094F8203003F0B2
:103F50007F0384F82030002003B0BDE8F08F1E46B8
:103F60003368002BFBD1D6E7A26F7AB194F820C05A
:103F70001CF0440F0AD1626F2AB1106830B9108961
:103F8000228F904202D21CF0A00FD2D02B68636720
:103F9000237C022B0AD09AFA9AF28B8913438B81E5
:103FA00094F8203023F0030384F82030636A1ABAAF
:103FB0008A60628D50BA1344C881E3626B7B04F15E
:103FC0000408DB0744BF484B4B61B4F9363001337A
:103FD00004BF0023E3860CB1236833B9404602F0E6
:103FE00083F9002841D043682360E36B29692BB92A
:103FF000DBF80030E3634B681BBA23644FF0000921
:10400000686843684289CB1A9BB2D21A42810289FE
:104010004160D21A92B202818B8981F8109081F8A6
:1040200011905BBA1B0B9B009BB2CDE9002321468C
:104030000623424601F05AFE2B7B23B16B895BBA03
:104040006B8185F80C906B892A69DB439BB218441D
:10405000062300EB104010820193637A42460093DE
:104060002146A37A686802F0E0FA2B69B5F808C027
:1040700059689A8909BA53BA13F0030318BF012388
:10408000A06D63440B44C01A0028B8BFA36552BAA0
:1040900012F0030218BF012212EB0C0F1ED00023F6
:1040A0002B60A36F13B9A5672E4611E033695B68D7
:1040B0001BBACB1A002B0FDA04F1780002682AB180
:1040C00013695B681BBA5B1A002B03DB2A6005606F
:1040D000656F24E71046F1E73560E5E7284602F012
:1040E0009EFEF5E774250010020405B49425001027
:1040F0002DE9F74F81460D46174614210022012075
:104100009846BDF830B0BDF834A003F0F8FB064681
:1041100090B344689BFA9BFBA4F800B09AFA9AFA11
:1041200099FA89F92DBAA4F802A0C4F80490A56000
:1041300045F214035BBAA3810B23A3736823002504
:10414000E373038925746574A574E574424600938E
:104150003946062301F092FD062320824246CDE92E
:1041600000533946FF23304602F05FFA304603B071
:10417000BDE8F04F03F094BB03B0BDE8F08F826F51
:1041800010B48AB111460B6863B9446F0C60C0E982
:104190001D2390F84A20C363013280F84A2010BCE6
:1041A000FFF794BE1946EEE710BC7047836F30B539
:1041B000BBB11A6800F174048267216841B10A69D1
:1041C0001D6952686D6812BA2DBA521B002A09DBAC
:1041D0001960236090F84A30013380F84A30002398
:1041E000C36330BD0C46E8E7836F10B513B390F896
:1041F00020305B071ED4FFF7D9FFB0F85220B0F88B
:104200005C309A4288BF5A08038F98BF5208590001
:104210008A42A0F85420B8BFA0F85410B0F8542037
:104220000B441344A0F8523090F8203043F00403BC
:1042300080F8203010BDF7B5826D0021013A12BA26
:104240000446FFF71CFC0546C8B10389261D4768D4
:10425000324600932146062301F010FD002306227A
:1042600038822146CDE900322846A37A324602F050
:10427000DCF9284603B0BDE8F04003F011BB03B001
:10428000F0BD2DE9F341876F054617B9476F002F41
:1042900047D03B699C8964BA14F0010418BF3C897B
:1042A0005A681CBFB4FA84F4640984F001012846FA
:1042B000FFF7E5FB0646A0B3D0F804801CB311233A
:1042C0005ABAB8F80C3023F47C531343A8F80C30D6
:1042D00033892C1D0093224629460623304601F0DF
:1042E000CDFC00230622A8F810002946CDE90032B3
:1042F0003046AB7A224602F098F9304602B0BDE86B
:10430000F04103F0CDBA786843689A8952BA4FF603
:10431000FC73920A134008F11401012203F016FC09
:10432000D6E702B0BDE8F081034613F8012B02F096
:10433000C001C02905D098189B5C002BF4D1013036
:1043400070471846FBE700002DE9FF4791461289A8
:10435000A2F11A03B3F5F37F00F29E80554C0023BF
:104360002168484603F0F2FBB9F80830834240F078
:1043700093802068068876BAB3B2032B00F28C8053
:104380004FF48C755D434C4C1E46625D6319022AE6
:1043900040F0828003226255C27802F00F025A7107
:1043A00083885BBAC7887FBA90F90210002910DBB6
:1043B0004FF48C7070432218D2F81031002B71D159
:1043C0004FF48C735E430023A219A355C2F8103139
:1043D00062E0002AECD19BB2012BE9D105F10C0877
:1043E000A0440C300246434612F8011B01F0C00CF9
:1043F000BCF1C00F0FD0944603EB010A534562464F
:1044000019469CF800E003F101030CF1010C07D1FF
:10441000BEF1000FE8D1FFF787FFBFB2043008E01C
:104420000A787245EAD0C3E740BA0A30013F5044E7
:10443000BFB2002FBCD0FFF777FF0A2201468246A9
:1044400001A80CF0CBF9019BBDF80C00B3F1012FD2
:10445000EAD1B0F5806FE7D14FF48C73029A03FB79
:104460000643164912BA05F586758A42254494BF5B
:104470009A60996004220AF10A0128460CF0AEF90C
:104480004FF48C7303FB0644D4F8103123B1D4F8F5
:104490001421294640469847484603F001FA04B0E3
:1044A000BDE8F0870C30D2F8142100212044984751
:1044B00086E700BFE80D0010FC0F0010803A0900ED
:1044C0002DE9F3419046002206460F4610464FF470
:1044D000887103F014FA054600284DD044680C2278
:1044E000002120460CF056FA98FA98F80123002291
:1044F000A3706371A4F8008022717B1E0C3400222B
:10450000611C03F1010C63461CF8017B481C2E2F33
:1045100000D05FBB22701A780C46002AEFD104F855
:10452000052B04224FF001230DEB020101930CF047
:1045300055F969682846611A89B203F066FA104B8A
:10454000104C03EB860635223146206800F018FC3B
:10455000206835233246294600F0FFFB04462846F2
:1045600003F09EF9204602B0BDE8F081013200F868
:10457000017CD2B20146C6E74FF0FF34F2E700BF3C
:10458000F40F0010F00F00104FF48C73434370B51C
:10459000274C0546E15CE218022926460ED0032985
:1045A0003CD001291DD1234A03F10C01E2500246FF
:1045B00000202144BDE87040FFF782BF91780139A7
:1045C000C9B2917069B9D17850780131C9B2042962
:1045D000D1701DD130B9184B5B681BB101235370EA
:1045E000538070BD4FF48C7068433218D2F810318C
:1045F0002BB10C30D2F814210021304498474FF4ED
:104600008C735D43002372197355C2F81031E8E7CB
:10461000917003F10C012A462144CBE791680139DE
:1046200091600029DDD1E154C2F81011D9E700BF33
:10463000FC0F001002000100F40F0010012808D840
:10464000044B1B682BB121B10B6813B1024A42F82D
:1046500020307047F00F0010F40F00100F4B37B5EB
:104660000F4A23F003030F48136001F0AAFA0E4D1E
:1046700001902C6884B900F0C1FB286060B122462B
:104680000A4900F05FFA0A492868224600F09CFBBC
:1046900001A92046FFF7D2FF03B030BDEF0D001097
:1046A000E80D001070B70100F00F001080B7010096
:1046B0004943000008B5094B1B686BB10020FFF7A8
:1046C00063FF0120FFF760FF0220FFF75DFFBDE8F9
:1046D00008400320FFF758BF08BD00BFF00F0010CF
:1046E00008B506F0FFF800F00FF8FEF779FA02F0CF
:1046F000CDF903F071FE02F031F8FFF7AFFFBDE82E
:10470000084002F09FBF00000A4B0B4A23F003034E
:104710001360002143F6EC72084819719918016082
:1047200007481A60985001220A71064A0648136029
:1047300006F0A6B803C00720781400107C140010FF
:10474000EC3FEC3F5C14001060140010F8B5044618
:10475000002847D0244D2A68824203D8234F3A6864
:10476000824205D806F0D4F8BDE8F84006F0E2B879
:104770001F4806F099F800231E4A04F8043C136809
:10478000A4F10806B34234F8080C2B6888BF166001
:1047900019188E420FD00D796DB93D68A9420AD023
:1047A0001568A942195A08BF166024F8081C195A3E
:1047B000F01A1944488034F8061C581886420CD068
:1047C000057955B91568AE4208BF106034F8082C59
:1047D0005A5234F8082C134459800548BDE8F84073
:1047E00006F072B8F8BD00BF781400107C140010F9
:1047F000601400105C1400102DE9F0414FF6FC74B9
:1048000003310C400B2C054605D943F6EC739C4252
:1048100002D900250EE00C24DFF8B880D8F800306B
:10482000AB4203D8284A1268AA4206D806F070F8AC
:1048300006F080F82846BDE8F081A5F1080635F8B5
:10484000087CF61AB6B2083FBF1BBFB2A742E0D33E
:10485000F0D01E4806F028F8D8F8003035F8081CCB
:1048600058180279EAB933F801C0194906F108026B
:104870000F681444A4B21A19874208BF0A600021C5
:10488000117123F804C043F6EC71568025F8084CEA
:104890001A5B8A421CBF9B185C800C4806F014F817
:1048A000C8E704F11402BA42F7D8094806F1080231
:1048B00014440768A4B21A19974288BF0260002006
:1048C00010711953DFE700BF7C1400106014001052
:1048D0005C140010781400102DE9F84300284FD024
:1048E0004FF6FC74033004400B2C05D943F6EC73EF
:1048F0009C4202D9002043E00C24284805F0D4FF54
:1049000043F6EC7C6FF00709254B264819680268CE
:10491000ACEB0408531A9BB2434503DB1F4805F078
:10492000D3FFE7E7CD1895F804E0CF5ABEF1000FAA
:1049300031D1A9EB03063E44A6422CD304F114085E
:1049400046451FD308341C44A4B20E1986F804E06F
:104950000F53738001232C802B710B5B634501D0B7
:104960000B445C80AA4206D10F4B1C6800231679C9
:104970005EB903B10260094805F0A6FF05F1080021
:10498000BDE8F88301232B71ECE7A242F1D0128835
:1049900001230A44EBE73B46BEE700BF601400106A
:1049A000781400105C1400107C1400102DE9F04FF6
:1049B000D0F804908B4685B00546B9F800104BBA84
:1049C0000289C3F303230233B2EB830F08D349BA3E
:1049D000C1F303218900494202F037FF064628B19E
:1049E000284605B0BDE8F04F02F05ABF524C594678
:1049F0002068D5F804A001F051F8BAF8007080469C
:104A00007FBABFB2BAF802305BBA9BB2442B0293B2
:104A100030D1432F6DD1DBF82830002B69D05C6892
:104A2000002C66D063681BB1444A1268934260D17F
:104A3000BAF806304BB12B893F4A00933F49112306
:104A4000284601F01BF90028CAD16FF0070128465B
:104A500002F0FBFE0028C3D1002C53D0E669002EE3
:104A6000BED00097354B2A462146206AB04705B094
:104A7000BDE8F08F324A2168D2F800C02F4A644660
:104A8000126830460392324601F0F00E1CB900283D
:104A90002FD00446CCE7668A029B9E4226D1266828
:104AA000B8F1000F00D156B1B14208D0BEF1E00F0D
:104AB00005D0B8F1000F19D0267AB30616D520B963
:104AC000267C16F0040F08BF2046A68ABE420DD1F0
:104AD000666816B1039B9E4208D1002AA8D0E368FD
:104AE000D360174BC4F80CC01C60A1E72246E468F1
:104AF000CCE7114BDBF804201B689A427FF470AFBF
:104B0000002495E7B8F1000F7FF46AAF0A4B1B68E9
:104B100003F0F003E02B3FF463AFB9F8001049BA9B
:104B2000C1F3032102318900284602F08EFE0321E1
:104B3000284601F0A1FF53E78025001078250010DA
:104B400070250010F0B51D4E0027D6F800C0634652
:104B500053B901B1096801604AB3428217B9C0F87C
:104B60000CC03060002007E0834212D05C8A94427F
:104B70000DD113B96FF00700F0BD1D68002DF9D0FD
:104B80000029F7D00C68002CF4D0A542F2D0DB68E5
:104B9000DEE70127FBE75C8A944205BF63460132EA
:104BA000DB6892B2002BD8D08A42F4D1E2E76346A8
:104BB0004FF440424FF6FF71F4E700BF702500103C
:104BC0002DE9F04F9946037A85B0054698060E46C2
:104BD0009046DDF838A09DF83CB05CD56A8A002A82
:104BE00062D00821304602F030FE002867D13446FA
:104BF00067686B8A5BBA3B8099FA99F90023BB71AD
:104C0000FB71D8F80030A7F8029003F0F003E02B16
:104C100006D12B7C190742BF637B43F00403637307
:104C2000A94615B12B68002B57D10AF10409238935
:104C30005ABABA802A7CD2071AD4BBF1000F56D0D8
:104C400008224946CDE9003220461123424601F0B0
:104C50004DF8BDF84030DB439BB2184483B203EB00
:104C6000104080B24FF6FF73002808BF1846F88046
:104C7000112301936B7ACDF808A000934246AB7ADA
:104C80004946204601F0C0FCB442074613D02046F6
:104C900002F006FE0FE05146106800F0FFFE00280B
:104CA0009CD06FF0050706E029462846FFF74AFF2B
:104CB0000746002895D0384605B0BDE8F08F0022A1
:104CC0000821012002F01BFE0446C0B13389002BED
:104CD0008ED0314602F0E3FE8AE7DAF804209342F0
:104CE000A5D0B442DDD0204602F0DAFDD9E700932A
:104CF000424611234946204600F0C0FFB2E74FF07C
:104D0000FF37D8E7F0B514461268054602F0F00206
:104D1000E02A85B00CBF183020460E461F4601F031
:104D2000E3FA70B1BDF82C30224602939DF828308A
:104D30003146CDE900033B462846FFF741FF05B069
:104D4000F0BD6FF00300FAE713B5CDE90023021DB3
:104D5000838AFFF7D7FF02B010BD13B50024CDE959
:104D60000044FFF7CFFF02B010BD1FB50024CDE90E
:104D70000144069C0094FFF723FF04B010BD00001F
:104D800070B51646428A04460D466AB195B9237C31
:104D9000656043F0040323740A4BA6821A68104628
:104DA00050B9E2601C6004E00146FFF7CBFE00282A
:104DB000ECD070BD2D68EAE7A04201D0C068EFE7F3
:104DC0000020F6E770250010C0E9071270470000C8
:104DD000094A0146136883420BD1C368136000205F
:104DE000FDF73CBFDA681AB18A4204BFCA68DA60CC
:104DF000DB68002BF6D1F2E77025001010B500201B
:104E0000FDF716FF044628B1242200210BF0C2FD55
:104E1000FF23A372204610BDF8B5A04B04461B78B3
:104E20009F4D13F0100F00F09B802A68B0F85C10C3
:104E30009C4ED0E91870A7EB020CBCF1000F336850
:104E40000BDB974202D1C71A002F06DB984216D11E
:104E5000954F3F68FF898F4211D9934F3F68FF8973
:104E6000C4E918231FFA87FCA4F85C70BCF1000F9A
:104E700005D094F8A42012B1002284F8A420E76C95
:104E8000DA1B002A00F31C810022A4F86C20874A58
:104E90001288002A40F0FE80B4F85CC0626E0144C3
:104EA00062448A4240F0F680B4F93620002AC0F20B
:104EB000F1809F4240F0EE8094F850300133DBB235
:104EC000032B84F8503040F2DF80B4F85220238F57
:104ED00013449BB29A4201D2A4F85230676FAFB12B
:104EE0003B6931685A68988912BA43BA13F00303D0
:104EF00018BF0123B7F808C08A1A6344D31A002BDD
:104F000004DBA36DC91A002940F34681E06B38B376
:104F1000236C32689B1A002B22DA654BB4F944707B
:104F20001A8880B2111AC7F3CF06891B89B20BB257
:104F3000002BB8BF801AB4F94620BCBF801903B259
:104F4000A2EBA2023944134409B29BB2A4F8463042
:104F500003EBE103A4F848300023A4F84410E36312
:104F6000524F2B683E88626A002E00F04A81D11AA7
:104F7000012900F13281C3F10100801B1044002897
:104F800000F32B814B4E8AB2706843898B4280F2CA
:104F900021814FF0000C03899B1A9BB242898A42FF
:104FA000C0F21281494209B202F04FFC2B683189EC
:104FB000626A0B449B1A338133692A605A602868FD
:104FC000626A831A002BC0F21781218D431C9B1A41
:104FD0005B1A002B00F31081904240F00D81354E9A
:104FE0003069828953BA13F0030318BF0123B6F85E
:104FF00008C063449BB299423B8020D253BADB077E
:1050000007D553BA03F03E035BBA22F47C521A432D
:105010008281318183895BBA980744BF01F1FF31F6
:1050200031813189706802F0F0FC33699B895BBA89
:1050300013F0030318BF0123328913443B803988DE
:10504000238D2A685B1A0A4462622385204601F098
:10505000AFFE73681A891AB1174A13600023736090
:1050600033699B895BBAD90741BF144A137843F06F
:105070002003137094F82030DA0740F1B88023F051
:10508000010343F00203B4E07FF428AF2046FFF7AA
:10509000ABF823E7002384F850301FE78414001096
:1050A000A414001080140010A8140010AC140010F8
:1050B00094250010881400109C140010A0140010F7
:1050C000A16D591A002963DC94F82010B4F94470DA
:1050D00048074FF0000042BF21F0040184F820107F
:1050E000B4F85410E36448BFA4F85210B4F8461062
:1050F000237C01EBE701A4F84810B4F86E1092B2DB
:10510000A4F86C20032B0A4484F84A00A4F86E200B
:1051100084F850000FD9B4F85220B4F85410238FFB
:1051200091429CBF5B43B3FBF2F313449BB29A42A0
:1051300001D2A4F85230A76F002F6ED03B695A6895
:10514000998912BA4BBA13F0030318BF01233889A7
:1051500003443068121A1344002B01DD00235EE083
:105160003B68A367B4F86C3033B149BAC90744BF90
:1051700003F1FF33A4F86C30786802F06CFCB4F8EB
:105180007030181AA4F87000384601F048FED2E7D3
:105190000023A4F86C30A1E63B686367B4F86C3078
:1051A00033B140BAC20744BF03F1FF33A4F86C30F7
:1051B000786802F050FCB4F87030181AA4F8700047
:1051C000384601F02CFE89E60381A0F80AC0891A4E
:1051D0000068E3E6524211B2E6E69B1A002BBEBF1E
:1051E00094F8203043F0020384F82030E7E643F0DF
:1051F000010384F82030F8BD2046BDE8F840FEF7F2
:1052000039BE991A002905DB01339B1A228D9B1A9E
:10521000002BF0DD94F8203033E74FF6FF73E38680
:10522000002384F8343059E6F0B51C4B1C68A38980
:105230005ABAB2F5C04F0CD314345ABA002340F214
:10524000B35640F2B457120B053A920092B29A420A
:1052500000D8F0BDE15C01290AD00029F9D002296B
:1052600004EB030507D069780029F2D00B4400E075
:1052700001339BB2EBE769780429EAD1D91C91424A
:10528000E7DA95F802C0E978043341EA0C214D1EB3
:10529000ADB2B54288BF39460180EAE7A8140010D4
:1052A0002DE9F04F43688BB00C46064619884ABA80
:1052B000984DC2F3032203EB82032B6049BAC1F37A
:1052C00003218900494202F0C0FA10B93389132B37
:1052D00005D830460BB0BDE8F04F02F0E1BA8E4F72
:1052E0002146386800F0DAFB03970028F1D13B68CB
:1052F00003F0F003E02BECD03389884C00933A465E
:1053000006232146304600F0B9FC0028E1D12B6885
:10531000998949BAC1F30731C1EB8131890009B2DA
:10532000304602F092FA0028D3D12A68118849BA8F
:1053300089B2118053885BBAD2F804C0DFF808A2A2
:105340009CFA8CFCCAF800C0D2F808B0DFF8EC91E7
:105350009BFA8BFB9BB2C9F800B05380C2F804C023
:10536000C2F808B0D5896DBAD581958905956DBA11
:10537000DFF8C0E1EDB205F03F088EF8008015F0CF
:10538000030E18BF4FF0010E37892468BE440697FC
:10539000DFF8B8811FFA8EF70794DFF888E1039CE5
:1053A00002972468A8F80070DEF800700494CDF825
:1053B00024903C46F146089714B9594A10688AE08F
:1053C000B4F81EE08E454DD1B4F81CE09E4549D19D
:1053D0006768BE46079FBE4544D12768BE46049F06
:1053E000BE453FD128B1E368C360089BE3604D4BE5
:1053F0001C6000234C4F06993A6139814B4D4C4952
:10540000E26F3B607E600B602B70894662B1D4F81E
:1054100084B0BBF1000F00F0EB8021466069D847F3
:10542000002840F0EB80E067424E434A3378146036
:1054300013F0040F934600F00881237C022B40F008
:10544000E6803E4BA26D1B689A4240F0EA802B78C2
:1054500043F008032B7094F8203023F0010384F804
:105460002030DEE02046E468A6E7C28B8A4231D1D4
:10547000828B9A422ED14268079C94422AD10268BC
:10548000049C944226D16C073FF523AFAA070FD5A1
:10549000426ABCEB020210D4048D121B002A0CDC01
:1054A000CDE9003102991D4B1B4A61445846E2E2A6
:1054B000EF0742BF224B1B680363029B002B3FF4A4
:1054C00008AF90F8203043F0020380F82030FEF758
:1054D000FDFCFEE6C0680028C7D11A4A1268904653
:1054E000B8F1000F05D1059A52BA52073FF5F1AE57
:1054F000D6E7B8F81C409C4208D1D8F80040049F79
:10550000A74200F0A382002C00F0A0824046D8F809
:105510000C80E5E7A8140010802500107825001005
:10552000A42500109025001088140010A01400106D
:105530009C140010841400107425001080140010B6
:105540009425001098250010A4140010AC1400102D
:10555000AD077FF5BEAE98F8110001F077FF054664
:1055600000283FF4B6AE039B1B680360B8F81C30FC
:105570008383AE4B1B684360AD4B1A685178137838
:1055800043EA0123C38303230374DAF80030591C70
:105590004162C162013BD2890366D8F81430A0F899
:1055A0005C204361D8F81830A0F85420836198F843
:1055B000083023F073030372D9F80030C9F80000F3
:1055C000C36002F009F805F13800FFF72DFE291D30
:1055D000288F01F0C6FF122128872846FEF7E6FB38
:1055E00020B12146284601F0DBFE72E628466EE730
:1055F0005B462146584601F057FE11E70A303FF45A
:1056000068AE8C4B1B88002B3FF40EAF61E68A4BD3
:10561000626A1B689B1A04D4228D9B1A002B7FF7A9
:1056200016AF2B78190740F1BB81D4F890301BB12D
:105630006FF00A01606998472146804801F056FDE5
:1056400021460120FDF70AFB84E013F0020194F8E3
:10565000202008D0207C0238012804D942F0020220
:1056600084F82020DDE7D00658BF754A04F13800E1
:1056700058BF1268CDE9023158BF2263002284F876
:10568000A520FFF7D1FDDDE90231227C023A072A8D
:10569000C7D8DFE812F008008100E900ED0036010C
:1056A000E9005501740103F01202122A5FD1A26FC2
:1056B000644912690968526812BA01328A4256D1A5
:1056C000B4F86E30E2640133A4F86E30DAF80030DA
:1056D000574A591C6162E1621168013B8A7BC97BB0
:1056E0002366042342EA01222374E118A4F85C2013
:1056F000208F01F036FF00EB80035B00A4F85430EC
:10570000B4F852302087012B04BF400080B2B4F8B7
:105710007030A4F85200A06F013BA4F87030036809
:10572000A36763B94FF6FF73E38601F078FBD4F803
:1057300088304BB994F8203043F002038FE6002301
:10574000E38684F84A30F0E70022214660699847F2
:105750000A30EFD100247868CBF80040C9F8004047
:1057600010B102F09DF87C600BB0BDE8F08FDA0656
:105770007FF557AF2E4BB8F800001B68DAF8001021
:105780001A88014401925B88099800932E4A274B9E
:105790000068FEF7ADFC44E7DB0657D5294B1868D7
:1057A000E36CDB43C34233D4A36DC31A002B2FDC5D
:1057B00004232374A3691BB9204601F037FEC9E70F
:1057C000002221466069984710B10A30C2D0F3E741
:1057D0002046B4F85280FFF71FFBB4F86C3013B1C9
:1057E000013BA4F86C30238FB8F1010F04BF5B00BC
:1057F0009BB2A4F852302B7898067FF512AF94F83C
:10580000203043F0020384F820300723237408E794
:10581000074BB8F800C01B68DAF800101A8861441A
:1058200001925B88084A0093004BB2E7782500108C
:10583000A8140010AC140010A4140010902500103F
:1058400094250010801400108025001000293FF4DA
:10585000E8AE8A4A636A1268013B93427FF4E1AE84
:105860002046FEF7A3FCDCE62046FFF7D5FAC2E7A8
:105870002046FFF7D1FA2B7813F0200F337835D07C
:1058800013F0100F94F8203043F002032AD07C4A22
:10589000A16D1268914225D184F82030204601F094
:1058A000E6FA784A13689C4202D1E36813600DE07F
:1058B0000021754A136013B90029F7D106E0D868B2
:1058C00084420CD101B11360E268DA600A232374C8
:1058D0006E4B1A681C60E26001F07EFEA1E60121B9
:1058E0000346E8E784F8203008238FE7D9067FF5E0
:1058F00098AE634BA26D1B689A427FF492AE06236A
:1059000084E72046FFF788FA2B789A067FF589AE60
:1059100094F82030204643F0020384F8203001F050
:10592000A6FA584A13689C42BFD00021564A136019
:10593000002BC1D0D8688442C4D001210346F7E7C8
:105940002046FFF769FA3378DB067FF56AAE4C4BE9
:10595000A26D1B689A427FF464AE204601F087FA7C
:10596000484A13689C42A0D00021474A1360002B8C
:10597000A2D0D8688442A5D001210346F7E720468B
:10598000FFF74AFA3378D8067FF54BAE3C4BA26D51
:105990001B689A4202BF2B7843F010032B7040E63D
:1059A000DA063FF549AEB4F86C2062B9D9F80020A8
:1059B0009AB92B78990636D400232046CBF80030CC
:1059C000FEF784FAC6E6D4F88030002BEED02146EC
:1059D000606998470A30E9D1BCE694F82030DB06CC
:1059E00003D5104601F05CFFE6E63378180742BFA6
:1059F000537B43F001035373D4F884606EB10023EA
:105A000021466069B04710F10A0F3FF4A3AE0028A9
:105A1000CFD0D9F80030E367CBE733462146304694
:105A200001F042FCEFE740F66832238DD4F8845051
:105A300093421CBF01332385002DBDD00023214696
:105A40001A466069A8470A30B6D183E638B1D8F85B
:105A50000C40C460C8F80C200D4AC2F8008015F054
:105A600010043FF475ADCDE900310299094B0A4AA3
:105A700061440BF10100FEF73BFB2AE4A414001083
:105A800080140010902500109C250010A425001003
:105A9000982500107825001080250010431E033340
:105AA00011D891F8393013F002030ED04A688242BF
:105AB0000BD08B6842401A4207D1DB4383430CBFB3
:105AC0000120002070470120704700207047F0B58A
:105AD00085B06E460425B4460378A3F13002092A46
:105AE0006CD8302B18D1437803F0DF02582A13BF4B
:105AF0004FF0080E4FF0100E8378013008BF0230CF
:105B000007460022A3F13000092808D802FB0E3214
:105B1000303A7B780137F5E74FF00A0EF0E7BEF137
:105B2000100F11D123F02004413CE4B2A3F1610035
:105B3000052CC0B208D81A2834BF612041200A338E
:105B40001B1A43EA0212E4E72E2B06D1013D35D0A1
:105B500046F8042B781C7B78BFE713F0DF0F02D0E8
:105B6000093B042B2AD8A6EB0C0080100130042836
:105B70000AD8DFE800F02409030E1800B2F1807F94
:105B80001CD2009B42EA036209B112BA0A600120EA
:105B900015E0B2F5803F11D2019B00981B0443EA47
:105BA00000631A43F0E7FF2A08D8019B00981B0402
:105BB00043EA0063029843EA0023F2E7002005B0BD
:105BC000F0BD07B501A9FFF782FF18B1019803B036
:105BD0005DF804FB4FF0FF30F9E72DE9F74F03685C
:105BE0000D46042000264FF00A084FF02E0A0193BC
:105BF0000DF1040C00231CF8017BB7FBF8F45FFAED
:105C000084F908FB14740DF1080B03F1010E303414
:105C10009B44092F5FFA8EFE0BF8084C15D83746C7
:105C20002C460CF8019CFF2B06F1010610D197427F
:105C30001BDA2546013810F0FF0005F801ABD9D179
:105C40002070084603B0BDE8F08F4F467346D4E796
:105C50005D1E9742EDB208DA02AF3B4413F8083CF0
:105C6000374604F8013B2B46DDE70020EAE7000059
:105C700010220149FFF7B1BFAE1400102DE9F8431F
:105C800000250646894690461F462C46EEB905B1CA
:105C900064BAD8F80020D9F8003090B200EB124076
:105CA0009AB2104400EB134020447BBA1844BDF86C
:105CB00020305BBA034498B200EB134398B200EB78
